{
	"contracts/10_Struct.sol": {
		"Structs": {
			"abi": [
				{
					"inputs": [
						{
							"internalType": "string",
							"name": "_brand",
							"type": "string"
						},
						{
							"internalType": "uint256",
							"name": "_year",
							"type": "uint256"
						},
						{
							"internalType": "bool",
							"name": "_crashed",
							"type": "bool"
						}
					],
					"name": "addCarToMap",
					"outputs": [],
					"stateMutability": "nonpayable",
					"type": "function"
				},
				{
					"inputs": [],
					"name": "car",
					"outputs": [
						{
							"internalType": "string",
							"name": "brand",
							"type": "string"
						},
						{
							"internalType": "uint256",
							"name": "year",
							"type": "uint256"
						},
						{
							"internalType": "bool",
							"name": "crashed",
							"type": "bool"
						}
					],
					"stateMutability": "view",
					"type": "function"
				},
				{
					"inputs": [
						{
							"internalType": "address",
							"name": "",
							"type": "address"
						}
					],
					"name": "carMap",
					"outputs": [
						{
							"internalType": "string",
							"name": "brand",
							"type": "string"
						},
						{
							"internalType": "uint256",
							"name": "year",
							"type": "uint256"
						},
						{
							"internalType": "bool",
							"name": "crashed",
							"type": "bool"
						}
					],
					"stateMutability": "view",
					"type": "function"
				},
				{
					"inputs": [
						{
							"internalType": "string",
							"name": "_brand",
							"type": "string"
						},
						{
							"internalType": "uint256",
							"name": "_year",
							"type": "uint256"
						},
						{
							"internalType": "bool",
							"name": "_crashed",
							"type": "bool"
						}
					],
					"name": "createCar",
					"outputs": [],
					"stateMutability": "nonpayable",
					"type": "function"
				}
			],
			"devdoc": {
				"kind": "dev",
				"methods": {},
				"version": 1
			},
			"evm": {
				"assembly": "    /* \"contracts/10_Struct.sol\":63:584  contract Structs{... */\n  mstore(0x40, 0x80)\n  callvalue\n  dup1\n  iszero\n  tag_1\n  jumpi\n  0x00\n  dup1\n  revert\ntag_1:\n  pop\n  dataSize(sub_0)\n  dup1\n  dataOffset(sub_0)\n  0x00\n  codecopy\n  0x00\n  return\nstop\n\nsub_0: assembly {\n        /* \"contracts/10_Struct.sol\":63:584  contract Structs{... */\n      mstore(0x40, 0x80)\n      callvalue\n      dup1\n      iszero\n      tag_1\n      jumpi\n      0x00\n      dup1\n      revert\n    tag_1:\n      pop\n      jumpi(tag_2, lt(calldatasize, 0x04))\n      shr(0xe0, calldataload(0x00))\n      dup1\n      0x7f7f0c24\n      eq\n      tag_3\n      jumpi\n      dup1\n      0xa7ff4bda\n      eq\n      tag_4\n      jumpi\n      dup1\n      0xd50bcd2b\n      eq\n      tag_5\n      jumpi\n      dup1\n      0xee26fac3\n      eq\n      tag_6\n      jumpi\n    tag_2:\n      0x00\n      dup1\n      revert\n        /* \"contracts/10_Struct.sol\":280:416  function createCar(string memory _brand, uint _year, bool _crashed) public {... */\n    tag_3:\n      tag_7\n      0x04\n      dup1\n      calldatasize\n      sub\n      dup2\n      add\n      swap1\n      tag_8\n      swap2\n      swap1\n      tag_9\n      jump\t// in\n    tag_8:\n      tag_10\n      jump\t// in\n    tag_7:\n      stop\n        /* \"contracts/10_Struct.sol\":428:581  function addCarToMap(string memory _brand, uint _year, bool _crashed) public {... */\n    tag_4:\n      tag_11\n      0x04\n      dup1\n      calldatasize\n      sub\n      dup2\n      add\n      swap1\n      tag_12\n      swap2\n      swap1\n      tag_9\n      jump\t// in\n    tag_12:\n      tag_13\n      jump\t// in\n    tag_11:\n      stop\n        /* \"contracts/10_Struct.sol\":229:267  mapping (address => Car) public carMap */\n    tag_5:\n      tag_14\n      0x04\n      dup1\n      calldatasize\n      sub\n      dup2\n      add\n      swap1\n      tag_15\n      swap2\n      swap1\n      tag_16\n      jump\t// in\n    tag_15:\n      tag_17\n      jump\t// in\n    tag_14:\n      mload(0x40)\n      tag_18\n      swap4\n      swap3\n      swap2\n      swap1\n      tag_19\n      jump\t// in\n    tag_18:\n      mload(0x40)\n      dup1\n      swap2\n      sub\n      swap1\n      return\n        /* \"contracts/10_Struct.sol\":204:218  Car public car */\n    tag_6:\n      tag_20\n      tag_21\n      jump\t// in\n    tag_20:\n      mload(0x40)\n      tag_22\n      swap4\n      swap3\n      swap2\n      swap1\n      tag_19\n      jump\t// in\n    tag_22:\n      mload(0x40)\n      dup1\n      swap2\n      sub\n      swap1\n      return\n        /* \"contracts/10_Struct.sol\":280:416  function createCar(string memory _brand, uint _year, bool _crashed) public {... */\n    tag_10:\n        /* \"contracts/10_Struct.sol\":376:404  Car(_brand, _year, _crashed) */\n      mload(0x40)\n      dup1\n      0x60\n      add\n      0x40\n      mstore\n      dup1\n        /* \"contracts/10_Struct.sol\":380:386  _brand */\n      dup5\n        /* \"contracts/10_Struct.sol\":376:404  Car(_brand, _year, _crashed) */\n      dup2\n      mstore\n      0x20\n      add\n        /* \"contracts/10_Struct.sol\":388:393  _year */\n      dup4\n        /* \"contracts/10_Struct.sol\":376:404  Car(_brand, _year, _crashed) */\n      dup2\n      mstore\n      0x20\n      add\n        /* \"contracts/10_Struct.sol\":395:403  _crashed */\n      dup3\n        /* \"contracts/10_Struct.sol\":376:404  Car(_brand, _year, _crashed) */\n      iszero\n      iszero\n      dup2\n      mstore\n      pop\n        /* \"contracts/10_Struct.sol\":370:373  car */\n      0x00\n        /* \"contracts/10_Struct.sol\":370:404  car = Car(_brand, _year, _crashed) */\n      dup1\n      dup3\n      add\n      mload\n      dup2\n      0x00\n      add\n      swap1\n      dup2\n      tag_24\n      swap2\n      swap1\n      tag_25\n      jump\t// in\n    tag_24:\n      pop\n      0x20\n      dup3\n      add\n      mload\n      dup2\n      0x01\n      add\n      sstore\n      0x40\n      dup3\n      add\n      mload\n      dup2\n      0x02\n      add\n      exp(0x0100, 0x00)\n      dup2\n      sload\n      dup2\n      0xff\n      mul\n      not\n      and\n      swap1\n      dup4\n      iszero\n      iszero\n      mul\n      or\n      swap1\n      sstore\n      pop\n      swap1\n      pop\n      pop\n        /* \"contracts/10_Struct.sol\":280:416  function createCar(string memory _brand, uint _year, bool _crashed) public {... */\n      pop\n      pop\n      pop\n      jump\t// out\n        /* \"contracts/10_Struct.sol\":428:581  function addCarToMap(string memory _brand, uint _year, bool _crashed) public {... */\n    tag_13:\n        /* \"contracts/10_Struct.sol\":541:569  Car(_brand, _year, _crashed) */\n      mload(0x40)\n      dup1\n      0x60\n      add\n      0x40\n      mstore\n      dup1\n        /* \"contracts/10_Struct.sol\":545:551  _brand */\n      dup5\n        /* \"contracts/10_Struct.sol\":541:569  Car(_brand, _year, _crashed) */\n      dup2\n      mstore\n      0x20\n      add\n        /* \"contracts/10_Struct.sol\":553:558  _year */\n      dup4\n        /* \"contracts/10_Struct.sol\":541:569  Car(_brand, _year, _crashed) */\n      dup2\n      mstore\n      0x20\n      add\n        /* \"contracts/10_Struct.sol\":560:568  _crashed */\n      dup3\n        /* \"contracts/10_Struct.sol\":541:569  Car(_brand, _year, _crashed) */\n      iszero\n      iszero\n      dup2\n      mstore\n      pop\n        /* \"contracts/10_Struct.sol\":520:526  carMap */\n      0x03\n        /* \"contracts/10_Struct.sol\":520:538  carMap[msg.sender] */\n      0x00\n        /* \"contracts/10_Struct.sol\":527:537  msg.sender */\n      caller\n        /* \"contracts/10_Struct.sol\":520:538  carMap[msg.sender] */\n      0xffffffffffffffffffffffffffffffffffffffff\n      and\n      0xffffffffffffffffffffffffffffffffffffffff\n      and\n      dup2\n      mstore\n      0x20\n      add\n      swap1\n      dup2\n      mstore\n      0x20\n      add\n      0x00\n      keccak256\n        /* \"contracts/10_Struct.sol\":520:569  carMap[msg.sender] = Car(_brand, _year, _crashed) */\n      0x00\n      dup3\n      add\n      mload\n      dup2\n      0x00\n      add\n      swap1\n      dup2\n      tag_27\n      swap2\n      swap1\n      tag_25\n      jump\t// in\n    tag_27:\n      pop\n      0x20\n      dup3\n      add\n      mload\n      dup2\n      0x01\n      add\n      sstore\n      0x40\n      dup3\n      add\n      mload\n      dup2\n      0x02\n      add\n      exp(0x0100, 0x00)\n      dup2\n      sload\n      dup2\n      0xff\n      mul\n      not\n      and\n      swap1\n      dup4\n      iszero\n      iszero\n      mul\n      or\n      swap1\n      sstore\n      pop\n      swap1\n      pop\n      pop\n        /* \"contracts/10_Struct.sol\":428:581  function addCarToMap(string memory _brand, uint _year, bool _crashed) public {... */\n      pop\n      pop\n      pop\n      jump\t// out\n        /* \"contracts/10_Struct.sol\":229:267  mapping (address => Car) public carMap */\n    tag_17:\n      mstore(0x20, 0x03)\n      dup1\n      0x00\n      mstore\n      keccak256(0x00, 0x40)\n      0x00\n      swap2\n      pop\n      swap1\n      pop\n      dup1\n      0x00\n      add\n      dup1\n      sload\n      tag_28\n      swap1\n      tag_29\n      jump\t// in\n    tag_28:\n      dup1\n      0x1f\n      add\n      0x20\n      dup1\n      swap2\n      div\n      mul\n      0x20\n      add\n      mload(0x40)\n      swap1\n      dup2\n      add\n      0x40\n      mstore\n      dup1\n      swap3\n      swap2\n      swap1\n      dup2\n      dup2\n      mstore\n      0x20\n      add\n      dup3\n      dup1\n      sload\n      tag_30\n      swap1\n      tag_29\n      jump\t// in\n    tag_30:\n      dup1\n      iszero\n      tag_31\n      jumpi\n      dup1\n      0x1f\n      lt\n      tag_32\n      jumpi\n      0x0100\n      dup1\n      dup4\n      sload\n      div\n      mul\n      dup4\n      mstore\n      swap2\n      0x20\n      add\n      swap2\n      jump(tag_31)\n    tag_32:\n      dup3\n      add\n      swap2\n      swap1\n      0x00\n      mstore\n      keccak256(0x00, 0x20)\n      swap1\n    tag_33:\n      dup2\n      sload\n      dup2\n      mstore\n      swap1\n      0x01\n      add\n      swap1\n      0x20\n      add\n      dup1\n      dup4\n      gt\n      tag_33\n      jumpi\n      dup3\n      swap1\n      sub\n      0x1f\n      and\n      dup3\n      add\n      swap2\n    tag_31:\n      pop\n      pop\n      pop\n      pop\n      pop\n      swap1\n      dup1\n      0x01\n      add\n      sload\n      swap1\n      dup1\n      0x02\n      add\n      0x00\n      swap1\n      sload\n      swap1\n      0x0100\n      exp\n      swap1\n      div\n      0xff\n      and\n      swap1\n      pop\n      dup4\n      jump\t// out\n        /* \"contracts/10_Struct.sol\":204:218  Car public car */\n    tag_21:\n      0x00\n      dup1\n      0x00\n      add\n      dup1\n      sload\n      tag_34\n      swap1\n      tag_29\n      jump\t// in\n    tag_34:\n      dup1\n      0x1f\n      add\n      0x20\n      dup1\n      swap2\n      div\n      mul\n      0x20\n      add\n      mload(0x40)\n      swap1\n      dup2\n      add\n      0x40\n      mstore\n      dup1\n      swap3\n      swap2\n      swap1\n      dup2\n      dup2\n      mstore\n      0x20\n      add\n      dup3\n      dup1\n      sload\n      tag_35\n      swap1\n      tag_29\n      jump\t// in\n    tag_35:\n      dup1\n      iszero\n      tag_36\n      jumpi\n      dup1\n      0x1f\n      lt\n      tag_37\n      jumpi\n      0x0100\n      dup1\n      dup4\n      sload\n      div\n      mul\n      dup4\n      mstore\n      swap2\n      0x20\n      add\n      swap2\n      jump(tag_36)\n    tag_37:\n      dup3\n      add\n      swap2\n      swap1\n      0x00\n      mstore\n      keccak256(0x00, 0x20)\n      swap1\n    tag_38:\n      dup2\n      sload\n      dup2\n      mstore\n      swap1\n      0x01\n      add\n      swap1\n      0x20\n      add\n      dup1\n      dup4\n      gt\n      tag_38\n      jumpi\n      dup3\n      swap1\n      sub\n      0x1f\n      and\n      dup3\n      add\n      swap2\n    tag_36:\n      pop\n      pop\n      pop\n      pop\n      pop\n      swap1\n      dup1\n      0x01\n      add\n      sload\n      swap1\n      dup1\n      0x02\n      add\n      0x00\n      swap1\n      sload\n      swap1\n      0x0100\n      exp\n      swap1\n      div\n      0xff\n      and\n      swap1\n      pop\n      dup4\n      jump\t// out\n        /* \"#utility.yul\":7:82   */\n    tag_39:\n        /* \"#utility.yul\":40:46   */\n      0x00\n        /* \"#utility.yul\":73:75   */\n      0x40\n        /* \"#utility.yul\":67:76   */\n      mload\n        /* \"#utility.yul\":57:76   */\n      swap1\n      pop\n        /* \"#utility.yul\":7:82   */\n      swap1\n      jump\t// out\n        /* \"#utility.yul\":88:205   */\n    tag_40:\n        /* \"#utility.yul\":197:198   */\n      0x00\n        /* \"#utility.yul\":194:195   */\n      dup1\n        /* \"#utility.yul\":187:199   */\n      revert\n        /* \"#utility.yul\":211:328   */\n    tag_41:\n        /* \"#utility.yul\":320:321   */\n      0x00\n        /* \"#utility.yul\":317:318   */\n      dup1\n        /* \"#utility.yul\":310:322   */\n      revert\n        /* \"#utility.yul\":334:451   */\n    tag_42:\n        /* \"#utility.yul\":443:444   */\n      0x00\n        /* \"#utility.yul\":440:441   */\n      dup1\n        /* \"#utility.yul\":433:445   */\n      revert\n        /* \"#utility.yul\":457:574   */\n    tag_43:\n        /* \"#utility.yul\":566:567   */\n      0x00\n        /* \"#utility.yul\":563:564   */\n      dup1\n        /* \"#utility.yul\":556:568   */\n      revert\n        /* \"#utility.yul\":580:682   */\n    tag_44:\n        /* \"#utility.yul\":621:627   */\n      0x00\n        /* \"#utility.yul\":672:674   */\n      0x1f\n        /* \"#utility.yul\":668:675   */\n      not\n        /* \"#utility.yul\":663:665   */\n      0x1f\n        /* \"#utility.yul\":656:661   */\n      dup4\n        /* \"#utility.yul\":652:666   */\n      add\n        /* \"#utility.yul\":648:676   */\n      and\n        /* \"#utility.yul\":638:676   */\n      swap1\n      pop\n        /* \"#utility.yul\":580:682   */\n      swap2\n      swap1\n      pop\n      jump\t// out\n        /* \"#utility.yul\":688:868   */\n    tag_45:\n        /* \"#utility.yul\":736:813   */\n      0x4e487b7100000000000000000000000000000000000000000000000000000000\n        /* \"#utility.yul\":733:734   */\n      0x00\n        /* \"#utility.yul\":726:814   */\n      mstore\n        /* \"#utility.yul\":833:837   */\n      0x41\n        /* \"#utility.yul\":830:831   */\n      0x04\n        /* \"#utility.yul\":823:838   */\n      mstore\n        /* \"#utility.yul\":857:861   */\n      0x24\n        /* \"#utility.yul\":854:855   */\n      0x00\n        /* \"#utility.yul\":847:862   */\n      revert\n        /* \"#utility.yul\":874:1155   */\n    tag_46:\n        /* \"#utility.yul\":957:984   */\n      tag_93\n        /* \"#utility.yul\":979:983   */\n      dup3\n        /* \"#utility.yul\":957:984   */\n      tag_44\n      jump\t// in\n    tag_93:\n        /* \"#utility.yul\":949:955   */\n      dup2\n        /* \"#utility.yul\":945:985   */\n      add\n        /* \"#utility.yul\":1087:1093   */\n      dup2\n        /* \"#utility.yul\":1075:1085   */\n      dup2\n        /* \"#utility.yul\":1072:1094   */\n      lt\n        /* \"#utility.yul\":1051:1069   */\n      0xffffffffffffffff\n        /* \"#utility.yul\":1039:1049   */\n      dup3\n        /* \"#utility.yul\":1036:1070   */\n      gt\n        /* \"#utility.yul\":1033:1095   */\n      or\n        /* \"#utility.yul\":1030:1118   */\n      iszero\n      tag_94\n      jumpi\n        /* \"#utility.yul\":1098:1116   */\n      tag_95\n      tag_45\n      jump\t// in\n    tag_95:\n        /* \"#utility.yul\":1030:1118   */\n    tag_94:\n        /* \"#utility.yul\":1138:1148   */\n      dup1\n        /* \"#utility.yul\":1134:1136   */\n      0x40\n        /* \"#utility.yul\":1127:1149   */\n      mstore\n        /* \"#utility.yul\":917:1155   */\n      pop\n        /* \"#utility.yul\":874:1155   */\n      pop\n      pop\n      jump\t// out\n        /* \"#utility.yul\":1161:1290   */\n    tag_47:\n        /* \"#utility.yul\":1195:1201   */\n      0x00\n        /* \"#utility.yul\":1222:1242   */\n      tag_97\n      tag_39\n      jump\t// in\n    tag_97:\n        /* \"#utility.yul\":1212:1242   */\n      swap1\n      pop\n        /* \"#utility.yul\":1251:1284   */\n      tag_98\n        /* \"#utility.yul\":1279:1283   */\n      dup3\n        /* \"#utility.yul\":1271:1277   */\n      dup3\n        /* \"#utility.yul\":1251:1284   */\n      tag_46\n      jump\t// in\n    tag_98:\n        /* \"#utility.yul\":1161:1290   */\n      swap2\n      swap1\n      pop\n      jump\t// out\n        /* \"#utility.yul\":1296:1604   */\n    tag_48:\n        /* \"#utility.yul\":1358:1362   */\n      0x00\n        /* \"#utility.yul\":1448:1466   */\n      0xffffffffffffffff\n        /* \"#utility.yul\":1440:1446   */\n      dup3\n        /* \"#utility.yul\":1437:1467   */\n      gt\n        /* \"#utility.yul\":1434:1490   */\n      iszero\n      tag_100\n      jumpi\n        /* \"#utility.yul\":1470:1488   */\n      tag_101\n      tag_45\n      jump\t// in\n    tag_101:\n        /* \"#utility.yul\":1434:1490   */\n    tag_100:\n        /* \"#utility.yul\":1508:1537   */\n      tag_102\n        /* \"#utility.yul\":1530:1536   */\n      dup3\n        /* \"#utility.yul\":1508:1537   */\n      tag_44\n      jump\t// in\n    tag_102:\n        /* \"#utility.yul\":1500:1537   */\n      swap1\n      pop\n        /* \"#utility.yul\":1592:1596   */\n      0x20\n        /* \"#utility.yul\":1586:1590   */\n      dup2\n        /* \"#utility.yul\":1582:1597   */\n      add\n        /* \"#utility.yul\":1574:1597   */\n      swap1\n      pop\n        /* \"#utility.yul\":1296:1604   */\n      swap2\n      swap1\n      pop\n      jump\t// out\n        /* \"#utility.yul\":1610:1758   */\n    tag_49:\n        /* \"#utility.yul\":1708:1714   */\n      dup3\n        /* \"#utility.yul\":1703:1706   */\n      dup2\n        /* \"#utility.yul\":1698:1701   */\n      dup4\n        /* \"#utility.yul\":1685:1715   */\n      calldatacopy\n        /* \"#utility.yul\":1749:1750   */\n      0x00\n        /* \"#utility.yul\":1740:1746   */\n      dup4\n        /* \"#utility.yul\":1735:1738   */\n      dup4\n        /* \"#utility.yul\":1731:1747   */\n      add\n        /* \"#utility.yul\":1724:1751   */\n      mstore\n        /* \"#utility.yul\":1610:1758   */\n      pop\n      pop\n      pop\n      jump\t// out\n        /* \"#utility.yul\":1764:2189   */\n    tag_50:\n        /* \"#utility.yul\":1842:1847   */\n      0x00\n        /* \"#utility.yul\":1867:1933   */\n      tag_105\n        /* \"#utility.yul\":1883:1932   */\n      tag_106\n        /* \"#utility.yul\":1925:1931   */\n      dup5\n        /* \"#utility.yul\":1883:1932   */\n      tag_48\n      jump\t// in\n    tag_106:\n        /* \"#utility.yul\":1867:1933   */\n      tag_47\n      jump\t// in\n    tag_105:\n        /* \"#utility.yul\":1858:1933   */\n      swap1\n      pop\n        /* \"#utility.yul\":1956:1962   */\n      dup3\n        /* \"#utility.yul\":1949:1954   */\n      dup2\n        /* \"#utility.yul\":1942:1963   */\n      mstore\n        /* \"#utility.yul\":1994:1998   */\n      0x20\n        /* \"#utility.yul\":1987:1992   */\n      dup2\n        /* \"#utility.yul\":1983:1999   */\n      add\n        /* \"#utility.yul\":2032:2035   */\n      dup5\n        /* \"#utility.yul\":2023:2029   */\n      dup5\n        /* \"#utility.yul\":2018:2021   */\n      dup5\n        /* \"#utility.yul\":2014:2030   */\n      add\n        /* \"#utility.yul\":2011:2036   */\n      gt\n        /* \"#utility.yul\":2008:2120   */\n      iszero\n      tag_107\n      jumpi\n        /* \"#utility.yul\":2039:2118   */\n      tag_108\n      tag_43\n      jump\t// in\n    tag_108:\n        /* \"#utility.yul\":2008:2120   */\n    tag_107:\n        /* \"#utility.yul\":2129:2183   */\n      tag_109\n        /* \"#utility.yul\":2176:2182   */\n      dup5\n        /* \"#utility.yul\":2171:2174   */\n      dup3\n        /* \"#utility.yul\":2166:2169   */\n      dup6\n        /* \"#utility.yul\":2129:2183   */\n      tag_49\n      jump\t// in\n    tag_109:\n        /* \"#utility.yul\":1848:2189   */\n      pop\n        /* \"#utility.yul\":1764:2189   */\n      swap4\n      swap3\n      pop\n      pop\n      pop\n      jump\t// out\n        /* \"#utility.yul\":2209:2549   */\n    tag_51:\n        /* \"#utility.yul\":2265:2270   */\n      0x00\n        /* \"#utility.yul\":2314:2317   */\n      dup3\n        /* \"#utility.yul\":2307:2311   */\n      0x1f\n        /* \"#utility.yul\":2299:2305   */\n      dup4\n        /* \"#utility.yul\":2295:2312   */\n      add\n        /* \"#utility.yul\":2291:2318   */\n      slt\n        /* \"#utility.yul\":2281:2403   */\n      tag_111\n      jumpi\n        /* \"#utility.yul\":2322:2401   */\n      tag_112\n      tag_42\n      jump\t// in\n    tag_112:\n        /* \"#utility.yul\":2281:2403   */\n    tag_111:\n        /* \"#utility.yul\":2439:2445   */\n      dup2\n        /* \"#utility.yul\":2426:2446   */\n      calldataload\n        /* \"#utility.yul\":2464:2543   */\n      tag_113\n        /* \"#utility.yul\":2539:2542   */\n      dup5\n        /* \"#utility.yul\":2531:2537   */\n      dup3\n        /* \"#utility.yul\":2524:2528   */\n      0x20\n        /* \"#utility.yul\":2516:2522   */\n      dup7\n        /* \"#utility.yul\":2512:2529   */\n      add\n        /* \"#utility.yul\":2464:2543   */\n      tag_50\n      jump\t// in\n    tag_113:\n        /* \"#utility.yul\":2455:2543   */\n      swap2\n      pop\n        /* \"#utility.yul\":2271:2549   */\n      pop\n        /* \"#utility.yul\":2209:2549   */\n      swap3\n      swap2\n      pop\n      pop\n      jump\t// out\n        /* \"#utility.yul\":2555:2632   */\n    tag_52:\n        /* \"#utility.yul\":2592:2599   */\n      0x00\n        /* \"#utility.yul\":2621:2626   */\n      dup2\n        /* \"#utility.yul\":2610:2626   */\n      swap1\n      pop\n        /* \"#utility.yul\":2555:2632   */\n      swap2\n      swap1\n      pop\n      jump\t// out\n        /* \"#utility.yul\":2638:2760   */\n    tag_53:\n        /* \"#utility.yul\":2711:2735   */\n      tag_116\n        /* \"#utility.yul\":2729:2734   */\n      dup2\n        /* \"#utility.yul\":2711:2735   */\n      tag_52\n      jump\t// in\n    tag_116:\n        /* \"#utility.yul\":2704:2709   */\n      dup2\n        /* \"#utility.yul\":2701:2736   */\n      eq\n        /* \"#utility.yul\":2691:2754   */\n      tag_117\n      jumpi\n        /* \"#utility.yul\":2750:2751   */\n      0x00\n        /* \"#utility.yul\":2747:2748   */\n      dup1\n        /* \"#utility.yul\":2740:2752   */\n      revert\n        /* \"#utility.yul\":2691:2754   */\n    tag_117:\n        /* \"#utility.yul\":2638:2760   */\n      pop\n      jump\t// out\n        /* \"#utility.yul\":2766:2905   */\n    tag_54:\n        /* \"#utility.yul\":2812:2817   */\n      0x00\n        /* \"#utility.yul\":2850:2856   */\n      dup2\n        /* \"#utility.yul\":2837:2857   */\n      calldataload\n        /* \"#utility.yul\":2828:2857   */\n      swap1\n      pop\n        /* \"#utility.yul\":2866:2899   */\n      tag_119\n        /* \"#utility.yul\":2893:2898   */\n      dup2\n        /* \"#utility.yul\":2866:2899   */\n      tag_53\n      jump\t// in\n    tag_119:\n        /* \"#utility.yul\":2766:2905   */\n      swap3\n      swap2\n      pop\n      pop\n      jump\t// out\n        /* \"#utility.yul\":2911:3001   */\n    tag_55:\n        /* \"#utility.yul\":2945:2952   */\n      0x00\n        /* \"#utility.yul\":2988:2993   */\n      dup2\n        /* \"#utility.yul\":2981:2994   */\n      iszero\n        /* \"#utility.yul\":2974:2995   */\n      iszero\n        /* \"#utility.yul\":2963:2995   */\n      swap1\n      pop\n        /* \"#utility.yul\":2911:3001   */\n      swap2\n      swap1\n      pop\n      jump\t// out\n        /* \"#utility.yul\":3007:3123   */\n    tag_56:\n        /* \"#utility.yul\":3077:3098   */\n      tag_122\n        /* \"#utility.yul\":3092:3097   */\n      dup2\n        /* \"#utility.yul\":3077:3098   */\n      tag_55\n      jump\t// in\n    tag_122:\n        /* \"#utility.yul\":3070:3075   */\n      dup2\n        /* \"#utility.yul\":3067:3099   */\n      eq\n        /* \"#utility.yul\":3057:3117   */\n      tag_123\n      jumpi\n        /* \"#utility.yul\":3113:3114   */\n      0x00\n        /* \"#utility.yul\":3110:3111   */\n      dup1\n        /* \"#utility.yul\":3103:3115   */\n      revert\n        /* \"#utility.yul\":3057:3117   */\n    tag_123:\n        /* \"#utility.yul\":3007:3123   */\n      pop\n      jump\t// out\n        /* \"#utility.yul\":3129:3262   */\n    tag_57:\n        /* \"#utility.yul\":3172:3177   */\n      0x00\n        /* \"#utility.yul\":3210:3216   */\n      dup2\n        /* \"#utility.yul\":3197:3217   */\n      calldataload\n        /* \"#utility.yul\":3188:3217   */\n      swap1\n      pop\n        /* \"#utility.yul\":3226:3256   */\n      tag_125\n        /* \"#utility.yul\":3250:3255   */\n      dup2\n        /* \"#utility.yul\":3226:3256   */\n      tag_56\n      jump\t// in\n    tag_125:\n        /* \"#utility.yul\":3129:3262   */\n      swap3\n      swap2\n      pop\n      pop\n      jump\t// out\n        /* \"#utility.yul\":3268:4061   */\n    tag_9:\n        /* \"#utility.yul\":3352:3358   */\n      0x00\n        /* \"#utility.yul\":3360:3366   */\n      dup1\n        /* \"#utility.yul\":3368:3374   */\n      0x00\n        /* \"#utility.yul\":3417:3419   */\n      0x60\n        /* \"#utility.yul\":3405:3414   */\n      dup5\n        /* \"#utility.yul\":3396:3403   */\n      dup7\n        /* \"#utility.yul\":3392:3415   */\n      sub\n        /* \"#utility.yul\":3388:3420   */\n      slt\n        /* \"#utility.yul\":3385:3504   */\n      iszero\n      tag_127\n      jumpi\n        /* \"#utility.yul\":3423:3502   */\n      tag_128\n      tag_40\n      jump\t// in\n    tag_128:\n        /* \"#utility.yul\":3385:3504   */\n    tag_127:\n        /* \"#utility.yul\":3571:3572   */\n      0x00\n        /* \"#utility.yul\":3560:3569   */\n      dup5\n        /* \"#utility.yul\":3556:3573   */\n      add\n        /* \"#utility.yul\":3543:3574   */\n      calldataload\n        /* \"#utility.yul\":3601:3619   */\n      0xffffffffffffffff\n        /* \"#utility.yul\":3593:3599   */\n      dup2\n        /* \"#utility.yul\":3590:3620   */\n      gt\n        /* \"#utility.yul\":3587:3704   */\n      iszero\n      tag_129\n      jumpi\n        /* \"#utility.yul\":3623:3702   */\n      tag_130\n      tag_41\n      jump\t// in\n    tag_130:\n        /* \"#utility.yul\":3587:3704   */\n    tag_129:\n        /* \"#utility.yul\":3728:3791   */\n      tag_131\n        /* \"#utility.yul\":3783:3790   */\n      dup7\n        /* \"#utility.yul\":3774:3780   */\n      dup3\n        /* \"#utility.yul\":3763:3772   */\n      dup8\n        /* \"#utility.yul\":3759:3781   */\n      add\n        /* \"#utility.yul\":3728:3791   */\n      tag_51\n      jump\t// in\n    tag_131:\n        /* \"#utility.yul\":3718:3791   */\n      swap4\n      pop\n        /* \"#utility.yul\":3514:3801   */\n      pop\n        /* \"#utility.yul\":3840:3842   */\n      0x20\n        /* \"#utility.yul\":3866:3919   */\n      tag_132\n        /* \"#utility.yul\":3911:3918   */\n      dup7\n        /* \"#utility.yul\":3902:3908   */\n      dup3\n        /* \"#utility.yul\":3891:3900   */\n      dup8\n        /* \"#utility.yul\":3887:3909   */\n      add\n        /* \"#utility.yul\":3866:3919   */\n      tag_54\n      jump\t// in\n    tag_132:\n        /* \"#utility.yul\":3856:3919   */\n      swap3\n      pop\n        /* \"#utility.yul\":3811:3929   */\n      pop\n        /* \"#utility.yul\":3968:3970   */\n      0x40\n        /* \"#utility.yul\":3994:4044   */\n      tag_133\n        /* \"#utility.yul\":4036:4043   */\n      dup7\n        /* \"#utility.yul\":4027:4033   */\n      dup3\n        /* \"#utility.yul\":4016:4025   */\n      dup8\n        /* \"#utility.yul\":4012:4034   */\n      add\n        /* \"#utility.yul\":3994:4044   */\n      tag_57\n      jump\t// in\n    tag_133:\n        /* \"#utility.yul\":3984:4044   */\n      swap2\n      pop\n        /* \"#utility.yul\":3939:4054   */\n      pop\n        /* \"#utility.yul\":3268:4061   */\n      swap3\n      pop\n      swap3\n      pop\n      swap3\n      jump\t// out\n        /* \"#utility.yul\":4067:4193   */\n    tag_58:\n        /* \"#utility.yul\":4104:4111   */\n      0x00\n        /* \"#utility.yul\":4144:4186   */\n      0xffffffffffffffffffffffffffffffffffffffff\n        /* \"#utility.yul\":4137:4142   */\n      dup3\n        /* \"#utility.yul\":4133:4187   */\n      and\n        /* \"#utility.yul\":4122:4187   */\n      swap1\n      pop\n        /* \"#utility.yul\":4067:4193   */\n      swap2\n      swap1\n      pop\n      jump\t// out\n        /* \"#utility.yul\":4199:4295   */\n    tag_59:\n        /* \"#utility.yul\":4236:4243   */\n      0x00\n        /* \"#utility.yul\":4265:4289   */\n      tag_136\n        /* \"#utility.yul\":4283:4288   */\n      dup3\n        /* \"#utility.yul\":4265:4289   */\n      tag_58\n      jump\t// in\n    tag_136:\n        /* \"#utility.yul\":4254:4289   */\n      swap1\n      pop\n        /* \"#utility.yul\":4199:4295   */\n      swap2\n      swap1\n      pop\n      jump\t// out\n        /* \"#utility.yul\":4301:4423   */\n    tag_60:\n        /* \"#utility.yul\":4374:4398   */\n      tag_138\n        /* \"#utility.yul\":4392:4397   */\n      dup2\n        /* \"#utility.yul\":4374:4398   */\n      tag_59\n      jump\t// in\n    tag_138:\n        /* \"#utility.yul\":4367:4372   */\n      dup2\n        /* \"#utility.yul\":4364:4399   */\n      eq\n        /* \"#utility.yul\":4354:4417   */\n      tag_139\n      jumpi\n        /* \"#utility.yul\":4413:4414   */\n      0x00\n        /* \"#utility.yul\":4410:4411   */\n      dup1\n        /* \"#utility.yul\":4403:4415   */\n      revert\n        /* \"#utility.yul\":4354:4417   */\n    tag_139:\n        /* \"#utility.yul\":4301:4423   */\n      pop\n      jump\t// out\n        /* \"#utility.yul\":4429:4568   */\n    tag_61:\n        /* \"#utility.yul\":4475:4480   */\n      0x00\n        /* \"#utility.yul\":4513:4519   */\n      dup2\n        /* \"#utility.yul\":4500:4520   */\n      calldataload\n        /* \"#utility.yul\":4491:4520   */\n      swap1\n      pop\n        /* \"#utility.yul\":4529:4562   */\n      tag_141\n        /* \"#utility.yul\":4556:4561   */\n      dup2\n        /* \"#utility.yul\":4529:4562   */\n      tag_60\n      jump\t// in\n    tag_141:\n        /* \"#utility.yul\":4429:4568   */\n      swap3\n      swap2\n      pop\n      pop\n      jump\t// out\n        /* \"#utility.yul\":4574:4903   */\n    tag_16:\n        /* \"#utility.yul\":4633:4639   */\n      0x00\n        /* \"#utility.yul\":4682:4684   */\n      0x20\n        /* \"#utility.yul\":4670:4679   */\n      dup3\n        /* \"#utility.yul\":4661:4668   */\n      dup5\n        /* \"#utility.yul\":4657:4680   */\n      sub\n        /* \"#utility.yul\":4653:4685   */\n      slt\n        /* \"#utility.yul\":4650:4769   */\n      iszero\n      tag_143\n      jumpi\n        /* \"#utility.yul\":4688:4767   */\n      tag_144\n      tag_40\n      jump\t// in\n    tag_144:\n        /* \"#utility.yul\":4650:4769   */\n    tag_143:\n        /* \"#utility.yul\":4808:4809   */\n      0x00\n        /* \"#utility.yul\":4833:4886   */\n      tag_145\n        /* \"#utility.yul\":4878:4885   */\n      dup5\n        /* \"#utility.yul\":4869:4875   */\n      dup3\n        /* \"#utility.yul\":4858:4867   */\n      dup6\n        /* \"#utility.yul\":4854:4876   */\n      add\n        /* \"#utility.yul\":4833:4886   */\n      tag_61\n      jump\t// in\n    tag_145:\n        /* \"#utility.yul\":4823:4886   */\n      swap2\n      pop\n        /* \"#utility.yul\":4779:4896   */\n      pop\n        /* \"#utility.yul\":4574:4903   */\n      swap3\n      swap2\n      pop\n      pop\n      jump\t// out\n        /* \"#utility.yul\":4909:5008   */\n    tag_62:\n        /* \"#utility.yul\":4961:4967   */\n      0x00\n        /* \"#utility.yul\":4995:5000   */\n      dup2\n        /* \"#utility.yul\":4989:5001   */\n      mload\n        /* \"#utility.yul\":4979:5001   */\n      swap1\n      pop\n        /* \"#utility.yul\":4909:5008   */\n      swap2\n      swap1\n      pop\n      jump\t// out\n        /* \"#utility.yul\":5014:5183   */\n    tag_63:\n        /* \"#utility.yul\":5098:5109   */\n      0x00\n        /* \"#utility.yul\":5132:5138   */\n      dup3\n        /* \"#utility.yul\":5127:5130   */\n      dup3\n        /* \"#utility.yul\":5120:5139   */\n      mstore\n        /* \"#utility.yul\":5172:5176   */\n      0x20\n        /* \"#utility.yul\":5167:5170   */\n      dup3\n        /* \"#utility.yul\":5163:5177   */\n      add\n        /* \"#utility.yul\":5148:5177   */\n      swap1\n      pop\n        /* \"#utility.yul\":5014:5183   */\n      swap3\n      swap2\n      pop\n      pop\n      jump\t// out\n        /* \"#utility.yul\":5189:5328   */\n    tag_64:\n        /* \"#utility.yul\":5278:5284   */\n      dup3\n        /* \"#utility.yul\":5273:5276   */\n      dup2\n        /* \"#utility.yul\":5268:5271   */\n      dup4\n        /* \"#utility.yul\":5262:5285   */\n      mcopy\n        /* \"#utility.yul\":5319:5320   */\n      0x00\n        /* \"#utility.yul\":5310:5316   */\n      dup4\n        /* \"#utility.yul\":5305:5308   */\n      dup4\n        /* \"#utility.yul\":5301:5317   */\n      add\n        /* \"#utility.yul\":5294:5321   */\n      mstore\n        /* \"#utility.yul\":5189:5328   */\n      pop\n      pop\n      pop\n      jump\t// out\n        /* \"#utility.yul\":5334:5711   */\n    tag_65:\n        /* \"#utility.yul\":5422:5425   */\n      0x00\n        /* \"#utility.yul\":5450:5489   */\n      tag_150\n        /* \"#utility.yul\":5483:5488   */\n      dup3\n        /* \"#utility.yul\":5450:5489   */\n      tag_62\n      jump\t// in\n    tag_150:\n        /* \"#utility.yul\":5505:5576   */\n      tag_151\n        /* \"#utility.yul\":5569:5575   */\n      dup2\n        /* \"#utility.yul\":5564:5567   */\n      dup6\n        /* \"#utility.yul\":5505:5576   */\n      tag_63\n      jump\t// in\n    tag_151:\n        /* \"#utility.yul\":5498:5576   */\n      swap4\n      pop\n        /* \"#utility.yul\":5585:5650   */\n      tag_152\n        /* \"#utility.yul\":5643:5649   */\n      dup2\n        /* \"#utility.yul\":5638:5641   */\n      dup6\n        /* \"#utility.yul\":5631:5635   */\n      0x20\n        /* \"#utility.yul\":5624:5629   */\n      dup7\n        /* \"#utility.yul\":5620:5636   */\n      add\n        /* \"#utility.yul\":5585:5650   */\n      tag_64\n      jump\t// in\n    tag_152:\n        /* \"#utility.yul\":5675:5704   */\n      tag_153\n        /* \"#utility.yul\":5697:5703   */\n      dup2\n        /* \"#utility.yul\":5675:5704   */\n      tag_44\n      jump\t// in\n    tag_153:\n        /* \"#utility.yul\":5670:5673   */\n      dup5\n        /* \"#utility.yul\":5666:5705   */\n      add\n        /* \"#utility.yul\":5659:5705   */\n      swap2\n      pop\n        /* \"#utility.yul\":5426:5711   */\n      pop\n        /* \"#utility.yul\":5334:5711   */\n      swap3\n      swap2\n      pop\n      pop\n      jump\t// out\n        /* \"#utility.yul\":5717:5835   */\n    tag_66:\n        /* \"#utility.yul\":5804:5828   */\n      tag_155\n        /* \"#utility.yul\":5822:5827   */\n      dup2\n        /* \"#utility.yul\":5804:5828   */\n      tag_52\n      jump\t// in\n    tag_155:\n        /* \"#utility.yul\":5799:5802   */\n      dup3\n        /* \"#utility.yul\":5792:5829   */\n      mstore\n        /* \"#utility.yul\":5717:5835   */\n      pop\n      pop\n      jump\t// out\n        /* \"#utility.yul\":5841:5950   */\n    tag_67:\n        /* \"#utility.yul\":5922:5943   */\n      tag_157\n        /* \"#utility.yul\":5937:5942   */\n      dup2\n        /* \"#utility.yul\":5922:5943   */\n      tag_55\n      jump\t// in\n    tag_157:\n        /* \"#utility.yul\":5917:5920   */\n      dup3\n        /* \"#utility.yul\":5910:5944   */\n      mstore\n        /* \"#utility.yul\":5841:5950   */\n      pop\n      pop\n      jump\t// out\n        /* \"#utility.yul\":5956:6477   */\n    tag_19:\n        /* \"#utility.yul\":6119:6123   */\n      0x00\n        /* \"#utility.yul\":6157:6159   */\n      0x60\n        /* \"#utility.yul\":6146:6155   */\n      dup3\n        /* \"#utility.yul\":6142:6160   */\n      add\n        /* \"#utility.yul\":6134:6160   */\n      swap1\n      pop\n        /* \"#utility.yul\":6206:6215   */\n      dup2\n        /* \"#utility.yul\":6200:6204   */\n      dup2\n        /* \"#utility.yul\":6196:6216   */\n      sub\n        /* \"#utility.yul\":6192:6193   */\n      0x00\n        /* \"#utility.yul\":6181:6190   */\n      dup4\n        /* \"#utility.yul\":6177:6194   */\n      add\n        /* \"#utility.yul\":6170:6217   */\n      mstore\n        /* \"#utility.yul\":6234:6312   */\n      tag_159\n        /* \"#utility.yul\":6307:6311   */\n      dup2\n        /* \"#utility.yul\":6298:6304   */\n      dup7\n        /* \"#utility.yul\":6234:6312   */\n      tag_65\n      jump\t// in\n    tag_159:\n        /* \"#utility.yul\":6226:6312   */\n      swap1\n      pop\n        /* \"#utility.yul\":6322:6394   */\n      tag_160\n        /* \"#utility.yul\":6390:6392   */\n      0x20\n        /* \"#utility.yul\":6379:6388   */\n      dup4\n        /* \"#utility.yul\":6375:6393   */\n      add\n        /* \"#utility.yul\":6366:6372   */\n      dup6\n        /* \"#utility.yul\":6322:6394   */\n      tag_66\n      jump\t// in\n    tag_160:\n        /* \"#utility.yul\":6404:6470   */\n      tag_161\n        /* \"#utility.yul\":6466:6468   */\n      0x40\n        /* \"#utility.yul\":6455:6464   */\n      dup4\n        /* \"#utility.yul\":6451:6469   */\n      add\n        /* \"#utility.yul\":6442:6448   */\n      dup5\n        /* \"#utility.yul\":6404:6470   */\n      tag_67\n      jump\t// in\n    tag_161:\n        /* \"#utility.yul\":5956:6477   */\n      swap5\n      swap4\n      pop\n      pop\n      pop\n      pop\n      jump\t// out\n        /* \"#utility.yul\":6483:6663   */\n    tag_68:\n        /* \"#utility.yul\":6531:6608   */\n      0x4e487b7100000000000000000000000000000000000000000000000000000000\n        /* \"#utility.yul\":6528:6529   */\n      0x00\n        /* \"#utility.yul\":6521:6609   */\n      mstore\n        /* \"#utility.yul\":6628:6632   */\n      0x22\n        /* \"#utility.yul\":6625:6626   */\n      0x04\n        /* \"#utility.yul\":6618:6633   */\n      mstore\n        /* \"#utility.yul\":6652:6656   */\n      0x24\n        /* \"#utility.yul\":6649:6650   */\n      0x00\n        /* \"#utility.yul\":6642:6657   */\n      revert\n        /* \"#utility.yul\":6669:6989   */\n    tag_29:\n        /* \"#utility.yul\":6713:6719   */\n      0x00\n        /* \"#utility.yul\":6750:6751   */\n      0x02\n        /* \"#utility.yul\":6744:6748   */\n      dup3\n        /* \"#utility.yul\":6740:6752   */\n      div\n        /* \"#utility.yul\":6730:6752   */\n      swap1\n      pop\n        /* \"#utility.yul\":6797:6798   */\n      0x01\n        /* \"#utility.yul\":6791:6795   */\n      dup3\n        /* \"#utility.yul\":6787:6799   */\n      and\n        /* \"#utility.yul\":6818:6836   */\n      dup1\n        /* \"#utility.yul\":6808:6889   */\n      tag_164\n      jumpi\n        /* \"#utility.yul\":6874:6878   */\n      0x7f\n        /* \"#utility.yul\":6866:6872   */\n      dup3\n        /* \"#utility.yul\":6862:6879   */\n      and\n        /* \"#utility.yul\":6852:6879   */\n      swap2\n      pop\n        /* \"#utility.yul\":6808:6889   */\n    tag_164:\n        /* \"#utility.yul\":6936:6938   */\n      0x20\n        /* \"#utility.yul\":6928:6934   */\n      dup3\n        /* \"#utility.yul\":6925:6939   */\n      lt\n        /* \"#utility.yul\":6905:6923   */\n      dup2\n        /* \"#utility.yul\":6902:6940   */\n      sub\n        /* \"#utility.yul\":6899:6983   */\n      tag_165\n      jumpi\n        /* \"#utility.yul\":6955:6973   */\n      tag_166\n      tag_68\n      jump\t// in\n    tag_166:\n        /* \"#utility.yul\":6899:6983   */\n    tag_165:\n        /* \"#utility.yul\":6720:6989   */\n      pop\n        /* \"#utility.yul\":6669:6989   */\n      swap2\n      swap1\n      pop\n      jump\t// out\n        /* \"#utility.yul\":6995:7136   */\n    tag_69:\n        /* \"#utility.yul\":7044:7048   */\n      0x00\n        /* \"#utility.yul\":7067:7070   */\n      dup2\n        /* \"#utility.yul\":7059:7070   */\n      swap1\n      pop\n        /* \"#utility.yul\":7090:7093   */\n      dup2\n        /* \"#utility.yul\":7087:7088   */\n      0x00\n        /* \"#utility.yul\":7080:7094   */\n      mstore\n        /* \"#utility.yul\":7124:7128   */\n      0x20\n        /* \"#utility.yul\":7121:7122   */\n      0x00\n        /* \"#utility.yul\":7111:7129   */\n      keccak256\n        /* \"#utility.yul\":7103:7129   */\n      swap1\n      pop\n        /* \"#utility.yul\":6995:7136   */\n      swap2\n      swap1\n      pop\n      jump\t// out\n        /* \"#utility.yul\":7142:7235   */\n    tag_70:\n        /* \"#utility.yul\":7179:7185   */\n      0x00\n        /* \"#utility.yul\":7226:7228   */\n      0x20\n        /* \"#utility.yul\":7221:7223   */\n      0x1f\n        /* \"#utility.yul\":7214:7219   */\n      dup4\n        /* \"#utility.yul\":7210:7224   */\n      add\n        /* \"#utility.yul\":7206:7229   */\n      div\n        /* \"#utility.yul\":7196:7229   */\n      swap1\n      pop\n        /* \"#utility.yul\":7142:7235   */\n      swap2\n      swap1\n      pop\n      jump\t// out\n        /* \"#utility.yul\":7241:7348   */\n    tag_71:\n        /* \"#utility.yul\":7285:7293   */\n      0x00\n        /* \"#utility.yul\":7335:7340   */\n      dup3\n        /* \"#utility.yul\":7329:7333   */\n      dup3\n        /* \"#utility.yul\":7325:7341   */\n      shl\n        /* \"#utility.yul\":7304:7341   */\n      swap1\n      pop\n        /* \"#utility.yul\":7241:7348   */\n      swap3\n      swap2\n      pop\n      pop\n      jump\t// out\n        /* \"#utility.yul\":7354:7747   */\n    tag_72:\n        /* \"#utility.yul\":7423:7429   */\n      0x00\n        /* \"#utility.yul\":7473:7474   */\n      0x08\n        /* \"#utility.yul\":7461:7471   */\n      dup4\n        /* \"#utility.yul\":7457:7475   */\n      mul\n        /* \"#utility.yul\":7496:7593   */\n      tag_171\n        /* \"#utility.yul\":7526:7592   */\n      0xffffffffffffffffffffffffffffffffffffffffffffffffffffffffffffffff\n        /* \"#utility.yul\":7515:7524   */\n      dup3\n        /* \"#utility.yul\":7496:7593   */\n      tag_71\n      jump\t// in\n    tag_171:\n        /* \"#utility.yul\":7614:7653   */\n      tag_172\n        /* \"#utility.yul\":7644:7652   */\n      dup7\n        /* \"#utility.yul\":7633:7642   */\n      dup4\n        /* \"#utility.yul\":7614:7653   */\n      tag_71\n      jump\t// in\n    tag_172:\n        /* \"#utility.yul\":7602:7653   */\n      swap6\n      pop\n        /* \"#utility.yul\":7686:7690   */\n      dup1\n        /* \"#utility.yul\":7682:7691   */\n      not\n        /* \"#utility.yul\":7675:7680   */\n      dup5\n        /* \"#utility.yul\":7671:7692   */\n      and\n        /* \"#utility.yul\":7662:7692   */\n      swap4\n      pop\n        /* \"#utility.yul\":7735:7739   */\n      dup1\n        /* \"#utility.yul\":7725:7733   */\n      dup7\n        /* \"#utility.yul\":7721:7740   */\n      and\n        /* \"#utility.yul\":7714:7719   */\n      dup5\n        /* \"#utility.yul\":7711:7741   */\n      or\n        /* \"#utility.yul\":7701:7741   */\n      swap3\n      pop\n        /* \"#utility.yul\":7430:7747   */\n      pop\n      pop\n        /* \"#utility.yul\":7354:7747   */\n      swap4\n      swap3\n      pop\n      pop\n      pop\n      jump\t// out\n        /* \"#utility.yul\":7753:7813   */\n    tag_73:\n        /* \"#utility.yul\":7781:7784   */\n      0x00\n        /* \"#utility.yul\":7802:7807   */\n      dup2\n        /* \"#utility.yul\":7795:7807   */\n      swap1\n      pop\n        /* \"#utility.yul\":7753:7813   */\n      swap2\n      swap1\n      pop\n      jump\t// out\n        /* \"#utility.yul\":7819:7961   */\n    tag_74:\n        /* \"#utility.yul\":7869:7878   */\n      0x00\n        /* \"#utility.yul\":7902:7955   */\n      tag_175\n        /* \"#utility.yul\":7920:7954   */\n      tag_176\n        /* \"#utility.yul\":7929:7953   */\n      tag_177\n        /* \"#utility.yul\":7947:7952   */\n      dup5\n        /* \"#utility.yul\":7929:7953   */\n      tag_52\n      jump\t// in\n    tag_177:\n        /* \"#utility.yul\":7920:7954   */\n      tag_73\n      jump\t// in\n    tag_176:\n        /* \"#utility.yul\":7902:7955   */\n      tag_52\n      jump\t// in\n    tag_175:\n        /* \"#utility.yul\":7889:7955   */\n      swap1\n      pop\n        /* \"#utility.yul\":7819:7961   */\n      swap2\n      swap1\n      pop\n      jump\t// out\n        /* \"#utility.yul\":7967:8042   */\n    tag_75:\n        /* \"#utility.yul\":8010:8013   */\n      0x00\n        /* \"#utility.yul\":8031:8036   */\n      dup2\n        /* \"#utility.yul\":8024:8036   */\n      swap1\n      pop\n        /* \"#utility.yul\":7967:8042   */\n      swap2\n      swap1\n      pop\n      jump\t// out\n        /* \"#utility.yul\":8048:8317   */\n    tag_76:\n        /* \"#utility.yul\":8158:8197   */\n      tag_180\n        /* \"#utility.yul\":8189:8196   */\n      dup4\n        /* \"#utility.yul\":8158:8197   */\n      tag_74\n      jump\t// in\n    tag_180:\n        /* \"#utility.yul\":8219:8310   */\n      tag_181\n        /* \"#utility.yul\":8268:8309   */\n      tag_182\n        /* \"#utility.yul\":8292:8308   */\n      dup3\n        /* \"#utility.yul\":8268:8309   */\n      tag_75\n      jump\t// in\n    tag_182:\n        /* \"#utility.yul\":8260:8266   */\n      dup5\n        /* \"#utility.yul\":8253:8257   */\n      dup5\n        /* \"#utility.yul\":8247:8258   */\n      sload\n        /* \"#utility.yul\":8219:8310   */\n      tag_72\n      jump\t// in\n    tag_181:\n        /* \"#utility.yul\":8213:8217   */\n      dup3\n        /* \"#utility.yul\":8206:8311   */\n      sstore\n        /* \"#utility.yul\":8124:8317   */\n      pop\n        /* \"#utility.yul\":8048:8317   */\n      pop\n      pop\n      pop\n      jump\t// out\n        /* \"#utility.yul\":8323:8396   */\n    tag_77:\n        /* \"#utility.yul\":8368:8371   */\n      0x00\n        /* \"#utility.yul\":8323:8396   */\n      swap1\n      jump\t// out\n        /* \"#utility.yul\":8402:8591   */\n    tag_78:\n        /* \"#utility.yul\":8479:8511   */\n      tag_185\n      tag_77\n      jump\t// in\n    tag_185:\n        /* \"#utility.yul\":8520:8585   */\n      tag_186\n        /* \"#utility.yul\":8578:8584   */\n      dup2\n        /* \"#utility.yul\":8570:8576   */\n      dup5\n        /* \"#utility.yul\":8564:8568   */\n      dup5\n        /* \"#utility.yul\":8520:8585   */\n      tag_76\n      jump\t// in\n    tag_186:\n        /* \"#utility.yul\":8455:8591   */\n      pop\n        /* \"#utility.yul\":8402:8591   */\n      pop\n      pop\n      jump\t// out\n        /* \"#utility.yul\":8597:8783   */\n    tag_79:\n        /* \"#utility.yul\":8657:8777   */\n    tag_188:\n        /* \"#utility.yul\":8674:8677   */\n      dup2\n        /* \"#utility.yul\":8667:8672   */\n      dup2\n        /* \"#utility.yul\":8664:8678   */\n      lt\n        /* \"#utility.yul\":8657:8777   */\n      iszero\n      tag_190\n      jumpi\n        /* \"#utility.yul\":8728:8767   */\n      tag_191\n        /* \"#utility.yul\":8765:8766   */\n      0x00\n        /* \"#utility.yul\":8758:8763   */\n      dup3\n        /* \"#utility.yul\":8728:8767   */\n      tag_78\n      jump\t// in\n    tag_191:\n        /* \"#utility.yul\":8701:8702   */\n      0x01\n        /* \"#utility.yul\":8694:8699   */\n      dup2\n        /* \"#utility.yul\":8690:8703   */\n      add\n        /* \"#utility.yul\":8681:8703   */\n      swap1\n      pop\n        /* \"#utility.yul\":8657:8777   */\n      jump(tag_188)\n    tag_190:\n        /* \"#utility.yul\":8597:8783   */\n      pop\n      pop\n      jump\t// out\n        /* \"#utility.yul\":8789:9332   */\n    tag_80:\n        /* \"#utility.yul\":8890:8892   */\n      0x1f\n        /* \"#utility.yul\":8885:8888   */\n      dup3\n        /* \"#utility.yul\":8882:8893   */\n      gt\n        /* \"#utility.yul\":8879:9325   */\n      iszero\n      tag_193\n      jumpi\n        /* \"#utility.yul\":8924:8962   */\n      tag_194\n        /* \"#utility.yul\":8956:8961   */\n      dup2\n        /* \"#utility.yul\":8924:8962   */\n      tag_69\n      jump\t// in\n    tag_194:\n        /* \"#utility.yul\":9008:9037   */\n      tag_195\n        /* \"#utility.yul\":9026:9036   */\n      dup5\n        /* \"#utility.yul\":9008:9037   */\n      tag_70\n      jump\t// in\n    tag_195:\n        /* \"#utility.yul\":8998:9006   */\n      dup2\n        /* \"#utility.yul\":8994:9038   */\n      add\n        /* \"#utility.yul\":9191:9193   */\n      0x20\n        /* \"#utility.yul\":9179:9189   */\n      dup6\n        /* \"#utility.yul\":9176:9194   */\n      lt\n        /* \"#utility.yul\":9173:9222   */\n      iszero\n      tag_196\n      jumpi\n        /* \"#utility.yul\":9212:9220   */\n      dup2\n        /* \"#utility.yul\":9197:9220   */\n      swap1\n      pop\n        /* \"#utility.yul\":9173:9222   */\n    tag_196:\n        /* \"#utility.yul\":9235:9315   */\n      tag_197\n        /* \"#utility.yul\":9291:9313   */\n      tag_198\n        /* \"#utility.yul\":9309:9312   */\n      dup6\n        /* \"#utility.yul\":9291:9313   */\n      tag_70\n      jump\t// in\n    tag_198:\n        /* \"#utility.yul\":9281:9289   */\n      dup4\n        /* \"#utility.yul\":9277:9314   */\n      add\n        /* \"#utility.yul\":9264:9275   */\n      dup3\n        /* \"#utility.yul\":9235:9315   */\n      tag_79\n      jump\t// in\n    tag_197:\n        /* \"#utility.yul\":8894:9325   */\n      pop\n      pop\n        /* \"#utility.yul\":8879:9325   */\n    tag_193:\n        /* \"#utility.yul\":8789:9332   */\n      pop\n      pop\n      pop\n      jump\t// out\n        /* \"#utility.yul\":9338:9455   */\n    tag_81:\n        /* \"#utility.yul\":9392:9400   */\n      0x00\n        /* \"#utility.yul\":9442:9447   */\n      dup3\n        /* \"#utility.yul\":9436:9440   */\n      dup3\n        /* \"#utility.yul\":9432:9448   */\n      shr\n        /* \"#utility.yul\":9411:9448   */\n      swap1\n      pop\n        /* \"#utility.yul\":9338:9455   */\n      swap3\n      swap2\n      pop\n      pop\n      jump\t// out\n        /* \"#utility.yul\":9461:9630   */\n    tag_82:\n        /* \"#utility.yul\":9505:9511   */\n      0x00\n        /* \"#utility.yul\":9538:9589   */\n      tag_201\n        /* \"#utility.yul\":9586:9587   */\n      0x00\n        /* \"#utility.yul\":9582:9588   */\n      not\n        /* \"#utility.yul\":9574:9579   */\n      dup5\n        /* \"#utility.yul\":9571:9572   */\n      0x08\n        /* \"#utility.yul\":9567:9580   */\n      mul\n        /* \"#utility.yul\":9538:9589   */\n      tag_81\n      jump\t// in\n    tag_201:\n        /* \"#utility.yul\":9534:9590   */\n      not\n        /* \"#utility.yul\":9619:9623   */\n      dup1\n        /* \"#utility.yul\":9613:9617   */\n      dup4\n        /* \"#utility.yul\":9609:9624   */\n      and\n        /* \"#utility.yul\":9599:9624   */\n      swap2\n      pop\n        /* \"#utility.yul\":9512:9630   */\n      pop\n        /* \"#utility.yul\":9461:9630   */\n      swap3\n      swap2\n      pop\n      pop\n      jump\t// out\n        /* \"#utility.yul\":9635:9930   */\n    tag_83:\n        /* \"#utility.yul\":9711:9715   */\n      0x00\n        /* \"#utility.yul\":9857:9886   */\n      tag_203\n        /* \"#utility.yul\":9882:9885   */\n      dup4\n        /* \"#utility.yul\":9876:9880   */\n      dup4\n        /* \"#utility.yul\":9857:9886   */\n      tag_82\n      jump\t// in\n    tag_203:\n        /* \"#utility.yul\":9849:9886   */\n      swap2\n      pop\n        /* \"#utility.yul\":9919:9922   */\n      dup3\n        /* \"#utility.yul\":9916:9917   */\n      0x02\n        /* \"#utility.yul\":9912:9923   */\n      mul\n        /* \"#utility.yul\":9906:9910   */\n      dup3\n        /* \"#utility.yul\":9903:9924   */\n      or\n        /* \"#utility.yul\":9895:9924   */\n      swap1\n      pop\n        /* \"#utility.yul\":9635:9930   */\n      swap3\n      swap2\n      pop\n      pop\n      jump\t// out\n        /* \"#utility.yul\":9935:11330   */\n    tag_25:\n        /* \"#utility.yul\":10052:10089   */\n      tag_205\n        /* \"#utility.yul\":10085:10088   */\n      dup3\n        /* \"#utility.yul\":10052:10089   */\n      tag_62\n      jump\t// in\n    tag_205:\n        /* \"#utility.yul\":10154:10172   */\n      0xffffffffffffffff\n        /* \"#utility.yul\":10146:10152   */\n      dup2\n        /* \"#utility.yul\":10143:10173   */\n      gt\n        /* \"#utility.yul\":10140:10196   */\n      iszero\n      tag_206\n      jumpi\n        /* \"#utility.yul\":10176:10194   */\n      tag_207\n      tag_45\n      jump\t// in\n    tag_207:\n        /* \"#utility.yul\":10140:10196   */\n    tag_206:\n        /* \"#utility.yul\":10220:10258   */\n      tag_208\n        /* \"#utility.yul\":10252:10256   */\n      dup3\n        /* \"#utility.yul\":10246:10257   */\n      sload\n        /* \"#utility.yul\":10220:10258   */\n      tag_29\n      jump\t// in\n    tag_208:\n        /* \"#utility.yul\":10305:10372   */\n      tag_209\n        /* \"#utility.yul\":10365:10371   */\n      dup3\n        /* \"#utility.yul\":10357:10363   */\n      dup3\n        /* \"#utility.yul\":10351:10355   */\n      dup6\n        /* \"#utility.yul\":10305:10372   */\n      tag_80\n      jump\t// in\n    tag_209:\n        /* \"#utility.yul\":10399:10400   */\n      0x00\n        /* \"#utility.yul\":10423:10427   */\n      0x20\n        /* \"#utility.yul\":10410:10427   */\n      swap1\n      pop\n        /* \"#utility.yul\":10455:10457   */\n      0x1f\n        /* \"#utility.yul\":10447:10453   */\n      dup4\n        /* \"#utility.yul\":10444:10458   */\n      gt\n        /* \"#utility.yul\":10472:10473   */\n      0x01\n        /* \"#utility.yul\":10467:11085   */\n      dup2\n      eq\n      tag_211\n      jumpi\n        /* \"#utility.yul\":11129:11130   */\n      0x00\n        /* \"#utility.yul\":11146:11152   */\n      dup5\n        /* \"#utility.yul\":11143:11220   */\n      iszero\n      tag_212\n      jumpi\n        /* \"#utility.yul\":11195:11204   */\n      dup3\n        /* \"#utility.yul\":11190:11193   */\n      dup8\n        /* \"#utility.yul\":11186:11205   */\n      add\n        /* \"#utility.yul\":11180:11206   */\n      mload\n        /* \"#utility.yul\":11171:11206   */\n      swap1\n      pop\n        /* \"#utility.yul\":11143:11220   */\n    tag_212:\n        /* \"#utility.yul\":11246:11313   */\n      tag_213\n        /* \"#utility.yul\":11306:11312   */\n      dup6\n        /* \"#utility.yul\":11299:11304   */\n      dup3\n        /* \"#utility.yul\":11246:11313   */\n      tag_83\n      jump\t// in\n    tag_213:\n        /* \"#utility.yul\":11240:11244   */\n      dup7\n        /* \"#utility.yul\":11233:11314   */\n      sstore\n        /* \"#utility.yul\":11102:11324   */\n      pop\n        /* \"#utility.yul\":10437:11324   */\n      jump(tag_210)\n        /* \"#utility.yul\":10467:11085   */\n    tag_211:\n        /* \"#utility.yul\":10519:10523   */\n      0x1f\n        /* \"#utility.yul\":10515:10524   */\n      not\n        /* \"#utility.yul\":10507:10513   */\n      dup5\n        /* \"#utility.yul\":10503:10525   */\n      and\n        /* \"#utility.yul\":10553:10590   */\n      tag_214\n        /* \"#utility.yul\":10585:10589   */\n      dup7\n        /* \"#utility.yul\":10553:10590   */\n      tag_69\n      jump\t// in\n    tag_214:\n        /* \"#utility.yul\":10612:10613   */\n      0x00\n        /* \"#utility.yul\":10626:10834   */\n    tag_215:\n        /* \"#utility.yul\":10640:10647   */\n      dup3\n        /* \"#utility.yul\":10637:10638   */\n      dup2\n        /* \"#utility.yul\":10634:10648   */\n      lt\n        /* \"#utility.yul\":10626:10834   */\n      iszero\n      tag_217\n      jumpi\n        /* \"#utility.yul\":10719:10728   */\n      dup5\n        /* \"#utility.yul\":10714:10717   */\n      dup10\n        /* \"#utility.yul\":10710:10729   */\n      add\n        /* \"#utility.yul\":10704:10730   */\n      mload\n        /* \"#utility.yul\":10696:10702   */\n      dup3\n        /* \"#utility.yul\":10689:10731   */\n      sstore\n        /* \"#utility.yul\":10770:10771   */\n      0x01\n        /* \"#utility.yul\":10762:10768   */\n      dup3\n        /* \"#utility.yul\":10758:10772   */\n      add\n        /* \"#utility.yul\":10748:10772   */\n      swap2\n      pop\n        /* \"#utility.yul\":10817:10819   */\n      0x20\n        /* \"#utility.yul\":10806:10815   */\n      dup6\n        /* \"#utility.yul\":10802:10820   */\n      add\n        /* \"#utility.yul\":10789:10820   */\n      swap5\n      pop\n        /* \"#utility.yul\":10663:10667   */\n      0x20\n        /* \"#utility.yul\":10660:10661   */\n      dup2\n        /* \"#utility.yul\":10656:10668   */\n      add\n        /* \"#utility.yul\":10651:10668   */\n      swap1\n      pop\n        /* \"#utility.yul\":10626:10834   */\n      jump(tag_215)\n    tag_217:\n        /* \"#utility.yul\":10862:10868   */\n      dup7\n        /* \"#utility.yul\":10853:10860   */\n      dup4\n        /* \"#utility.yul\":10850:10869   */\n      lt\n        /* \"#utility.yul\":10847:11026   */\n      iszero\n      tag_218\n      jumpi\n        /* \"#utility.yul\":10920:10929   */\n      dup5\n        /* \"#utility.yul\":10915:10918   */\n      dup10\n        /* \"#utility.yul\":10911:10930   */\n      add\n        /* \"#utility.yul\":10905:10931   */\n      mload\n        /* \"#utility.yul\":10963:11011   */\n      tag_219\n        /* \"#utility.yul\":11005:11009   */\n      0x1f\n        /* \"#utility.yul\":10997:11003   */\n      dup10\n        /* \"#utility.yul\":10993:11010   */\n      and\n        /* \"#utility.yul\":10982:10991   */\n      dup3\n        /* \"#utility.yul\":10963:11011   */\n      tag_82\n      jump\t// in\n    tag_219:\n        /* \"#utility.yul\":10955:10961   */\n      dup4\n        /* \"#utility.yul\":10948:11012   */\n      sstore\n        /* \"#utility.yul\":10870:11026   */\n      pop\n        /* \"#utility.yul\":10847:11026   */\n    tag_218:\n        /* \"#utility.yul\":11072:11073   */\n      0x01\n        /* \"#utility.yul\":11068:11069   */\n      0x02\n        /* \"#utility.yul\":11060:11066   */\n      dup9\n        /* \"#utility.yul\":11056:11070   */\n      mul\n        /* \"#utility.yul\":11052:11074   */\n      add\n        /* \"#utility.yul\":11046:11050   */\n      dup9\n        /* \"#utility.yul\":11039:11075   */\n      sstore\n        /* \"#utility.yul\":10474:11085   */\n      pop\n      pop\n      pop\n        /* \"#utility.yul\":10437:11324   */\n    tag_210:\n      pop\n        /* \"#utility.yul\":10027:11330   */\n      pop\n      pop\n      pop\n        /* \"#utility.yul\":9935:11330   */\n      pop\n      pop\n      jump\t// out\n\n    auxdata: 0xa2646970667358221220252c952a30344cb1697e89256f8ab89846ab79103e815ac07ae3b8cb0a64716d64736f6c634300081a0033\n}\n",
				"bytecode": {
					"linkReferences": {},
					"object": "6080604052348015600e575f80fd5b506109998061001c5f395ff3fe608060405234801561000f575f80fd5b506004361061004a575f3560e01c80637f7f0c241461004e578063a7ff4bda1461006a578063d50bcd2b14610086578063ee26fac3146100b8575b5f80fd5b610068600480360381019061006391906104ef565b6100d8565b005b610084600480360381019061007f91906104ef565b61013b565b005b6100a0600480360381019061009b91906105b5565b6101da565b6040516100af9392919061065e565b60405180910390f35b6100c0610292565b6040516100cf9392919061065e565b60405180910390f35b60405180606001604052808481526020018381526020018215158152505f80820151815f0190816101099190610894565b50602082015181600101556040820151816002015f6101000a81548160ff021916908315150217905550905050505050565b604051806060016040528084815260200183815260200182151581525060035f3373ffffffffffffffffffffffffffffffffffffffff1673ffffffffffffffffffffffffffffffffffffffff1681526020019081526020015f205f820151815f0190816101a89190610894565b50602082015181600101556040820151816002015f6101000a81548160ff021916908315150217905550905050505050565b6003602052805f5260405f205f91509050805f0180546101f9906106c7565b80601f0160208091040260200160405190810160405280929190818152602001828054610225906106c7565b80156102705780601f1061024757610100808354040283529160200191610270565b820191905f5260205f20905b81548152906001019060200180831161025357829003601f168201915b505050505090806001015490806002015f9054906101000a900460ff16905083565b5f805f0180546102a1906106c7565b80601f01602080910402602001604051908101604052809291908181526020018280546102cd906106c7565b80156103185780601f106102ef57610100808354040283529160200191610318565b820191905f5260205f20905b8154815290600101906020018083116102fb57829003601f168201915b505050505090806001015490806002015f9054906101000a900460ff16905083565b5f604051905090565b5f80fd5b5f80fd5b5f80fd5b5f80fd5b5f601f19601f8301169050919050565b7f4e487b71000000000000000000000000000000000000000000000000000000005f52604160045260245ffd5b61039982610353565b810181811067ffffffffffffffff821117156103b8576103b7610363565b5b80604052505050565b5f6103ca61033a565b90506103d68282610390565b919050565b5f67ffffffffffffffff8211156103f5576103f4610363565b5b6103fe82610353565b9050602081019050919050565b828183375f83830152505050565b5f61042b610426846103db565b6103c1565b9050828152602081018484840111156104475761044661034f565b5b61045284828561040b565b509392505050565b5f82601f83011261046e5761046d61034b565b5b813561047e848260208601610419565b91505092915050565b5f819050919050565b61049981610487565b81146104a3575f80fd5b50565b5f813590506104b481610490565b92915050565b5f8115159050919050565b6104ce816104ba565b81146104d8575f80fd5b50565b5f813590506104e9816104c5565b92915050565b5f805f6060848603121561050657610505610343565b5b5f84013567ffffffffffffffff81111561052357610522610347565b5b61052f8682870161045a565b9350506020610540868287016104a6565b9250506040610551868287016104db565b9150509250925092565b5f73ffffffffffffffffffffffffffffffffffffffff82169050919050565b5f6105848261055b565b9050919050565b6105948161057a565b811461059e575f80fd5b50565b5f813590506105af8161058b565b92915050565b5f602082840312156105ca576105c9610343565b5b5f6105d7848285016105a1565b91505092915050565b5f81519050919050565b5f82825260208201905092915050565b8281835e5f83830152505050565b5f610612826105e0565b61061c81856105ea565b935061062c8185602086016105fa565b61063581610353565b840191505092915050565b61064981610487565b82525050565b610658816104ba565b82525050565b5f6060820190508181035f8301526106768186610608565b90506106856020830185610640565b610692604083018461064f565b949350505050565b7f4e487b71000000000000000000000000000000000000000000000000000000005f52602260045260245ffd5b5f60028204905060018216806106de57607f821691505b6020821081036106f1576106f061069a565b5b50919050565b5f819050815f5260205f209050919050565b5f6020601f8301049050919050565b5f82821b905092915050565b5f600883026107537fffffffffffffffffffffffffffffffffffffffffffffffffffffffffffffffff82610718565b61075d8683610718565b95508019841693508086168417925050509392505050565b5f819050919050565b5f61079861079361078e84610487565b610775565b610487565b9050919050565b5f819050919050565b6107b18361077e565b6107c56107bd8261079f565b848454610724565b825550505050565b5f90565b6107d96107cd565b6107e48184846107a8565b505050565b5b81811015610807576107fc5f826107d1565b6001810190506107ea565b5050565b601f82111561084c5761081d816106f7565b61082684610709565b81016020851015610835578190505b61084961084185610709565b8301826107e9565b50505b505050565b5f82821c905092915050565b5f61086c5f1984600802610851565b1980831691505092915050565b5f610884838361085d565b9150826002028217905092915050565b61089d826105e0565b67ffffffffffffffff8111156108b6576108b5610363565b5b6108c082546106c7565b6108cb82828561080b565b5f60209050601f8311600181146108fc575f84156108ea578287015190505b6108f48582610879565b86555061095b565b601f19841661090a866106f7565b5f5b828110156109315784890151825560018201915060208501945060208101905061090c565b8683101561094e578489015161094a601f89168261085d565b8355505b6001600288020188555050505b50505050505056fea2646970667358221220252c952a30344cb1697e89256f8ab89846ab79103e815ac07ae3b8cb0a64716d64736f6c634300081a0033",
					"opcodes": "PUSH1 0x80 PUSH1 0x40 MSTORE CALLVALUE DUP1 ISZERO PUSH1 0xE JUMPI PUSH0 DUP1 REVERT JUMPDEST POP PUSH2 0x999 DUP1 PUSH2 0x1C PUSH0 CODECOPY PUSH0 RETURN INVALID PUSH1 0x80 PUSH1 0x40 MSTORE CALLVALUE DUP1 ISZERO PUSH2 0xF JUMPI PUSH0 DUP1 REVERT JUMPDEST POP PUSH1 0x4 CALLDATASIZE LT PUSH2 0x4A JUMPI PUSH0 CALLDATALOAD PUSH1 0xE0 SHR DUP1 PUSH4 0x7F7F0C24 EQ PUSH2 0x4E JUMPI DUP1 PUSH4 0xA7FF4BDA EQ PUSH2 0x6A JUMPI DUP1 PUSH4 0xD50BCD2B EQ PUSH2 0x86 JUMPI DUP1 PUSH4 0xEE26FAC3 EQ PUSH2 0xB8 JUMPI JUMPDEST PUSH0 DUP1 REVERT JUMPDEST PUSH2 0x68 PUSH1 0x4 DUP1 CALLDATASIZE SUB DUP2 ADD SWAP1 PUSH2 0x63 SWAP2 SWAP1 PUSH2 0x4EF JUMP JUMPDEST PUSH2 0xD8 JUMP JUMPDEST STOP JUMPDEST PUSH2 0x84 PUSH1 0x4 DUP1 CALLDATASIZE SUB DUP2 ADD SWAP1 PUSH2 0x7F SWAP2 SWAP1 PUSH2 0x4EF JUMP JUMPDEST PUSH2 0x13B JUMP JUMPDEST STOP JUMPDEST PUSH2 0xA0 PUSH1 0x4 DUP1 CALLDATASIZE SUB DUP2 ADD SWAP1 PUSH2 0x9B SWAP2 SWAP1 PUSH2 0x5B5 JUMP JUMPDEST PUSH2 0x1DA JUMP JUMPDEST PUSH1 0x40 MLOAD PUSH2 0xAF SWAP4 SWAP3 SWAP2 SWAP1 PUSH2 0x65E JUMP JUMPDEST PUSH1 0x40 MLOAD DUP1 SWAP2 SUB SWAP1 RETURN JUMPDEST PUSH2 0xC0 PUSH2 0x292 JUMP JUMPDEST PUSH1 0x40 MLOAD PUSH2 0xCF SWAP4 SWAP3 SWAP2 SWAP1 PUSH2 0x65E JUMP JUMPDEST PUSH1 0x40 MLOAD DUP1 SWAP2 SUB SWAP1 RETURN JUMPDEST PUSH1 0x40 MLOAD DUP1 PUSH1 0x60 ADD PUSH1 0x40 MSTORE DUP1 DUP5 DUP2 MSTORE PUSH1 0x20 ADD DUP4 DUP2 MSTORE PUSH1 0x20 ADD DUP3 ISZERO ISZERO DUP2 MSTORE POP PUSH0 DUP1 DUP3 ADD MLOAD DUP2 PUSH0 ADD SWAP1 DUP2 PUSH2 0x109 SWAP2 SWAP1 PUSH2 0x894 JUMP JUMPDEST POP PUSH1 0x20 DUP3 ADD MLOAD DUP2 PUSH1 0x1 ADD SSTORE PUSH1 0x40 DUP3 ADD MLOAD DUP2 PUSH1 0x2 ADD PUSH0 PUSH2 0x100 EXP DUP2 SLOAD DUP2 PUSH1 0xFF MUL NOT AND SWAP1 DUP4 ISZERO ISZERO MUL OR SWAP1 SSTORE POP SWAP1 POP POP POP POP POP JUMP JUMPDEST PUSH1 0x40 MLOAD DUP1 PUSH1 0x60 ADD PUSH1 0x40 MSTORE DUP1 DUP5 DUP2 MSTORE PUSH1 0x20 ADD DUP4 DUP2 MSTORE PUSH1 0x20 ADD DUP3 ISZERO ISZERO DUP2 MSTORE POP PUSH1 0x3 PUSH0 CALLER PUSH20 0xFFFFFFFFFFFFFFFFFFFFFFFFFFFFFFFFFFFFFFFF AND PUSH20 0xFFFFFFFFFFFFFFFFFFFFFFFFFFFFFFFFFFFFFFFF AND DUP2 MSTORE PUSH1 0x20 ADD SWAP1 DUP2 MSTORE PUSH1 0x20 ADD PUSH0 KECCAK256 PUSH0 DUP3 ADD MLOAD DUP2 PUSH0 ADD SWAP1 DUP2 PUSH2 0x1A8 SWAP2 SWAP1 PUSH2 0x894 JUMP JUMPDEST POP PUSH1 0x20 DUP3 ADD MLOAD DUP2 PUSH1 0x1 ADD SSTORE PUSH1 0x40 DUP3 ADD MLOAD DUP2 PUSH1 0x2 ADD PUSH0 PUSH2 0x100 EXP DUP2 SLOAD DUP2 PUSH1 0xFF MUL NOT AND SWAP1 DUP4 ISZERO ISZERO MUL OR SWAP1 SSTORE POP SWAP1 POP POP POP POP POP JUMP JUMPDEST PUSH1 0x3 PUSH1 0x20 MSTORE DUP1 PUSH0 MSTORE PUSH1 0x40 PUSH0 KECCAK256 PUSH0 SWAP2 POP SWAP1 POP DUP1 PUSH0 ADD DUP1 SLOAD PUSH2 0x1F9 SWAP1 PUSH2 0x6C7 JUMP JUMPDEST DUP1 PUSH1 0x1F ADD PUSH1 0x20 DUP1 SWAP2 DIV MUL PUSH1 0x20 ADD PUSH1 0x40 MLOAD SWAP1 DUP2 ADD PUSH1 0x40 MSTORE DUP1 SWAP3 SWAP2 SWAP1 DUP2 DUP2 MSTORE PUSH1 0x20 ADD DUP3 DUP1 SLOAD PUSH2 0x225 SWAP1 PUSH2 0x6C7 JUMP JUMPDEST DUP1 ISZERO PUSH2 0x270 JUMPI DUP1 PUSH1 0x1F LT PUSH2 0x247 JUMPI PUSH2 0x100 DUP1 DUP4 SLOAD DIV MUL DUP4 MSTORE SWAP2 PUSH1 0x20 ADD SWAP2 PUSH2 0x270 JUMP JUMPDEST DUP3 ADD SWAP2 SWAP1 PUSH0 MSTORE PUSH1 0x20 PUSH0 KECCAK256 SWAP1 JUMPDEST DUP2 SLOAD DUP2 MSTORE SWAP1 PUSH1 0x1 ADD SWAP1 PUSH1 0x20 ADD DUP1 DUP4 GT PUSH2 0x253 JUMPI DUP3 SWAP1 SUB PUSH1 0x1F AND DUP3 ADD SWAP2 JUMPDEST POP POP POP POP POP SWAP1 DUP1 PUSH1 0x1 ADD SLOAD SWAP1 DUP1 PUSH1 0x2 ADD PUSH0 SWAP1 SLOAD SWAP1 PUSH2 0x100 EXP SWAP1 DIV PUSH1 0xFF AND SWAP1 POP DUP4 JUMP JUMPDEST PUSH0 DUP1 PUSH0 ADD DUP1 SLOAD PUSH2 0x2A1 SWAP1 PUSH2 0x6C7 JUMP JUMPDEST DUP1 PUSH1 0x1F ADD PUSH1 0x20 DUP1 SWAP2 DIV MUL PUSH1 0x20 ADD PUSH1 0x40 MLOAD SWAP1 DUP2 ADD PUSH1 0x40 MSTORE DUP1 SWAP3 SWAP2 SWAP1 DUP2 DUP2 MSTORE PUSH1 0x20 ADD DUP3 DUP1 SLOAD PUSH2 0x2CD SWAP1 PUSH2 0x6C7 JUMP JUMPDEST DUP1 ISZERO PUSH2 0x318 JUMPI DUP1 PUSH1 0x1F LT PUSH2 0x2EF JUMPI PUSH2 0x100 DUP1 DUP4 SLOAD DIV MUL DUP4 MSTORE SWAP2 PUSH1 0x20 ADD SWAP2 PUSH2 0x318 JUMP JUMPDEST DUP3 ADD SWAP2 SWAP1 PUSH0 MSTORE PUSH1 0x20 PUSH0 KECCAK256 SWAP1 JUMPDEST DUP2 SLOAD DUP2 MSTORE SWAP1 PUSH1 0x1 ADD SWAP1 PUSH1 0x20 ADD DUP1 DUP4 GT PUSH2 0x2FB JUMPI DUP3 SWAP1 SUB PUSH1 0x1F AND DUP3 ADD SWAP2 JUMPDEST POP POP POP POP POP SWAP1 DUP1 PUSH1 0x1 ADD SLOAD SWAP1 DUP1 PUSH1 0x2 ADD PUSH0 SWAP1 SLOAD SWAP1 PUSH2 0x100 EXP SWAP1 DIV PUSH1 0xFF AND SWAP1 POP DUP4 JUMP JUMPDEST PUSH0 PUSH1 0x40 MLOAD SWAP1 POP SWAP1 JUMP JUMPDEST PUSH0 DUP1 REVERT JUMPDEST PUSH0 DUP1 REVERT JUMPDEST PUSH0 DUP1 REVERT JUMPDEST PUSH0 DUP1 REVERT JUMPDEST PUSH0 PUSH1 0x1F NOT PUSH1 0x1F DUP4 ADD AND SWAP1 POP SWAP2 SWAP1 POP JUMP JUMPDEST PUSH32 0x4E487B7100000000000000000000000000000000000000000000000000000000 PUSH0 MSTORE PUSH1 0x41 PUSH1 0x4 MSTORE PUSH1 0x24 PUSH0 REVERT JUMPDEST PUSH2 0x399 DUP3 PUSH2 0x353 JUMP JUMPDEST DUP2 ADD DUP2 DUP2 LT PUSH8 0xFFFFFFFFFFFFFFFF DUP3 GT OR ISZERO PUSH2 0x3B8 JUMPI PUSH2 0x3B7 PUSH2 0x363 JUMP JUMPDEST JUMPDEST DUP1 PUSH1 0x40 MSTORE POP POP POP JUMP JUMPDEST PUSH0 PUSH2 0x3CA PUSH2 0x33A JUMP JUMPDEST SWAP1 POP PUSH2 0x3D6 DUP3 DUP3 PUSH2 0x390 JUMP JUMPDEST SWAP2 SWAP1 POP JUMP JUMPDEST PUSH0 PUSH8 0xFFFFFFFFFFFFFFFF DUP3 GT ISZERO PUSH2 0x3F5 JUMPI PUSH2 0x3F4 PUSH2 0x363 JUMP JUMPDEST JUMPDEST PUSH2 0x3FE DUP3 PUSH2 0x353 JUMP JUMPDEST SWAP1 POP PUSH1 0x20 DUP2 ADD SWAP1 POP SWAP2 SWAP1 POP JUMP JUMPDEST DUP3 DUP2 DUP4 CALLDATACOPY PUSH0 DUP4 DUP4 ADD MSTORE POP POP POP JUMP JUMPDEST PUSH0 PUSH2 0x42B PUSH2 0x426 DUP5 PUSH2 0x3DB JUMP JUMPDEST PUSH2 0x3C1 JUMP JUMPDEST SWAP1 POP DUP3 DUP2 MSTORE PUSH1 0x20 DUP2 ADD DUP5 DUP5 DUP5 ADD GT ISZERO PUSH2 0x447 JUMPI PUSH2 0x446 PUSH2 0x34F JUMP JUMPDEST JUMPDEST PUSH2 0x452 DUP5 DUP3 DUP6 PUSH2 0x40B JUMP JUMPDEST POP SWAP4 SWAP3 POP POP POP JUMP JUMPDEST PUSH0 DUP3 PUSH1 0x1F DUP4 ADD SLT PUSH2 0x46E JUMPI PUSH2 0x46D PUSH2 0x34B JUMP JUMPDEST JUMPDEST DUP2 CALLDATALOAD PUSH2 0x47E DUP5 DUP3 PUSH1 0x20 DUP7 ADD PUSH2 0x419 JUMP JUMPDEST SWAP2 POP POP SWAP3 SWAP2 POP POP JUMP JUMPDEST PUSH0 DUP2 SWAP1 POP SWAP2 SWAP1 POP JUMP JUMPDEST PUSH2 0x499 DUP2 PUSH2 0x487 JUMP JUMPDEST DUP2 EQ PUSH2 0x4A3 JUMPI PUSH0 DUP1 REVERT JUMPDEST POP JUMP JUMPDEST PUSH0 DUP2 CALLDATALOAD SWAP1 POP PUSH2 0x4B4 DUP2 PUSH2 0x490 JUMP JUMPDEST SWAP3 SWAP2 POP POP JUMP JUMPDEST PUSH0 DUP2 ISZERO ISZERO SWAP1 POP SWAP2 SWAP1 POP JUMP JUMPDEST PUSH2 0x4CE DUP2 PUSH2 0x4BA JUMP JUMPDEST DUP2 EQ PUSH2 0x4D8 JUMPI PUSH0 DUP1 REVERT JUMPDEST POP JUMP JUMPDEST PUSH0 DUP2 CALLDATALOAD SWAP1 POP PUSH2 0x4E9 DUP2 PUSH2 0x4C5 JUMP JUMPDEST SWAP3 SWAP2 POP POP JUMP JUMPDEST PUSH0 DUP1 PUSH0 PUSH1 0x60 DUP5 DUP7 SUB SLT ISZERO PUSH2 0x506 JUMPI PUSH2 0x505 PUSH2 0x343 JUMP JUMPDEST JUMPDEST PUSH0 DUP5 ADD CALLDATALOAD PUSH8 0xFFFFFFFFFFFFFFFF DUP2 GT ISZERO PUSH2 0x523 JUMPI PUSH2 0x522 PUSH2 0x347 JUMP JUMPDEST JUMPDEST PUSH2 0x52F DUP7 DUP3 DUP8 ADD PUSH2 0x45A JUMP JUMPDEST SWAP4 POP POP PUSH1 0x20 PUSH2 0x540 DUP7 DUP3 DUP8 ADD PUSH2 0x4A6 JUMP JUMPDEST SWAP3 POP POP PUSH1 0x40 PUSH2 0x551 DUP7 DUP3 DUP8 ADD PUSH2 0x4DB JUMP JUMPDEST SWAP2 POP POP SWAP3 POP SWAP3 POP SWAP3 JUMP JUMPDEST PUSH0 PUSH20 0xFFFFFFFFFFFFFFFFFFFFFFFFFFFFFFFFFFFFFFFF DUP3 AND SWAP1 POP SWAP2 SWAP1 POP JUMP JUMPDEST PUSH0 PUSH2 0x584 DUP3 PUSH2 0x55B JUMP JUMPDEST SWAP1 POP SWAP2 SWAP1 POP JUMP JUMPDEST PUSH2 0x594 DUP2 PUSH2 0x57A JUMP JUMPDEST DUP2 EQ PUSH2 0x59E JUMPI PUSH0 DUP1 REVERT JUMPDEST POP JUMP JUMPDEST PUSH0 DUP2 CALLDATALOAD SWAP1 POP PUSH2 0x5AF DUP2 PUSH2 0x58B JUMP JUMPDEST SWAP3 SWAP2 POP POP JUMP JUMPDEST PUSH0 PUSH1 0x20 DUP3 DUP5 SUB SLT ISZERO PUSH2 0x5CA JUMPI PUSH2 0x5C9 PUSH2 0x343 JUMP JUMPDEST JUMPDEST PUSH0 PUSH2 0x5D7 DUP5 DUP3 DUP6 ADD PUSH2 0x5A1 JUMP JUMPDEST SWAP2 POP POP SWAP3 SWAP2 POP POP JUMP JUMPDEST PUSH0 DUP2 MLOAD SWAP1 POP SWAP2 SWAP1 POP JUMP JUMPDEST PUSH0 DUP3 DUP3 MSTORE PUSH1 0x20 DUP3 ADD SWAP1 POP SWAP3 SWAP2 POP POP JUMP JUMPDEST DUP3 DUP2 DUP4 MCOPY PUSH0 DUP4 DUP4 ADD MSTORE POP POP POP JUMP JUMPDEST PUSH0 PUSH2 0x612 DUP3 PUSH2 0x5E0 JUMP JUMPDEST PUSH2 0x61C DUP2 DUP6 PUSH2 0x5EA JUMP JUMPDEST SWAP4 POP PUSH2 0x62C DUP2 DUP6 PUSH1 0x20 DUP7 ADD PUSH2 0x5FA JUMP JUMPDEST PUSH2 0x635 DUP2 PUSH2 0x353 JUMP JUMPDEST DUP5 ADD SWAP2 POP POP SWAP3 SWAP2 POP POP JUMP JUMPDEST PUSH2 0x649 DUP2 PUSH2 0x487 JUMP JUMPDEST DUP3 MSTORE POP POP JUMP JUMPDEST PUSH2 0x658 DUP2 PUSH2 0x4BA JUMP JUMPDEST DUP3 MSTORE POP POP JUMP JUMPDEST PUSH0 PUSH1 0x60 DUP3 ADD SWAP1 POP DUP2 DUP2 SUB PUSH0 DUP4 ADD MSTORE PUSH2 0x676 DUP2 DUP7 PUSH2 0x608 JUMP JUMPDEST SWAP1 POP PUSH2 0x685 PUSH1 0x20 DUP4 ADD DUP6 PUSH2 0x640 JUMP JUMPDEST PUSH2 0x692 PUSH1 0x40 DUP4 ADD DUP5 PUSH2 0x64F JUMP JUMPDEST SWAP5 SWAP4 POP POP POP POP JUMP JUMPDEST PUSH32 0x4E487B7100000000000000000000000000000000000000000000000000000000 PUSH0 MSTORE PUSH1 0x22 PUSH1 0x4 MSTORE PUSH1 0x24 PUSH0 REVERT JUMPDEST PUSH0 PUSH1 0x2 DUP3 DIV SWAP1 POP PUSH1 0x1 DUP3 AND DUP1 PUSH2 0x6DE JUMPI PUSH1 0x7F DUP3 AND SWAP2 POP JUMPDEST PUSH1 0x20 DUP3 LT DUP2 SUB PUSH2 0x6F1 JUMPI PUSH2 0x6F0 PUSH2 0x69A JUMP JUMPDEST JUMPDEST POP SWAP2 SWAP1 POP JUMP JUMPDEST PUSH0 DUP2 SWAP1 POP DUP2 PUSH0 MSTORE PUSH1 0x20 PUSH0 KECCAK256 SWAP1 POP SWAP2 SWAP1 POP JUMP JUMPDEST PUSH0 PUSH1 0x20 PUSH1 0x1F DUP4 ADD DIV SWAP1 POP SWAP2 SWAP1 POP JUMP JUMPDEST PUSH0 DUP3 DUP3 SHL SWAP1 POP SWAP3 SWAP2 POP POP JUMP JUMPDEST PUSH0 PUSH1 0x8 DUP4 MUL PUSH2 0x753 PUSH32 0xFFFFFFFFFFFFFFFFFFFFFFFFFFFFFFFFFFFFFFFFFFFFFFFFFFFFFFFFFFFFFFFF DUP3 PUSH2 0x718 JUMP JUMPDEST PUSH2 0x75D DUP7 DUP4 PUSH2 0x718 JUMP JUMPDEST SWAP6 POP DUP1 NOT DUP5 AND SWAP4 POP DUP1 DUP7 AND DUP5 OR SWAP3 POP POP POP SWAP4 SWAP3 POP POP POP JUMP JUMPDEST PUSH0 DUP2 SWAP1 POP SWAP2 SWAP1 POP JUMP JUMPDEST PUSH0 PUSH2 0x798 PUSH2 0x793 PUSH2 0x78E DUP5 PUSH2 0x487 JUMP JUMPDEST PUSH2 0x775 JUMP JUMPDEST PUSH2 0x487 JUMP JUMPDEST SWAP1 POP SWAP2 SWAP1 POP JUMP JUMPDEST PUSH0 DUP2 SWAP1 POP SWAP2 SWAP1 POP JUMP JUMPDEST PUSH2 0x7B1 DUP4 PUSH2 0x77E JUMP JUMPDEST PUSH2 0x7C5 PUSH2 0x7BD DUP3 PUSH2 0x79F JUMP JUMPDEST DUP5 DUP5 SLOAD PUSH2 0x724 JUMP JUMPDEST DUP3 SSTORE POP POP POP POP JUMP JUMPDEST PUSH0 SWAP1 JUMP JUMPDEST PUSH2 0x7D9 PUSH2 0x7CD JUMP JUMPDEST PUSH2 0x7E4 DUP2 DUP5 DUP5 PUSH2 0x7A8 JUMP JUMPDEST POP POP POP JUMP JUMPDEST JUMPDEST DUP2 DUP2 LT ISZERO PUSH2 0x807 JUMPI PUSH2 0x7FC PUSH0 DUP3 PUSH2 0x7D1 JUMP JUMPDEST PUSH1 0x1 DUP2 ADD SWAP1 POP PUSH2 0x7EA JUMP JUMPDEST POP POP JUMP JUMPDEST PUSH1 0x1F DUP3 GT ISZERO PUSH2 0x84C JUMPI PUSH2 0x81D DUP2 PUSH2 0x6F7 JUMP JUMPDEST PUSH2 0x826 DUP5 PUSH2 0x709 JUMP JUMPDEST DUP2 ADD PUSH1 0x20 DUP6 LT ISZERO PUSH2 0x835 JUMPI DUP2 SWAP1 POP JUMPDEST PUSH2 0x849 PUSH2 0x841 DUP6 PUSH2 0x709 JUMP JUMPDEST DUP4 ADD DUP3 PUSH2 0x7E9 JUMP JUMPDEST POP POP JUMPDEST POP POP POP JUMP JUMPDEST PUSH0 DUP3 DUP3 SHR SWAP1 POP SWAP3 SWAP2 POP POP JUMP JUMPDEST PUSH0 PUSH2 0x86C PUSH0 NOT DUP5 PUSH1 0x8 MUL PUSH2 0x851 JUMP JUMPDEST NOT DUP1 DUP4 AND SWAP2 POP POP SWAP3 SWAP2 POP POP JUMP JUMPDEST PUSH0 PUSH2 0x884 DUP4 DUP4 PUSH2 0x85D JUMP JUMPDEST SWAP2 POP DUP3 PUSH1 0x2 MUL DUP3 OR SWAP1 POP SWAP3 SWAP2 POP POP JUMP JUMPDEST PUSH2 0x89D DUP3 PUSH2 0x5E0 JUMP JUMPDEST PUSH8 0xFFFFFFFFFFFFFFFF DUP2 GT ISZERO PUSH2 0x8B6 JUMPI PUSH2 0x8B5 PUSH2 0x363 JUMP JUMPDEST JUMPDEST PUSH2 0x8C0 DUP3 SLOAD PUSH2 0x6C7 JUMP JUMPDEST PUSH2 0x8CB DUP3 DUP3 DUP6 PUSH2 0x80B JUMP JUMPDEST PUSH0 PUSH1 0x20 SWAP1 POP PUSH1 0x1F DUP4 GT PUSH1 0x1 DUP2 EQ PUSH2 0x8FC JUMPI PUSH0 DUP5 ISZERO PUSH2 0x8EA JUMPI DUP3 DUP8 ADD MLOAD SWAP1 POP JUMPDEST PUSH2 0x8F4 DUP6 DUP3 PUSH2 0x879 JUMP JUMPDEST DUP7 SSTORE POP PUSH2 0x95B JUMP JUMPDEST PUSH1 0x1F NOT DUP5 AND PUSH2 0x90A DUP7 PUSH2 0x6F7 JUMP JUMPDEST PUSH0 JUMPDEST DUP3 DUP2 LT ISZERO PUSH2 0x931 JUMPI DUP5 DUP10 ADD MLOAD DUP3 SSTORE PUSH1 0x1 DUP3 ADD SWAP2 POP PUSH1 0x20 DUP6 ADD SWAP5 POP PUSH1 0x20 DUP2 ADD SWAP1 POP PUSH2 0x90C JUMP JUMPDEST DUP7 DUP4 LT ISZERO PUSH2 0x94E JUMPI DUP5 DUP10 ADD MLOAD PUSH2 0x94A PUSH1 0x1F DUP10 AND DUP3 PUSH2 0x85D JUMP JUMPDEST DUP4 SSTORE POP JUMPDEST PUSH1 0x1 PUSH1 0x2 DUP9 MUL ADD DUP9 SSTORE POP POP POP JUMPDEST POP POP POP POP POP POP JUMP INVALID LOG2 PUSH5 0x6970667358 0x22 SLT KECCAK256 0x25 0x2C SWAP6 0x2A ADDRESS CALLVALUE 0x4C 0xB1 PUSH10 0x7E89256F8AB89846AB79 LT RETURNDATACOPY DUP2 GAS 0xC0 PUSH27 0xE3B8CB0A64716D64736F6C634300081A0033000000000000000000 "
				},
				"gasEstimates": {
					"creation": {
						"codeDepositCost": "491400",
						"executionCost": "522",
						"totalCost": "491922"
					},
					"external": {
						"addCarToMap(string,uint256,bool)": "infinite",
						"car()": "infinite",
						"carMap(address)": "infinite",
						"createCar(string,uint256,bool)": "infinite"
					}
				},
				"methodIdentifiers": {
					"addCarToMap(string,uint256,bool)": "a7ff4bda",
					"car()": "ee26fac3",
					"carMap(address)": "d50bcd2b",
					"createCar(string,uint256,bool)": "7f7f0c24"
				}
			},
			"storageLayout": {
				"storage": [
					{
						"astId": 11,
						"contract": "contracts/10_Struct.sol:Structs",
						"label": "car",
						"offset": 0,
						"slot": "0",
						"type": "t_struct(Car)8_storage"
					},
					{
						"astId": 16,
						"contract": "contracts/10_Struct.sol:Structs",
						"label": "carMap",
						"offset": 0,
						"slot": "3",
						"type": "t_mapping(t_address,t_struct(Car)8_storage)"
					}
				],
				"types": {
					"t_address": {
						"encoding": "inplace",
						"label": "address",
						"numberOfBytes": "20"
					},
					"t_bool": {
						"encoding": "inplace",
						"label": "bool",
						"numberOfBytes": "1"
					},
					"t_mapping(t_address,t_struct(Car)8_storage)": {
						"encoding": "mapping",
						"key": "t_address",
						"label": "mapping(address => struct Structs.Car)",
						"numberOfBytes": "32",
						"value": "t_struct(Car)8_storage"
					},
					"t_string_storage": {
						"encoding": "bytes",
						"label": "string",
						"numberOfBytes": "32"
					},
					"t_struct(Car)8_storage": {
						"encoding": "inplace",
						"label": "struct Structs.Car",
						"members": [
							{
								"astId": 3,
								"contract": "contracts/10_Struct.sol:Structs",
								"label": "brand",
								"offset": 0,
								"slot": "0",
								"type": "t_string_storage"
							},
							{
								"astId": 5,
								"contract": "contracts/10_Struct.sol:Structs",
								"label": "year",
								"offset": 0,
								"slot": "1",
								"type": "t_uint256"
							},
							{
								"astId": 7,
								"contract": "contracts/10_Struct.sol:Structs",
								"label": "crashed",
								"offset": 0,
								"slot": "2",
								"type": "t_bool"
							}
						],
						"numberOfBytes": "96"
					},
					"t_uint256": {
						"encoding": "inplace",
						"label": "uint256",
						"numberOfBytes": "32"
					}
				}
			},
			"userdoc": {
				"kind": "user",
				"methods": {},
				"version": 1
			}
		}
	}
}