{
	"contracts/7_Clase2Modulo2.sol": {
		"Clase2Modulo2": {
			"abi": [
				{
					"inputs": [],
					"stateMutability": "nonpayable",
					"type": "constructor"
				},
				{
					"anonymous": false,
					"inputs": [
						{
							"indexed": true,
							"internalType": "address",
							"name": "editor",
							"type": "address"
						},
						{
							"indexed": true,
							"internalType": "string",
							"name": "key",
							"type": "string"
						},
						{
							"indexed": false,
							"internalType": "string",
							"name": "value",
							"type": "string"
						}
					],
					"name": "DataModified",
					"type": "event"
				},
				{
					"inputs": [],
					"name": "deleteLastElement",
					"outputs": [
						{
							"internalType": "string[]",
							"name": "",
							"type": "string[]"
						}
					],
					"stateMutability": "nonpayable",
					"type": "function"
				},
				{
					"inputs": [
						{
							"internalType": "uint256",
							"name": "_index",
							"type": "uint256"
						},
						{
							"internalType": "string",
							"name": "_newName",
							"type": "string"
						}
					],
					"name": "editNameArray",
					"outputs": [],
					"stateMutability": "nonpayable",
					"type": "function"
				},
				{
					"inputs": [],
					"name": "lastName",
					"outputs": [
						{
							"internalType": "string",
							"name": "",
							"type": "string"
						}
					],
					"stateMutability": "view",
					"type": "function"
				},
				{
					"inputs": [],
					"name": "name",
					"outputs": [
						{
							"internalType": "string",
							"name": "",
							"type": "string"
						}
					],
					"stateMutability": "view",
					"type": "function"
				},
				{
					"inputs": [
						{
							"internalType": "uint256",
							"name": "",
							"type": "uint256"
						}
					],
					"name": "names",
					"outputs": [
						{
							"internalType": "string",
							"name": "",
							"type": "string"
						}
					],
					"stateMutability": "view",
					"type": "function"
				},
				{
					"inputs": [
						{
							"internalType": "uint256",
							"name": "_index",
							"type": "uint256"
						}
					],
					"name": "readNames",
					"outputs": [
						{
							"internalType": "string",
							"name": "",
							"type": "string"
						}
					],
					"stateMutability": "view",
					"type": "function"
				},
				{
					"inputs": [
						{
							"internalType": "string",
							"name": "_lastName",
							"type": "string"
						}
					],
					"name": "setLastName",
					"outputs": [],
					"stateMutability": "nonpayable",
					"type": "function"
				},
				{
					"inputs": [
						{
							"internalType": "string",
							"name": "_name",
							"type": "string"
						}
					],
					"name": "setName",
					"outputs": [],
					"stateMutability": "nonpayable",
					"type": "function"
				}
			],
			"devdoc": {
				"kind": "dev",
				"methods": {},
				"version": 1
			},
			"evm": {
				"assembly": "    /* \"contracts/7_Clase2Modulo2.sol\":63:1521  contract Clase2Modulo2{... */\n  mstore(0x40, 0x80)\n    /* \"contracts/7_Clase2Modulo2.sol\":204:254  constructor(){... */\n  callvalue\n  dup1\n  iszero\n  tag_1\n  jumpi\n  0x00\n  dup1\n  revert\ntag_1:\n  pop\n    /* \"contracts/7_Clase2Modulo2.sol\":236:246  msg.sender */\n  caller\n    /* \"contracts/7_Clase2Modulo2.sol\":228:233  owner */\n  0x02\n  0x00\n    /* \"contracts/7_Clase2Modulo2.sol\":228:246  owner = msg.sender */\n  0x0100\n  exp\n  dup2\n  sload\n  dup2\n  0xffffffffffffffffffffffffffffffffffffffff\n  mul\n  not\n  and\n  swap1\n  dup4\n  0xffffffffffffffffffffffffffffffffffffffff\n  and\n  mul\n  or\n  swap1\n  sstore\n  pop\n    /* \"contracts/7_Clase2Modulo2.sol\":63:1521  contract Clase2Modulo2{... */\n  dataSize(sub_0)\n  dup1\n  dataOffset(sub_0)\n  0x00\n  codecopy\n  0x00\n  return\nstop\n\nsub_0: assembly {\n        /* \"contracts/7_Clase2Modulo2.sol\":63:1521  contract Clase2Modulo2{... */\n      mstore(0x40, 0x80)\n      callvalue\n      dup1\n      iszero\n      tag_1\n      jumpi\n      0x00\n      dup1\n      revert\n    tag_1:\n      pop\n      jumpi(tag_2, lt(calldatasize, 0x04))\n      shr(0xe0, calldataload(0x00))\n      dup1\n      0x9ab03dcb\n      gt\n      tag_11\n      jumpi\n      dup1\n      0x9ab03dcb\n      eq\n      tag_7\n      jumpi\n      dup1\n      0xc47f0027\n      eq\n      tag_8\n      jumpi\n      dup1\n      0xdfc63b3e\n      eq\n      tag_9\n      jumpi\n      dup1\n      0xf8bd7772\n      eq\n      tag_10\n      jumpi\n      jump(tag_2)\n    tag_11:\n      dup1\n      0x06fdde03\n      eq\n      tag_3\n      jumpi\n      dup1\n      0x2ed84c5a\n      eq\n      tag_4\n      jumpi\n      dup1\n      0x4622ab03\n      eq\n      tag_5\n      jumpi\n      dup1\n      0x932754f9\n      eq\n      tag_6\n      jumpi\n    tag_2:\n      0x00\n      dup1\n      revert\n        /* \"contracts/7_Clase2Modulo2.sol\":92:110  string public name */\n    tag_3:\n      tag_12\n      tag_13\n      jump\t// in\n    tag_12:\n      mload(0x40)\n      tag_14\n      swap2\n      swap1\n      tag_15\n      jump\t// in\n    tag_14:\n      mload(0x40)\n      dup1\n      swap2\n      sub\n      swap1\n      return\n        /* \"contracts/7_Clase2Modulo2.sol\":1151:1301  function editNameArray(uint _index, string memory _newName) checkArrayLength(names, _index) public {        ... */\n    tag_4:\n      tag_16\n      0x04\n      dup1\n      calldatasize\n      sub\n      dup2\n      add\n      swap1\n      tag_17\n      swap2\n      swap1\n      tag_18\n      jump\t// in\n    tag_17:\n      tag_19\n      jump\t// in\n    tag_16:\n      stop\n        /* \"contracts/7_Clase2Modulo2.sol\":174:195  string[] public names */\n    tag_5:\n      tag_20\n      0x04\n      dup1\n      calldatasize\n      sub\n      dup2\n      add\n      swap1\n      tag_21\n      swap2\n      swap1\n      tag_22\n      jump\t// in\n    tag_21:\n      tag_23\n      jump\t// in\n    tag_20:\n      mload(0x40)\n      tag_24\n      swap2\n      swap1\n      tag_15\n      jump\t// in\n    tag_24:\n      mload(0x40)\n      dup1\n      swap2\n      sub\n      swap1\n      return\n        /* \"contracts/7_Clase2Modulo2.sol\":815:989  function setLastName(string memory _lastName) onlyOwner public {        ... */\n    tag_6:\n      tag_25\n      0x04\n      dup1\n      calldatasize\n      sub\n      dup2\n      add\n      swap1\n      tag_26\n      swap2\n      swap1\n      tag_27\n      jump\t// in\n    tag_26:\n      tag_28\n      jump\t// in\n    tag_25:\n      stop\n        /* \"contracts/7_Clase2Modulo2.sol\":117:139  string public lastName */\n    tag_7:\n      tag_29\n      tag_30\n      jump\t// in\n    tag_29:\n      mload(0x40)\n      tag_31\n      swap2\n      swap1\n      tag_15\n      jump\t// in\n    tag_31:\n      mload(0x40)\n      dup1\n      swap2\n      sub\n      swap1\n      return\n        /* \"contracts/7_Clase2Modulo2.sol\":631:807  function setName(string memory _name) onlyOwner public {        ... */\n    tag_8:\n      tag_32\n      0x04\n      dup1\n      calldatasize\n      sub\n      dup2\n      add\n      swap1\n      tag_33\n      swap2\n      swap1\n      tag_27\n      jump\t// in\n    tag_33:\n      tag_34\n      jump\t// in\n    tag_32:\n      stop\n        /* \"contracts/7_Clase2Modulo2.sol\":997:1143  function readNames(uint _index) checkArrayLength(names, _index) public view returns (string memory){        ... */\n    tag_9:\n      tag_35\n      0x04\n      dup1\n      calldatasize\n      sub\n      dup2\n      add\n      swap1\n      tag_36\n      swap2\n      swap1\n      tag_22\n      jump\t// in\n    tag_36:\n      tag_37\n      jump\t// in\n    tag_35:\n      mload(0x40)\n      tag_38\n      swap2\n      swap1\n      tag_15\n      jump\t// in\n    tag_38:\n      mload(0x40)\n      dup1\n      swap2\n      sub\n      swap1\n      return\n        /* \"contracts/7_Clase2Modulo2.sol\":1307:1509  function deleteLastElement() public returns(string[] memory){... */\n    tag_10:\n      tag_39\n      tag_40\n      jump\t// in\n    tag_39:\n      mload(0x40)\n      tag_41\n      swap2\n      swap1\n      tag_42\n      jump\t// in\n    tag_41:\n      mload(0x40)\n      dup1\n      swap2\n      sub\n      swap1\n      return\n        /* \"contracts/7_Clase2Modulo2.sol\":92:110  string public name */\n    tag_13:\n      0x00\n      dup1\n      sload\n      tag_43\n      swap1\n      tag_44\n      jump\t// in\n    tag_43:\n      dup1\n      0x1f\n      add\n      0x20\n      dup1\n      swap2\n      div\n      mul\n      0x20\n      add\n      mload(0x40)\n      swap1\n      dup2\n      add\n      0x40\n      mstore\n      dup1\n      swap3\n      swap2\n      swap1\n      dup2\n      dup2\n      mstore\n      0x20\n      add\n      dup3\n      dup1\n      sload\n      tag_45\n      swap1\n      tag_44\n      jump\t// in\n    tag_45:\n      dup1\n      iszero\n      tag_46\n      jumpi\n      dup1\n      0x1f\n      lt\n      tag_47\n      jumpi\n      0x0100\n      dup1\n      dup4\n      sload\n      div\n      mul\n      dup4\n      mstore\n      swap2\n      0x20\n      add\n      swap2\n      jump(tag_46)\n    tag_47:\n      dup3\n      add\n      swap2\n      swap1\n      0x00\n      mstore\n      keccak256(0x00, 0x20)\n      swap1\n    tag_48:\n      dup2\n      sload\n      dup2\n      mstore\n      swap1\n      0x01\n      add\n      swap1\n      0x20\n      add\n      dup1\n      dup4\n      gt\n      tag_48\n      jumpi\n      dup3\n      swap1\n      sub\n      0x1f\n      and\n      dup3\n      add\n      swap2\n    tag_46:\n      pop\n      pop\n      pop\n      pop\n      pop\n      dup2\n      jump\t// out\n        /* \"contracts/7_Clase2Modulo2.sol\":1151:1301  function editNameArray(uint _index, string memory _newName) checkArrayLength(names, _index) public {        ... */\n    tag_19:\n        /* \"contracts/7_Clase2Modulo2.sol\":1228:1233  names */\n      0x03\n        /* \"contracts/7_Clase2Modulo2.sol\":390:538  modifier checkArrayLength(string[] memory _array, uint _index) {... */\n      dup1\n      sload\n      dup1\n      0x20\n      mul\n      0x20\n      add\n      mload(0x40)\n      swap1\n      dup2\n      add\n      0x40\n      mstore\n      dup1\n      swap3\n      swap2\n      swap1\n      dup2\n      dup2\n      mstore\n      0x20\n      add\n      0x00\n      swap1\n    tag_49:\n      dup3\n      dup3\n      lt\n      iszero\n      tag_50\n      jumpi\n      dup4\n      dup3\n      swap1\n      0x00\n      mstore\n      keccak256(0x00, 0x20)\n      add\n      dup1\n      sload\n      tag_52\n      swap1\n      tag_44\n      jump\t// in\n    tag_52:\n      dup1\n      0x1f\n      add\n      0x20\n      dup1\n      swap2\n      div\n      mul\n      0x20\n      add\n      mload(0x40)\n      swap1\n      dup2\n      add\n      0x40\n      mstore\n      dup1\n      swap3\n      swap2\n      swap1\n      dup2\n      dup2\n      mstore\n      0x20\n      add\n      dup3\n      dup1\n      sload\n      tag_53\n      swap1\n      tag_44\n      jump\t// in\n    tag_53:\n      dup1\n      iszero\n      tag_54\n      jumpi\n      dup1\n      0x1f\n      lt\n      tag_55\n      jumpi\n      0x0100\n      dup1\n      dup4\n      sload\n      div\n      mul\n      dup4\n      mstore\n      swap2\n      0x20\n      add\n      swap2\n      jump(tag_54)\n    tag_55:\n      dup3\n      add\n      swap2\n      swap1\n      0x00\n      mstore\n      keccak256(0x00, 0x20)\n      swap1\n    tag_56:\n      dup2\n      sload\n      dup2\n      mstore\n      swap1\n      0x01\n      add\n      swap1\n      0x20\n      add\n      dup1\n      dup4\n      gt\n      tag_56\n      jumpi\n      dup3\n      swap1\n      sub\n      0x1f\n      and\n      dup3\n      add\n      swap2\n    tag_54:\n      pop\n      pop\n      pop\n      pop\n      pop\n      dup2\n      mstore\n      0x20\n      add\n      swap1\n      0x01\n      add\n      swap1\n      jump(tag_49)\n    tag_50:\n      pop\n      pop\n      pop\n      pop\n        /* \"contracts/7_Clase2Modulo2.sol\":1235:1241  _index */\n      dup3\n        /* \"contracts/7_Clase2Modulo2.sol\":481:487  _array */\n      dup2\n        /* \"contracts/7_Clase2Modulo2.sol\":481:494  _array.length */\n      mload\n        /* \"contracts/7_Clase2Modulo2.sol\":472:478  _index */\n      dup2\n        /* \"contracts/7_Clase2Modulo2.sol\":472:494  _index < _array.length */\n      lt\n        /* \"contracts/7_Clase2Modulo2.sol\":464:518  require(_index < _array.length, \"Index out of bounds\") */\n      tag_58\n      jumpi\n      mload(0x40)\n      0x08c379a000000000000000000000000000000000000000000000000000000000\n      dup2\n      mstore\n      0x04\n      add\n      tag_59\n      swap1\n      tag_60\n      jump\t// in\n    tag_59:\n      mload(0x40)\n      dup1\n      swap2\n      sub\n      swap1\n      revert\n    tag_58:\n        /* \"contracts/7_Clase2Modulo2.sol\":1285:1293  _newName */\n      dup3\n        /* \"contracts/7_Clase2Modulo2.sol\":1269:1274  names */\n      0x03\n        /* \"contracts/7_Clase2Modulo2.sol\":1275:1281  _index */\n      dup6\n        /* \"contracts/7_Clase2Modulo2.sol\":1269:1282  names[_index] */\n      dup2\n      sload\n      dup2\n      lt\n      tag_62\n      jumpi\n      tag_63\n      tag_64\n      jump\t// in\n    tag_63:\n    tag_62:\n      swap1\n      0x00\n      mstore\n      keccak256(0x00, 0x20)\n      add\n        /* \"contracts/7_Clase2Modulo2.sol\":1269:1293  names[_index] = _newName */\n      swap1\n      dup2\n      tag_66\n      swap2\n      swap1\n      tag_67\n      jump\t// in\n    tag_66:\n      pop\n        /* \"contracts/7_Clase2Modulo2.sol\":1151:1301  function editNameArray(uint _index, string memory _newName) checkArrayLength(names, _index) public {        ... */\n      pop\n      pop\n      pop\n      pop\n      jump\t// out\n        /* \"contracts/7_Clase2Modulo2.sol\":174:195  string[] public names */\n    tag_23:\n      0x03\n      dup2\n      dup2\n      sload\n      dup2\n      lt\n      tag_68\n      jumpi\n      0x00\n      dup1\n      revert\n    tag_68:\n      swap1\n      0x00\n      mstore\n      keccak256(0x00, 0x20)\n      add\n      0x00\n      swap2\n      pop\n      swap1\n      pop\n      dup1\n      sload\n      tag_70\n      swap1\n      tag_44\n      jump\t// in\n    tag_70:\n      dup1\n      0x1f\n      add\n      0x20\n      dup1\n      swap2\n      div\n      mul\n      0x20\n      add\n      mload(0x40)\n      swap1\n      dup2\n      add\n      0x40\n      mstore\n      dup1\n      swap3\n      swap2\n      swap1\n      dup2\n      dup2\n      mstore\n      0x20\n      add\n      dup3\n      dup1\n      sload\n      tag_71\n      swap1\n      tag_44\n      jump\t// in\n    tag_71:\n      dup1\n      iszero\n      tag_72\n      jumpi\n      dup1\n      0x1f\n      lt\n      tag_73\n      jumpi\n      0x0100\n      dup1\n      dup4\n      sload\n      div\n      mul\n      dup4\n      mstore\n      swap2\n      0x20\n      add\n      swap2\n      jump(tag_72)\n    tag_73:\n      dup3\n      add\n      swap2\n      swap1\n      0x00\n      mstore\n      keccak256(0x00, 0x20)\n      swap1\n    tag_74:\n      dup2\n      sload\n      dup2\n      mstore\n      swap1\n      0x01\n      add\n      swap1\n      0x20\n      add\n      dup1\n      dup4\n      gt\n      tag_74\n      jumpi\n      dup3\n      swap1\n      sub\n      0x1f\n      and\n      dup3\n      add\n      swap2\n    tag_72:\n      pop\n      pop\n      pop\n      pop\n      pop\n      dup2\n      jump\t// out\n        /* \"contracts/7_Clase2Modulo2.sol\":815:989  function setLastName(string memory _lastName) onlyOwner public {        ... */\n    tag_28:\n        /* \"contracts/7_Clase2Modulo2.sol\":309:319  msg.sender */\n      caller\n        /* \"contracts/7_Clase2Modulo2.sol\":300:319  owner == msg.sender */\n      0xffffffffffffffffffffffffffffffffffffffff\n      and\n        /* \"contracts/7_Clase2Modulo2.sol\":300:305  owner */\n      0x02\n      0x00\n      swap1\n      sload\n      swap1\n      0x0100\n      exp\n      swap1\n      div\n      0xffffffffffffffffffffffffffffffffffffffff\n      and\n        /* \"contracts/7_Clase2Modulo2.sol\":300:319  owner == msg.sender */\n      0xffffffffffffffffffffffffffffffffffffffff\n      and\n      eq\n        /* \"contracts/7_Clase2Modulo2.sol\":292:362  require(owner == msg.sender, \"Only the owner can modify the contract\") */\n      tag_76\n      jumpi\n      mload(0x40)\n      0x08c379a000000000000000000000000000000000000000000000000000000000\n      dup2\n      mstore\n      0x04\n      add\n      tag_77\n      swap1\n      tag_78\n      jump\t// in\n    tag_77:\n      mload(0x40)\n      dup1\n      swap2\n      sub\n      swap1\n      revert\n    tag_76:\n        /* \"contracts/7_Clase2Modulo2.sol\":902:950  DataModified(msg.sender, \"Last Name\", _lastName) */\n      mload(0x40)\n      tag_80\n      swap1\n      tag_81\n      jump\t// in\n    tag_80:\n      mload(0x40)\n      dup1\n      swap2\n      sub\n      swap1\n      keccak256\n        /* \"contracts/7_Clase2Modulo2.sol\":915:925  msg.sender */\n      caller\n        /* \"contracts/7_Clase2Modulo2.sol\":902:950  DataModified(msg.sender, \"Last Name\", _lastName) */\n      0xffffffffffffffffffffffffffffffffffffffff\n      and\n      0xde4389d0e2b82c1da27da351a07c61a1c281a257dd810bc7fad7e95a2fffd0d2\n        /* \"contracts/7_Clase2Modulo2.sol\":940:949  _lastName */\n      dup4\n        /* \"contracts/7_Clase2Modulo2.sol\":902:950  DataModified(msg.sender, \"Last Name\", _lastName) */\n      mload(0x40)\n      tag_82\n      swap2\n      swap1\n      tag_15\n      jump\t// in\n    tag_82:\n      mload(0x40)\n      dup1\n      swap2\n      sub\n      swap1\n      log3\n        /* \"contracts/7_Clase2Modulo2.sol\":972:981  _lastName */\n      dup1\n        /* \"contracts/7_Clase2Modulo2.sol\":961:969  lastName */\n      0x01\n        /* \"contracts/7_Clase2Modulo2.sol\":961:981  lastName = _lastName */\n      swap1\n      dup2\n      tag_83\n      swap2\n      swap1\n      tag_67\n      jump\t// in\n    tag_83:\n      pop\n        /* \"contracts/7_Clase2Modulo2.sol\":815:989  function setLastName(string memory _lastName) onlyOwner public {        ... */\n      pop\n      jump\t// out\n        /* \"contracts/7_Clase2Modulo2.sol\":117:139  string public lastName */\n    tag_30:\n      0x01\n      dup1\n      sload\n      tag_84\n      swap1\n      tag_44\n      jump\t// in\n    tag_84:\n      dup1\n      0x1f\n      add\n      0x20\n      dup1\n      swap2\n      div\n      mul\n      0x20\n      add\n      mload(0x40)\n      swap1\n      dup2\n      add\n      0x40\n      mstore\n      dup1\n      swap3\n      swap2\n      swap1\n      dup2\n      dup2\n      mstore\n      0x20\n      add\n      dup3\n      dup1\n      sload\n      tag_85\n      swap1\n      tag_44\n      jump\t// in\n    tag_85:\n      dup1\n      iszero\n      tag_86\n      jumpi\n      dup1\n      0x1f\n      lt\n      tag_87\n      jumpi\n      0x0100\n      dup1\n      dup4\n      sload\n      div\n      mul\n      dup4\n      mstore\n      swap2\n      0x20\n      add\n      swap2\n      jump(tag_86)\n    tag_87:\n      dup3\n      add\n      swap2\n      swap1\n      0x00\n      mstore\n      keccak256(0x00, 0x20)\n      swap1\n    tag_88:\n      dup2\n      sload\n      dup2\n      mstore\n      swap1\n      0x01\n      add\n      swap1\n      0x20\n      add\n      dup1\n      dup4\n      gt\n      tag_88\n      jumpi\n      dup3\n      swap1\n      sub\n      0x1f\n      and\n      dup3\n      add\n      swap2\n    tag_86:\n      pop\n      pop\n      pop\n      pop\n      pop\n      dup2\n      jump\t// out\n        /* \"contracts/7_Clase2Modulo2.sol\":631:807  function setName(string memory _name) onlyOwner public {        ... */\n    tag_34:\n        /* \"contracts/7_Clase2Modulo2.sol\":309:319  msg.sender */\n      caller\n        /* \"contracts/7_Clase2Modulo2.sol\":300:319  owner == msg.sender */\n      0xffffffffffffffffffffffffffffffffffffffff\n      and\n        /* \"contracts/7_Clase2Modulo2.sol\":300:305  owner */\n      0x02\n      0x00\n      swap1\n      sload\n      swap1\n      0x0100\n      exp\n      swap1\n      div\n      0xffffffffffffffffffffffffffffffffffffffff\n      and\n        /* \"contracts/7_Clase2Modulo2.sol\":300:319  owner == msg.sender */\n      0xffffffffffffffffffffffffffffffffffffffff\n      and\n      eq\n        /* \"contracts/7_Clase2Modulo2.sol\":292:362  require(owner == msg.sender, \"Only the owner can modify the contract\") */\n      tag_90\n      jumpi\n      mload(0x40)\n      0x08c379a000000000000000000000000000000000000000000000000000000000\n      dup2\n      mstore\n      0x04\n      add\n      tag_91\n      swap1\n      tag_78\n      jump\t// in\n    tag_91:\n      mload(0x40)\n      dup1\n      swap2\n      sub\n      swap1\n      revert\n    tag_90:\n        /* \"contracts/7_Clase2Modulo2.sol\":710:749  DataModified(msg.sender, \"Name\", _name) */\n      mload(0x40)\n      tag_93\n      swap1\n      tag_94\n      jump\t// in\n    tag_93:\n      mload(0x40)\n      dup1\n      swap2\n      sub\n      swap1\n      keccak256\n        /* \"contracts/7_Clase2Modulo2.sol\":723:733  msg.sender */\n      caller\n        /* \"contracts/7_Clase2Modulo2.sol\":710:749  DataModified(msg.sender, \"Name\", _name) */\n      0xffffffffffffffffffffffffffffffffffffffff\n      and\n      0xde4389d0e2b82c1da27da351a07c61a1c281a257dd810bc7fad7e95a2fffd0d2\n        /* \"contracts/7_Clase2Modulo2.sol\":743:748  _name */\n      dup4\n        /* \"contracts/7_Clase2Modulo2.sol\":710:749  DataModified(msg.sender, \"Name\", _name) */\n      mload(0x40)\n      tag_95\n      swap2\n      swap1\n      tag_15\n      jump\t// in\n    tag_95:\n      mload(0x40)\n      dup1\n      swap2\n      sub\n      swap1\n      log3\n        /* \"contracts/7_Clase2Modulo2.sol\":767:772  _name */\n      dup1\n        /* \"contracts/7_Clase2Modulo2.sol\":760:764  name */\n      0x00\n        /* \"contracts/7_Clase2Modulo2.sol\":760:772  name = _name */\n      swap1\n      dup2\n      tag_96\n      swap2\n      swap1\n      tag_67\n      jump\t// in\n    tag_96:\n      pop\n        /* \"contracts/7_Clase2Modulo2.sol\":783:788  names */\n      0x03\n        /* \"contracts/7_Clase2Modulo2.sol\":794:798  name */\n      0x00\n        /* \"contracts/7_Clase2Modulo2.sol\":783:799  names.push(name) */\n      swap1\n      dup1\n      0x01\n      dup2\n      sload\n      add\n      dup1\n      dup3\n      sstore\n      dup1\n      swap2\n      pop\n      pop\n      0x01\n      swap1\n      sub\n      swap1\n      0x00\n      mstore\n      keccak256(0x00, 0x20)\n      add\n      0x00\n      swap1\n      swap2\n      swap1\n      swap2\n      swap1\n      swap2\n      pop\n      swap1\n      dup2\n      tag_98\n      swap2\n      swap1\n      tag_99\n      jump\t// in\n    tag_98:\n      pop\n        /* \"contracts/7_Clase2Modulo2.sol\":631:807  function setName(string memory _name) onlyOwner public {        ... */\n      pop\n      jump\t// out\n        /* \"contracts/7_Clase2Modulo2.sol\":997:1143  function readNames(uint _index) checkArrayLength(names, _index) public view returns (string memory){        ... */\n    tag_37:\n        /* \"contracts/7_Clase2Modulo2.sol\":1082:1095  string memory */\n      0x60\n        /* \"contracts/7_Clase2Modulo2.sol\":1046:1051  names */\n      0x03\n        /* \"contracts/7_Clase2Modulo2.sol\":390:538  modifier checkArrayLength(string[] memory _array, uint _index) {... */\n      dup1\n      sload\n      dup1\n      0x20\n      mul\n      0x20\n      add\n      mload(0x40)\n      swap1\n      dup2\n      add\n      0x40\n      mstore\n      dup1\n      swap3\n      swap2\n      swap1\n      dup2\n      dup2\n      mstore\n      0x20\n      add\n      0x00\n      swap1\n    tag_100:\n      dup3\n      dup3\n      lt\n      iszero\n      tag_101\n      jumpi\n      dup4\n      dup3\n      swap1\n      0x00\n      mstore\n      keccak256(0x00, 0x20)\n      add\n      dup1\n      sload\n      tag_103\n      swap1\n      tag_44\n      jump\t// in\n    tag_103:\n      dup1\n      0x1f\n      add\n      0x20\n      dup1\n      swap2\n      div\n      mul\n      0x20\n      add\n      mload(0x40)\n      swap1\n      dup2\n      add\n      0x40\n      mstore\n      dup1\n      swap3\n      swap2\n      swap1\n      dup2\n      dup2\n      mstore\n      0x20\n      add\n      dup3\n      dup1\n      sload\n      tag_104\n      swap1\n      tag_44\n      jump\t// in\n    tag_104:\n      dup1\n      iszero\n      tag_105\n      jumpi\n      dup1\n      0x1f\n      lt\n      tag_106\n      jumpi\n      0x0100\n      dup1\n      dup4\n      sload\n      div\n      mul\n      dup4\n      mstore\n      swap2\n      0x20\n      add\n      swap2\n      jump(tag_105)\n    tag_106:\n      dup3\n      add\n      swap2\n      swap1\n      0x00\n      mstore\n      keccak256(0x00, 0x20)\n      swap1\n    tag_107:\n      dup2\n      sload\n      dup2\n      mstore\n      swap1\n      0x01\n      add\n      swap1\n      0x20\n      add\n      dup1\n      dup4\n      gt\n      tag_107\n      jumpi\n      dup3\n      swap1\n      sub\n      0x1f\n      and\n      dup3\n      add\n      swap2\n    tag_105:\n      pop\n      pop\n      pop\n      pop\n      pop\n      dup2\n      mstore\n      0x20\n      add\n      swap1\n      0x01\n      add\n      swap1\n      jump(tag_100)\n    tag_101:\n      pop\n      pop\n      pop\n      pop\n        /* \"contracts/7_Clase2Modulo2.sol\":1053:1059  _index */\n      dup3\n        /* \"contracts/7_Clase2Modulo2.sol\":481:487  _array */\n      dup2\n        /* \"contracts/7_Clase2Modulo2.sol\":481:494  _array.length */\n      mload\n        /* \"contracts/7_Clase2Modulo2.sol\":472:478  _index */\n      dup2\n        /* \"contracts/7_Clase2Modulo2.sol\":472:494  _index < _array.length */\n      lt\n        /* \"contracts/7_Clase2Modulo2.sol\":464:518  require(_index < _array.length, \"Index out of bounds\") */\n      tag_109\n      jumpi\n      mload(0x40)\n      0x08c379a000000000000000000000000000000000000000000000000000000000\n      dup2\n      mstore\n      0x04\n      add\n      tag_110\n      swap1\n      tag_60\n      jump\t// in\n    tag_110:\n      mload(0x40)\n      dup1\n      swap2\n      sub\n      swap1\n      revert\n    tag_109:\n        /* \"contracts/7_Clase2Modulo2.sol\":1122:1127  names */\n      0x03\n        /* \"contracts/7_Clase2Modulo2.sol\":1128:1134  _index */\n      dup5\n        /* \"contracts/7_Clase2Modulo2.sol\":1122:1135  names[_index] */\n      dup2\n      sload\n      dup2\n      lt\n      tag_112\n      jumpi\n      tag_113\n      tag_64\n      jump\t// in\n    tag_113:\n    tag_112:\n      swap1\n      0x00\n      mstore\n      keccak256(0x00, 0x20)\n      add\n        /* \"contracts/7_Clase2Modulo2.sol\":1115:1135  return names[_index] */\n      dup1\n      sload\n      tag_115\n      swap1\n      tag_44\n      jump\t// in\n    tag_115:\n      dup1\n      0x1f\n      add\n      0x20\n      dup1\n      swap2\n      div\n      mul\n      0x20\n      add\n      mload(0x40)\n      swap1\n      dup2\n      add\n      0x40\n      mstore\n      dup1\n      swap3\n      swap2\n      swap1\n      dup2\n      dup2\n      mstore\n      0x20\n      add\n      dup3\n      dup1\n      sload\n      tag_116\n      swap1\n      tag_44\n      jump\t// in\n    tag_116:\n      dup1\n      iszero\n      tag_117\n      jumpi\n      dup1\n      0x1f\n      lt\n      tag_118\n      jumpi\n      0x0100\n      dup1\n      dup4\n      sload\n      div\n      mul\n      dup4\n      mstore\n      swap2\n      0x20\n      add\n      swap2\n      jump(tag_117)\n    tag_118:\n      dup3\n      add\n      swap2\n      swap1\n      0x00\n      mstore\n      keccak256(0x00, 0x20)\n      swap1\n    tag_119:\n      dup2\n      sload\n      dup2\n      mstore\n      swap1\n      0x01\n      add\n      swap1\n      0x20\n      add\n      dup1\n      dup4\n      gt\n      tag_119\n      jumpi\n      dup3\n      swap1\n      sub\n      0x1f\n      and\n      dup3\n      add\n      swap2\n    tag_117:\n      pop\n      pop\n      pop\n      pop\n      pop\n      swap3\n      pop\n        /* \"contracts/7_Clase2Modulo2.sol\":997:1143  function readNames(uint _index) checkArrayLength(names, _index) public view returns (string memory){        ... */\n      pop\n      pop\n      swap2\n      swap1\n      pop\n      jump\t// out\n        /* \"contracts/7_Clase2Modulo2.sol\":1307:1509  function deleteLastElement() public returns(string[] memory){... */\n    tag_40:\n        /* \"contracts/7_Clase2Modulo2.sol\":1351:1366  string[] memory */\n      0x60\n        /* \"contracts/7_Clase2Modulo2.sol\":1383:1453  DataModified(msg.sender, \"deleteLastElement\", names[names.length - 1]) */\n      mload(0x40)\n      tag_121\n      swap1\n      tag_122\n      jump\t// in\n    tag_121:\n      mload(0x40)\n      dup1\n      swap2\n      sub\n      swap1\n      keccak256\n        /* \"contracts/7_Clase2Modulo2.sol\":1396:1406  msg.sender */\n      caller\n        /* \"contracts/7_Clase2Modulo2.sol\":1383:1453  DataModified(msg.sender, \"deleteLastElement\", names[names.length - 1]) */\n      0xffffffffffffffffffffffffffffffffffffffff\n      and\n      0xde4389d0e2b82c1da27da351a07c61a1c281a257dd810bc7fad7e95a2fffd0d2\n        /* \"contracts/7_Clase2Modulo2.sol\":1429:1434  names */\n      0x03\n        /* \"contracts/7_Clase2Modulo2.sol\":1450:1451  1 */\n      0x01\n        /* \"contracts/7_Clase2Modulo2.sol\":1435:1440  names */\n      0x03\n        /* \"contracts/7_Clase2Modulo2.sol\":1435:1447  names.length */\n      dup1\n      sload\n      swap1\n      pop\n        /* \"contracts/7_Clase2Modulo2.sol\":1435:1451  names.length - 1 */\n      tag_123\n      swap2\n      swap1\n      tag_124\n      jump\t// in\n    tag_123:\n        /* \"contracts/7_Clase2Modulo2.sol\":1429:1452  names[names.length - 1] */\n      dup2\n      sload\n      dup2\n      lt\n      tag_125\n      jumpi\n      tag_126\n      tag_64\n      jump\t// in\n    tag_126:\n    tag_125:\n      swap1\n      0x00\n      mstore\n      keccak256(0x00, 0x20)\n      add\n        /* \"contracts/7_Clase2Modulo2.sol\":1383:1453  DataModified(msg.sender, \"deleteLastElement\", names[names.length - 1]) */\n      mload(0x40)\n      tag_128\n      swap2\n      swap1\n      tag_129\n      jump\t// in\n    tag_128:\n      mload(0x40)\n      dup1\n      swap2\n      sub\n      swap1\n      log3\n        /* \"contracts/7_Clase2Modulo2.sol\":1464:1469  names */\n      0x03\n        /* \"contracts/7_Clase2Modulo2.sol\":1464:1475  names.pop() */\n      dup1\n      sload\n      dup1\n      tag_130\n      jumpi\n      tag_131\n      tag_132\n      jump\t// in\n    tag_131:\n    tag_130:\n      0x01\n      swap1\n      sub\n      dup2\n      dup2\n      swap1\n      0x00\n      mstore\n      keccak256(0x00, 0x20)\n      add\n      0x00\n      tag_134\n      swap2\n      swap1\n      tag_135\n      jump\t// in\n    tag_134:\n      swap1\n      sstore\n        /* \"contracts/7_Clase2Modulo2.sol\":1494:1499  names */\n      0x03\n        /* \"contracts/7_Clase2Modulo2.sol\":1487:1499  return names */\n      dup1\n      sload\n      dup1\n      0x20\n      mul\n      0x20\n      add\n      mload(0x40)\n      swap1\n      dup2\n      add\n      0x40\n      mstore\n      dup1\n      swap3\n      swap2\n      swap1\n      dup2\n      dup2\n      mstore\n      0x20\n      add\n      0x00\n      swap1\n    tag_136:\n      dup3\n      dup3\n      lt\n      iszero\n      tag_137\n      jumpi\n      dup4\n      dup3\n      swap1\n      0x00\n      mstore\n      keccak256(0x00, 0x20)\n      add\n      dup1\n      sload\n      tag_139\n      swap1\n      tag_44\n      jump\t// in\n    tag_139:\n      dup1\n      0x1f\n      add\n      0x20\n      dup1\n      swap2\n      div\n      mul\n      0x20\n      add\n      mload(0x40)\n      swap1\n      dup2\n      add\n      0x40\n      mstore\n      dup1\n      swap3\n      swap2\n      swap1\n      dup2\n      dup2\n      mstore\n      0x20\n      add\n      dup3\n      dup1\n      sload\n      tag_140\n      swap1\n      tag_44\n      jump\t// in\n    tag_140:\n      dup1\n      iszero\n      tag_141\n      jumpi\n      dup1\n      0x1f\n      lt\n      tag_142\n      jumpi\n      0x0100\n      dup1\n      dup4\n      sload\n      div\n      mul\n      dup4\n      mstore\n      swap2\n      0x20\n      add\n      swap2\n      jump(tag_141)\n    tag_142:\n      dup3\n      add\n      swap2\n      swap1\n      0x00\n      mstore\n      keccak256(0x00, 0x20)\n      swap1\n    tag_143:\n      dup2\n      sload\n      dup2\n      mstore\n      swap1\n      0x01\n      add\n      swap1\n      0x20\n      add\n      dup1\n      dup4\n      gt\n      tag_143\n      jumpi\n      dup3\n      swap1\n      sub\n      0x1f\n      and\n      dup3\n      add\n      swap2\n    tag_141:\n      pop\n      pop\n      pop\n      pop\n      pop\n      dup2\n      mstore\n      0x20\n      add\n      swap1\n      0x01\n      add\n      swap1\n      jump(tag_136)\n    tag_137:\n      pop\n      pop\n      pop\n      pop\n      swap1\n      pop\n        /* \"contracts/7_Clase2Modulo2.sol\":1307:1509  function deleteLastElement() public returns(string[] memory){... */\n      swap1\n      jump\t// out\n    tag_135:\n      pop\n      dup1\n      sload\n      tag_144\n      swap1\n      tag_44\n      jump\t// in\n    tag_144:\n      0x00\n      dup3\n      sstore\n      dup1\n      0x1f\n      lt\n      tag_146\n      jumpi\n      pop\n      jump(tag_145)\n    tag_146:\n      0x1f\n      add\n      0x20\n      swap1\n      div\n      swap1\n      0x00\n      mstore\n      keccak256(0x00, 0x20)\n      swap1\n      dup2\n      add\n      swap1\n      tag_147\n      swap2\n      swap1\n      tag_148\n      jump\t// in\n    tag_147:\n    tag_145:\n      pop\n      jump\t// out\n    tag_148:\n    tag_149:\n      dup1\n      dup3\n      gt\n      iszero\n      tag_150\n      jumpi\n      0x00\n      dup2\n      0x00\n      swap1\n      sstore\n      pop\n      0x01\n      add\n      jump(tag_149)\n    tag_150:\n      pop\n      swap1\n      jump\t// out\n        /* \"#utility.yul\":7:106   */\n    tag_151:\n        /* \"#utility.yul\":59:65   */\n      0x00\n        /* \"#utility.yul\":93:98   */\n      dup2\n        /* \"#utility.yul\":87:99   */\n      mload\n        /* \"#utility.yul\":77:99   */\n      swap1\n      pop\n        /* \"#utility.yul\":7:106   */\n      swap2\n      swap1\n      pop\n      jump\t// out\n        /* \"#utility.yul\":112:281   */\n    tag_152:\n        /* \"#utility.yul\":196:207   */\n      0x00\n        /* \"#utility.yul\":230:236   */\n      dup3\n        /* \"#utility.yul\":225:228   */\n      dup3\n        /* \"#utility.yul\":218:237   */\n      mstore\n        /* \"#utility.yul\":270:274   */\n      0x20\n        /* \"#utility.yul\":265:268   */\n      dup3\n        /* \"#utility.yul\":261:275   */\n      add\n        /* \"#utility.yul\":246:275   */\n      swap1\n      pop\n        /* \"#utility.yul\":112:281   */\n      swap3\n      swap2\n      pop\n      pop\n      jump\t// out\n        /* \"#utility.yul\":287:426   */\n    tag_153:\n        /* \"#utility.yul\":376:382   */\n      dup3\n        /* \"#utility.yul\":371:374   */\n      dup2\n        /* \"#utility.yul\":366:369   */\n      dup4\n        /* \"#utility.yul\":360:383   */\n      mcopy\n        /* \"#utility.yul\":417:418   */\n      0x00\n        /* \"#utility.yul\":408:414   */\n      dup4\n        /* \"#utility.yul\":403:406   */\n      dup4\n        /* \"#utility.yul\":399:415   */\n      add\n        /* \"#utility.yul\":392:419   */\n      mstore\n        /* \"#utility.yul\":287:426   */\n      pop\n      pop\n      pop\n      jump\t// out\n        /* \"#utility.yul\":432:534   */\n    tag_154:\n        /* \"#utility.yul\":473:479   */\n      0x00\n        /* \"#utility.yul\":524:526   */\n      0x1f\n        /* \"#utility.yul\":520:527   */\n      not\n        /* \"#utility.yul\":515:517   */\n      0x1f\n        /* \"#utility.yul\":508:513   */\n      dup4\n        /* \"#utility.yul\":504:518   */\n      add\n        /* \"#utility.yul\":500:528   */\n      and\n        /* \"#utility.yul\":490:528   */\n      swap1\n      pop\n        /* \"#utility.yul\":432:534   */\n      swap2\n      swap1\n      pop\n      jump\t// out\n        /* \"#utility.yul\":540:917   */\n    tag_155:\n        /* \"#utility.yul\":628:631   */\n      0x00\n        /* \"#utility.yul\":656:695   */\n      tag_216\n        /* \"#utility.yul\":689:694   */\n      dup3\n        /* \"#utility.yul\":656:695   */\n      tag_151\n      jump\t// in\n    tag_216:\n        /* \"#utility.yul\":711:782   */\n      tag_217\n        /* \"#utility.yul\":775:781   */\n      dup2\n        /* \"#utility.yul\":770:773   */\n      dup6\n        /* \"#utility.yul\":711:782   */\n      tag_152\n      jump\t// in\n    tag_217:\n        /* \"#utility.yul\":704:782   */\n      swap4\n      pop\n        /* \"#utility.yul\":791:856   */\n      tag_218\n        /* \"#utility.yul\":849:855   */\n      dup2\n        /* \"#utility.yul\":844:847   */\n      dup6\n        /* \"#utility.yul\":837:841   */\n      0x20\n        /* \"#utility.yul\":830:835   */\n      dup7\n        /* \"#utility.yul\":826:842   */\n      add\n        /* \"#utility.yul\":791:856   */\n      tag_153\n      jump\t// in\n    tag_218:\n        /* \"#utility.yul\":881:910   */\n      tag_219\n        /* \"#utility.yul\":903:909   */\n      dup2\n        /* \"#utility.yul\":881:910   */\n      tag_154\n      jump\t// in\n    tag_219:\n        /* \"#utility.yul\":876:879   */\n      dup5\n        /* \"#utility.yul\":872:911   */\n      add\n        /* \"#utility.yul\":865:911   */\n      swap2\n      pop\n        /* \"#utility.yul\":632:917   */\n      pop\n        /* \"#utility.yul\":540:917   */\n      swap3\n      swap2\n      pop\n      pop\n      jump\t// out\n        /* \"#utility.yul\":923:1236   */\n    tag_15:\n        /* \"#utility.yul\":1036:1040   */\n      0x00\n        /* \"#utility.yul\":1074:1076   */\n      0x20\n        /* \"#utility.yul\":1063:1072   */\n      dup3\n        /* \"#utility.yul\":1059:1077   */\n      add\n        /* \"#utility.yul\":1051:1077   */\n      swap1\n      pop\n        /* \"#utility.yul\":1123:1132   */\n      dup2\n        /* \"#utility.yul\":1117:1121   */\n      dup2\n        /* \"#utility.yul\":1113:1133   */\n      sub\n        /* \"#utility.yul\":1109:1110   */\n      0x00\n        /* \"#utility.yul\":1098:1107   */\n      dup4\n        /* \"#utility.yul\":1094:1111   */\n      add\n        /* \"#utility.yul\":1087:1134   */\n      mstore\n        /* \"#utility.yul\":1151:1229   */\n      tag_221\n        /* \"#utility.yul\":1224:1228   */\n      dup2\n        /* \"#utility.yul\":1215:1221   */\n      dup5\n        /* \"#utility.yul\":1151:1229   */\n      tag_155\n      jump\t// in\n    tag_221:\n        /* \"#utility.yul\":1143:1229   */\n      swap1\n      pop\n        /* \"#utility.yul\":923:1236   */\n      swap3\n      swap2\n      pop\n      pop\n      jump\t// out\n        /* \"#utility.yul\":1242:1317   */\n    tag_156:\n        /* \"#utility.yul\":1275:1281   */\n      0x00\n        /* \"#utility.yul\":1308:1310   */\n      0x40\n        /* \"#utility.yul\":1302:1311   */\n      mload\n        /* \"#utility.yul\":1292:1311   */\n      swap1\n      pop\n        /* \"#utility.yul\":1242:1317   */\n      swap1\n      jump\t// out\n        /* \"#utility.yul\":1323:1440   */\n    tag_157:\n        /* \"#utility.yul\":1432:1433   */\n      0x00\n        /* \"#utility.yul\":1429:1430   */\n      dup1\n        /* \"#utility.yul\":1422:1434   */\n      revert\n        /* \"#utility.yul\":1446:1563   */\n    tag_158:\n        /* \"#utility.yul\":1555:1556   */\n      0x00\n        /* \"#utility.yul\":1552:1553   */\n      dup1\n        /* \"#utility.yul\":1545:1557   */\n      revert\n        /* \"#utility.yul\":1569:1646   */\n    tag_159:\n        /* \"#utility.yul\":1606:1613   */\n      0x00\n        /* \"#utility.yul\":1635:1640   */\n      dup2\n        /* \"#utility.yul\":1624:1640   */\n      swap1\n      pop\n        /* \"#utility.yul\":1569:1646   */\n      swap2\n      swap1\n      pop\n      jump\t// out\n        /* \"#utility.yul\":1652:1774   */\n    tag_160:\n        /* \"#utility.yul\":1725:1749   */\n      tag_227\n        /* \"#utility.yul\":1743:1748   */\n      dup2\n        /* \"#utility.yul\":1725:1749   */\n      tag_159\n      jump\t// in\n    tag_227:\n        /* \"#utility.yul\":1718:1723   */\n      dup2\n        /* \"#utility.yul\":1715:1750   */\n      eq\n        /* \"#utility.yul\":1705:1768   */\n      tag_228\n      jumpi\n        /* \"#utility.yul\":1764:1765   */\n      0x00\n        /* \"#utility.yul\":1761:1762   */\n      dup1\n        /* \"#utility.yul\":1754:1766   */\n      revert\n        /* \"#utility.yul\":1705:1768   */\n    tag_228:\n        /* \"#utility.yul\":1652:1774   */\n      pop\n      jump\t// out\n        /* \"#utility.yul\":1780:1919   */\n    tag_161:\n        /* \"#utility.yul\":1826:1831   */\n      0x00\n        /* \"#utility.yul\":1864:1870   */\n      dup2\n        /* \"#utility.yul\":1851:1871   */\n      calldataload\n        /* \"#utility.yul\":1842:1871   */\n      swap1\n      pop\n        /* \"#utility.yul\":1880:1913   */\n      tag_230\n        /* \"#utility.yul\":1907:1912   */\n      dup2\n        /* \"#utility.yul\":1880:1913   */\n      tag_160\n      jump\t// in\n    tag_230:\n        /* \"#utility.yul\":1780:1919   */\n      swap3\n      swap2\n      pop\n      pop\n      jump\t// out\n        /* \"#utility.yul\":1925:2042   */\n    tag_162:\n        /* \"#utility.yul\":2034:2035   */\n      0x00\n        /* \"#utility.yul\":2031:2032   */\n      dup1\n        /* \"#utility.yul\":2024:2036   */\n      revert\n        /* \"#utility.yul\":2048:2165   */\n    tag_163:\n        /* \"#utility.yul\":2157:2158   */\n      0x00\n        /* \"#utility.yul\":2154:2155   */\n      dup1\n        /* \"#utility.yul\":2147:2159   */\n      revert\n        /* \"#utility.yul\":2171:2351   */\n    tag_164:\n        /* \"#utility.yul\":2219:2296   */\n      0x4e487b7100000000000000000000000000000000000000000000000000000000\n        /* \"#utility.yul\":2216:2217   */\n      0x00\n        /* \"#utility.yul\":2209:2297   */\n      mstore\n        /* \"#utility.yul\":2316:2320   */\n      0x41\n        /* \"#utility.yul\":2313:2314   */\n      0x04\n        /* \"#utility.yul\":2306:2321   */\n      mstore\n        /* \"#utility.yul\":2340:2344   */\n      0x24\n        /* \"#utility.yul\":2337:2338   */\n      0x00\n        /* \"#utility.yul\":2330:2345   */\n      revert\n        /* \"#utility.yul\":2357:2638   */\n    tag_165:\n        /* \"#utility.yul\":2440:2467   */\n      tag_235\n        /* \"#utility.yul\":2462:2466   */\n      dup3\n        /* \"#utility.yul\":2440:2467   */\n      tag_154\n      jump\t// in\n    tag_235:\n        /* \"#utility.yul\":2432:2438   */\n      dup2\n        /* \"#utility.yul\":2428:2468   */\n      add\n        /* \"#utility.yul\":2570:2576   */\n      dup2\n        /* \"#utility.yul\":2558:2568   */\n      dup2\n        /* \"#utility.yul\":2555:2577   */\n      lt\n        /* \"#utility.yul\":2534:2552   */\n      0xffffffffffffffff\n        /* \"#utility.yul\":2522:2532   */\n      dup3\n        /* \"#utility.yul\":2519:2553   */\n      gt\n        /* \"#utility.yul\":2516:2578   */\n      or\n        /* \"#utility.yul\":2513:2601   */\n      iszero\n      tag_236\n      jumpi\n        /* \"#utility.yul\":2581:2599   */\n      tag_237\n      tag_164\n      jump\t// in\n    tag_237:\n        /* \"#utility.yul\":2513:2601   */\n    tag_236:\n        /* \"#utility.yul\":2621:2631   */\n      dup1\n        /* \"#utility.yul\":2617:2619   */\n      0x40\n        /* \"#utility.yul\":2610:2632   */\n      mstore\n        /* \"#utility.yul\":2400:2638   */\n      pop\n        /* \"#utility.yul\":2357:2638   */\n      pop\n      pop\n      jump\t// out\n        /* \"#utility.yul\":2644:2773   */\n    tag_166:\n        /* \"#utility.yul\":2678:2684   */\n      0x00\n        /* \"#utility.yul\":2705:2725   */\n      tag_239\n      tag_156\n      jump\t// in\n    tag_239:\n        /* \"#utility.yul\":2695:2725   */\n      swap1\n      pop\n        /* \"#utility.yul\":2734:2767   */\n      tag_240\n        /* \"#utility.yul\":2762:2766   */\n      dup3\n        /* \"#utility.yul\":2754:2760   */\n      dup3\n        /* \"#utility.yul\":2734:2767   */\n      tag_165\n      jump\t// in\n    tag_240:\n        /* \"#utility.yul\":2644:2773   */\n      swap2\n      swap1\n      pop\n      jump\t// out\n        /* \"#utility.yul\":2779:3087   */\n    tag_167:\n        /* \"#utility.yul\":2841:2845   */\n      0x00\n        /* \"#utility.yul\":2931:2949   */\n      0xffffffffffffffff\n        /* \"#utility.yul\":2923:2929   */\n      dup3\n        /* \"#utility.yul\":2920:2950   */\n      gt\n        /* \"#utility.yul\":2917:2973   */\n      iszero\n      tag_242\n      jumpi\n        /* \"#utility.yul\":2953:2971   */\n      tag_243\n      tag_164\n      jump\t// in\n    tag_243:\n        /* \"#utility.yul\":2917:2973   */\n    tag_242:\n        /* \"#utility.yul\":2991:3020   */\n      tag_244\n        /* \"#utility.yul\":3013:3019   */\n      dup3\n        /* \"#utility.yul\":2991:3020   */\n      tag_154\n      jump\t// in\n    tag_244:\n        /* \"#utility.yul\":2983:3020   */\n      swap1\n      pop\n        /* \"#utility.yul\":3075:3079   */\n      0x20\n        /* \"#utility.yul\":3069:3073   */\n      dup2\n        /* \"#utility.yul\":3065:3080   */\n      add\n        /* \"#utility.yul\":3057:3080   */\n      swap1\n      pop\n        /* \"#utility.yul\":2779:3087   */\n      swap2\n      swap1\n      pop\n      jump\t// out\n        /* \"#utility.yul\":3093:3241   */\n    tag_168:\n        /* \"#utility.yul\":3191:3197   */\n      dup3\n        /* \"#utility.yul\":3186:3189   */\n      dup2\n        /* \"#utility.yul\":3181:3184   */\n      dup4\n        /* \"#utility.yul\":3168:3198   */\n      calldatacopy\n        /* \"#utility.yul\":3232:3233   */\n      0x00\n        /* \"#utility.yul\":3223:3229   */\n      dup4\n        /* \"#utility.yul\":3218:3221   */\n      dup4\n        /* \"#utility.yul\":3214:3230   */\n      add\n        /* \"#utility.yul\":3207:3234   */\n      mstore\n        /* \"#utility.yul\":3093:3241   */\n      pop\n      pop\n      pop\n      jump\t// out\n        /* \"#utility.yul\":3247:3672   */\n    tag_169:\n        /* \"#utility.yul\":3325:3330   */\n      0x00\n        /* \"#utility.yul\":3350:3416   */\n      tag_247\n        /* \"#utility.yul\":3366:3415   */\n      tag_248\n        /* \"#utility.yul\":3408:3414   */\n      dup5\n        /* \"#utility.yul\":3366:3415   */\n      tag_167\n      jump\t// in\n    tag_248:\n        /* \"#utility.yul\":3350:3416   */\n      tag_166\n      jump\t// in\n    tag_247:\n        /* \"#utility.yul\":3341:3416   */\n      swap1\n      pop\n        /* \"#utility.yul\":3439:3445   */\n      dup3\n        /* \"#utility.yul\":3432:3437   */\n      dup2\n        /* \"#utility.yul\":3425:3446   */\n      mstore\n        /* \"#utility.yul\":3477:3481   */\n      0x20\n        /* \"#utility.yul\":3470:3475   */\n      dup2\n        /* \"#utility.yul\":3466:3482   */\n      add\n        /* \"#utility.yul\":3515:3518   */\n      dup5\n        /* \"#utility.yul\":3506:3512   */\n      dup5\n        /* \"#utility.yul\":3501:3504   */\n      dup5\n        /* \"#utility.yul\":3497:3513   */\n      add\n        /* \"#utility.yul\":3494:3519   */\n      gt\n        /* \"#utility.yul\":3491:3603   */\n      iszero\n      tag_249\n      jumpi\n        /* \"#utility.yul\":3522:3601   */\n      tag_250\n      tag_163\n      jump\t// in\n    tag_250:\n        /* \"#utility.yul\":3491:3603   */\n    tag_249:\n        /* \"#utility.yul\":3612:3666   */\n      tag_251\n        /* \"#utility.yul\":3659:3665   */\n      dup5\n        /* \"#utility.yul\":3654:3657   */\n      dup3\n        /* \"#utility.yul\":3649:3652   */\n      dup6\n        /* \"#utility.yul\":3612:3666   */\n      tag_168\n      jump\t// in\n    tag_251:\n        /* \"#utility.yul\":3331:3672   */\n      pop\n        /* \"#utility.yul\":3247:3672   */\n      swap4\n      swap3\n      pop\n      pop\n      pop\n      jump\t// out\n        /* \"#utility.yul\":3692:4032   */\n    tag_170:\n        /* \"#utility.yul\":3748:3753   */\n      0x00\n        /* \"#utility.yul\":3797:3800   */\n      dup3\n        /* \"#utility.yul\":3790:3794   */\n      0x1f\n        /* \"#utility.yul\":3782:3788   */\n      dup4\n        /* \"#utility.yul\":3778:3795   */\n      add\n        /* \"#utility.yul\":3774:3801   */\n      slt\n        /* \"#utility.yul\":3764:3886   */\n      tag_253\n      jumpi\n        /* \"#utility.yul\":3805:3884   */\n      tag_254\n      tag_162\n      jump\t// in\n    tag_254:\n        /* \"#utility.yul\":3764:3886   */\n    tag_253:\n        /* \"#utility.yul\":3922:3928   */\n      dup2\n        /* \"#utility.yul\":3909:3929   */\n      calldataload\n        /* \"#utility.yul\":3947:4026   */\n      tag_255\n        /* \"#utility.yul\":4022:4025   */\n      dup5\n        /* \"#utility.yul\":4014:4020   */\n      dup3\n        /* \"#utility.yul\":4007:4011   */\n      0x20\n        /* \"#utility.yul\":3999:4005   */\n      dup7\n        /* \"#utility.yul\":3995:4012   */\n      add\n        /* \"#utility.yul\":3947:4026   */\n      tag_169\n      jump\t// in\n    tag_255:\n        /* \"#utility.yul\":3938:4026   */\n      swap2\n      pop\n        /* \"#utility.yul\":3754:4032   */\n      pop\n        /* \"#utility.yul\":3692:4032   */\n      swap3\n      swap2\n      pop\n      pop\n      jump\t// out\n        /* \"#utility.yul\":4038:4692   */\n    tag_18:\n        /* \"#utility.yul\":4116:4122   */\n      0x00\n        /* \"#utility.yul\":4124:4130   */\n      dup1\n        /* \"#utility.yul\":4173:4175   */\n      0x40\n        /* \"#utility.yul\":4161:4170   */\n      dup4\n        /* \"#utility.yul\":4152:4159   */\n      dup6\n        /* \"#utility.yul\":4148:4171   */\n      sub\n        /* \"#utility.yul\":4144:4176   */\n      slt\n        /* \"#utility.yul\":4141:4260   */\n      iszero\n      tag_257\n      jumpi\n        /* \"#utility.yul\":4179:4258   */\n      tag_258\n      tag_157\n      jump\t// in\n    tag_258:\n        /* \"#utility.yul\":4141:4260   */\n    tag_257:\n        /* \"#utility.yul\":4299:4300   */\n      0x00\n        /* \"#utility.yul\":4324:4377   */\n      tag_259\n        /* \"#utility.yul\":4369:4376   */\n      dup6\n        /* \"#utility.yul\":4360:4366   */\n      dup3\n        /* \"#utility.yul\":4349:4358   */\n      dup7\n        /* \"#utility.yul\":4345:4367   */\n      add\n        /* \"#utility.yul\":4324:4377   */\n      tag_161\n      jump\t// in\n    tag_259:\n        /* \"#utility.yul\":4314:4377   */\n      swap3\n      pop\n        /* \"#utility.yul\":4270:4387   */\n      pop\n        /* \"#utility.yul\":4454:4456   */\n      0x20\n        /* \"#utility.yul\":4443:4452   */\n      dup4\n        /* \"#utility.yul\":4439:4457   */\n      add\n        /* \"#utility.yul\":4426:4458   */\n      calldataload\n        /* \"#utility.yul\":4485:4503   */\n      0xffffffffffffffff\n        /* \"#utility.yul\":4477:4483   */\n      dup2\n        /* \"#utility.yul\":4474:4504   */\n      gt\n        /* \"#utility.yul\":4471:4588   */\n      iszero\n      tag_260\n      jumpi\n        /* \"#utility.yul\":4507:4586   */\n      tag_261\n      tag_158\n      jump\t// in\n    tag_261:\n        /* \"#utility.yul\":4471:4588   */\n    tag_260:\n        /* \"#utility.yul\":4612:4675   */\n      tag_262\n        /* \"#utility.yul\":4667:4674   */\n      dup6\n        /* \"#utility.yul\":4658:4664   */\n      dup3\n        /* \"#utility.yul\":4647:4656   */\n      dup7\n        /* \"#utility.yul\":4643:4665   */\n      add\n        /* \"#utility.yul\":4612:4675   */\n      tag_170\n      jump\t// in\n    tag_262:\n        /* \"#utility.yul\":4602:4675   */\n      swap2\n      pop\n        /* \"#utility.yul\":4397:4685   */\n      pop\n        /* \"#utility.yul\":4038:4692   */\n      swap3\n      pop\n      swap3\n      swap1\n      pop\n      jump\t// out\n        /* \"#utility.yul\":4698:5027   */\n    tag_22:\n        /* \"#utility.yul\":4757:4763   */\n      0x00\n        /* \"#utility.yul\":4806:4808   */\n      0x20\n        /* \"#utility.yul\":4794:4803   */\n      dup3\n        /* \"#utility.yul\":4785:4792   */\n      dup5\n        /* \"#utility.yul\":4781:4804   */\n      sub\n        /* \"#utility.yul\":4777:4809   */\n      slt\n        /* \"#utility.yul\":4774:4893   */\n      iszero\n      tag_264\n      jumpi\n        /* \"#utility.yul\":4812:4891   */\n      tag_265\n      tag_157\n      jump\t// in\n    tag_265:\n        /* \"#utility.yul\":4774:4893   */\n    tag_264:\n        /* \"#utility.yul\":4932:4933   */\n      0x00\n        /* \"#utility.yul\":4957:5010   */\n      tag_266\n        /* \"#utility.yul\":5002:5009   */\n      dup5\n        /* \"#utility.yul\":4993:4999   */\n      dup3\n        /* \"#utility.yul\":4982:4991   */\n      dup6\n        /* \"#utility.yul\":4978:5000   */\n      add\n        /* \"#utility.yul\":4957:5010   */\n      tag_161\n      jump\t// in\n    tag_266:\n        /* \"#utility.yul\":4947:5010   */\n      swap2\n      pop\n        /* \"#utility.yul\":4903:5020   */\n      pop\n        /* \"#utility.yul\":4698:5027   */\n      swap3\n      swap2\n      pop\n      pop\n      jump\t// out\n        /* \"#utility.yul\":5033:5542   */\n    tag_27:\n        /* \"#utility.yul\":5102:5108   */\n      0x00\n        /* \"#utility.yul\":5151:5153   */\n      0x20\n        /* \"#utility.yul\":5139:5148   */\n      dup3\n        /* \"#utility.yul\":5130:5137   */\n      dup5\n        /* \"#utility.yul\":5126:5149   */\n      sub\n        /* \"#utility.yul\":5122:5154   */\n      slt\n        /* \"#utility.yul\":5119:5238   */\n      iszero\n      tag_268\n      jumpi\n        /* \"#utility.yul\":5157:5236   */\n      tag_269\n      tag_157\n      jump\t// in\n    tag_269:\n        /* \"#utility.yul\":5119:5238   */\n    tag_268:\n        /* \"#utility.yul\":5305:5306   */\n      0x00\n        /* \"#utility.yul\":5294:5303   */\n      dup3\n        /* \"#utility.yul\":5290:5307   */\n      add\n        /* \"#utility.yul\":5277:5308   */\n      calldataload\n        /* \"#utility.yul\":5335:5353   */\n      0xffffffffffffffff\n        /* \"#utility.yul\":5327:5333   */\n      dup2\n        /* \"#utility.yul\":5324:5354   */\n      gt\n        /* \"#utility.yul\":5321:5438   */\n      iszero\n      tag_270\n      jumpi\n        /* \"#utility.yul\":5357:5436   */\n      tag_271\n      tag_158\n      jump\t// in\n    tag_271:\n        /* \"#utility.yul\":5321:5438   */\n    tag_270:\n        /* \"#utility.yul\":5462:5525   */\n      tag_272\n        /* \"#utility.yul\":5517:5524   */\n      dup5\n        /* \"#utility.yul\":5508:5514   */\n      dup3\n        /* \"#utility.yul\":5497:5506   */\n      dup6\n        /* \"#utility.yul\":5493:5515   */\n      add\n        /* \"#utility.yul\":5462:5525   */\n      tag_170\n      jump\t// in\n    tag_272:\n        /* \"#utility.yul\":5452:5525   */\n      swap2\n      pop\n        /* \"#utility.yul\":5248:5535   */\n      pop\n        /* \"#utility.yul\":5033:5542   */\n      swap3\n      swap2\n      pop\n      pop\n      jump\t// out\n        /* \"#utility.yul\":5548:5672   */\n    tag_171:\n        /* \"#utility.yul\":5625:5631   */\n      0x00\n        /* \"#utility.yul\":5659:5664   */\n      dup2\n        /* \"#utility.yul\":5653:5665   */\n      mload\n        /* \"#utility.yul\":5643:5665   */\n      swap1\n      pop\n        /* \"#utility.yul\":5548:5672   */\n      swap2\n      swap1\n      pop\n      jump\t// out\n        /* \"#utility.yul\":5678:5872   */\n    tag_172:\n        /* \"#utility.yul\":5787:5798   */\n      0x00\n        /* \"#utility.yul\":5821:5827   */\n      dup3\n        /* \"#utility.yul\":5816:5819   */\n      dup3\n        /* \"#utility.yul\":5809:5828   */\n      mstore\n        /* \"#utility.yul\":5861:5865   */\n      0x20\n        /* \"#utility.yul\":5856:5859   */\n      dup3\n        /* \"#utility.yul\":5852:5866   */\n      add\n        /* \"#utility.yul\":5837:5866   */\n      swap1\n      pop\n        /* \"#utility.yul\":5678:5872   */\n      swap3\n      swap2\n      pop\n      pop\n      jump\t// out\n        /* \"#utility.yul\":5878:6020   */\n    tag_173:\n        /* \"#utility.yul\":5955:5959   */\n      0x00\n        /* \"#utility.yul\":5978:5981   */\n      dup2\n        /* \"#utility.yul\":5970:5981   */\n      swap1\n      pop\n        /* \"#utility.yul\":6008:6012   */\n      0x20\n        /* \"#utility.yul\":6003:6006   */\n      dup3\n        /* \"#utility.yul\":5999:6013   */\n      add\n        /* \"#utility.yul\":5991:6013   */\n      swap1\n      pop\n        /* \"#utility.yul\":5878:6020   */\n      swap2\n      swap1\n      pop\n      jump\t// out\n        /* \"#utility.yul\":6026:6185   */\n    tag_174:\n        /* \"#utility.yul\":6100:6111   */\n      0x00\n        /* \"#utility.yul\":6134:6140   */\n      dup3\n        /* \"#utility.yul\":6129:6132   */\n      dup3\n        /* \"#utility.yul\":6122:6141   */\n      mstore\n        /* \"#utility.yul\":6174:6178   */\n      0x20\n        /* \"#utility.yul\":6169:6172   */\n      dup3\n        /* \"#utility.yul\":6165:6179   */\n      add\n        /* \"#utility.yul\":6150:6179   */\n      swap1\n      pop\n        /* \"#utility.yul\":6026:6185   */\n      swap3\n      swap2\n      pop\n      pop\n      jump\t// out\n        /* \"#utility.yul\":6191:6548   */\n    tag_175:\n        /* \"#utility.yul\":6269:6272   */\n      0x00\n        /* \"#utility.yul\":6297:6336   */\n      tag_278\n        /* \"#utility.yul\":6330:6335   */\n      dup3\n        /* \"#utility.yul\":6297:6336   */\n      tag_151\n      jump\t// in\n    tag_278:\n        /* \"#utility.yul\":6352:6413   */\n      tag_279\n        /* \"#utility.yul\":6406:6412   */\n      dup2\n        /* \"#utility.yul\":6401:6404   */\n      dup6\n        /* \"#utility.yul\":6352:6413   */\n      tag_174\n      jump\t// in\n    tag_279:\n        /* \"#utility.yul\":6345:6413   */\n      swap4\n      pop\n        /* \"#utility.yul\":6422:6487   */\n      tag_280\n        /* \"#utility.yul\":6480:6486   */\n      dup2\n        /* \"#utility.yul\":6475:6478   */\n      dup6\n        /* \"#utility.yul\":6468:6472   */\n      0x20\n        /* \"#utility.yul\":6461:6466   */\n      dup7\n        /* \"#utility.yul\":6457:6473   */\n      add\n        /* \"#utility.yul\":6422:6487   */\n      tag_153\n      jump\t// in\n    tag_280:\n        /* \"#utility.yul\":6512:6541   */\n      tag_281\n        /* \"#utility.yul\":6534:6540   */\n      dup2\n        /* \"#utility.yul\":6512:6541   */\n      tag_154\n      jump\t// in\n    tag_281:\n        /* \"#utility.yul\":6507:6510   */\n      dup5\n        /* \"#utility.yul\":6503:6542   */\n      add\n        /* \"#utility.yul\":6496:6542   */\n      swap2\n      pop\n        /* \"#utility.yul\":6273:6548   */\n      pop\n        /* \"#utility.yul\":6191:6548   */\n      swap3\n      swap2\n      pop\n      pop\n      jump\t// out\n        /* \"#utility.yul\":6554:6750   */\n    tag_176:\n        /* \"#utility.yul\":6643:6653   */\n      0x00\n        /* \"#utility.yul\":6678:6744   */\n      tag_283\n        /* \"#utility.yul\":6740:6743   */\n      dup4\n        /* \"#utility.yul\":6732:6738   */\n      dup4\n        /* \"#utility.yul\":6678:6744   */\n      tag_175\n      jump\t// in\n    tag_283:\n        /* \"#utility.yul\":6664:6744   */\n      swap1\n      pop\n        /* \"#utility.yul\":6554:6750   */\n      swap3\n      swap2\n      pop\n      pop\n      jump\t// out\n        /* \"#utility.yul\":6756:6879   */\n    tag_177:\n        /* \"#utility.yul\":6836:6840   */\n      0x00\n        /* \"#utility.yul\":6868:6872   */\n      0x20\n        /* \"#utility.yul\":6863:6866   */\n      dup3\n        /* \"#utility.yul\":6859:6873   */\n      add\n        /* \"#utility.yul\":6851:6873   */\n      swap1\n      pop\n        /* \"#utility.yul\":6756:6879   */\n      swap2\n      swap1\n      pop\n      jump\t// out\n        /* \"#utility.yul\":6913:7904   */\n    tag_178:\n        /* \"#utility.yul\":7052:7055   */\n      0x00\n        /* \"#utility.yul\":7081:7145   */\n      tag_286\n        /* \"#utility.yul\":7139:7144   */\n      dup3\n        /* \"#utility.yul\":7081:7145   */\n      tag_171\n      jump\t// in\n    tag_286:\n        /* \"#utility.yul\":7161:7257   */\n      tag_287\n        /* \"#utility.yul\":7250:7256   */\n      dup2\n        /* \"#utility.yul\":7245:7248   */\n      dup6\n        /* \"#utility.yul\":7161:7257   */\n      tag_172\n      jump\t// in\n    tag_287:\n        /* \"#utility.yul\":7154:7257   */\n      swap4\n      pop\n        /* \"#utility.yul\":7283:7286   */\n      dup4\n        /* \"#utility.yul\":7328:7332   */\n      0x20\n        /* \"#utility.yul\":7320:7326   */\n      dup3\n        /* \"#utility.yul\":7316:7333   */\n      mul\n        /* \"#utility.yul\":7311:7314   */\n      dup6\n        /* \"#utility.yul\":7307:7334   */\n      add\n        /* \"#utility.yul\":7358:7424   */\n      tag_288\n        /* \"#utility.yul\":7418:7423   */\n      dup6\n        /* \"#utility.yul\":7358:7424   */\n      tag_173\n      jump\t// in\n    tag_288:\n        /* \"#utility.yul\":7447:7454   */\n      dup1\n        /* \"#utility.yul\":7478:7479   */\n      0x00\n        /* \"#utility.yul\":7463:7859   */\n    tag_289:\n        /* \"#utility.yul\":7488:7494   */\n      dup6\n        /* \"#utility.yul\":7485:7486   */\n      dup2\n        /* \"#utility.yul\":7482:7495   */\n      lt\n        /* \"#utility.yul\":7463:7859   */\n      iszero\n      tag_291\n      jumpi\n        /* \"#utility.yul\":7559:7568   */\n      dup5\n        /* \"#utility.yul\":7553:7557   */\n      dup5\n        /* \"#utility.yul\":7549:7569   */\n      sub\n        /* \"#utility.yul\":7544:7547   */\n      dup10\n        /* \"#utility.yul\":7537:7570   */\n      mstore\n        /* \"#utility.yul\":7610:7616   */\n      dup2\n        /* \"#utility.yul\":7604:7617   */\n      mload\n        /* \"#utility.yul\":7638:7722   */\n      tag_292\n        /* \"#utility.yul\":7717:7721   */\n      dup6\n        /* \"#utility.yul\":7702:7715   */\n      dup3\n        /* \"#utility.yul\":7638:7722   */\n      tag_176\n      jump\t// in\n    tag_292:\n        /* \"#utility.yul\":7630:7722   */\n      swap5\n      pop\n        /* \"#utility.yul\":7745:7815   */\n      tag_293\n        /* \"#utility.yul\":7808:7814   */\n      dup4\n        /* \"#utility.yul\":7745:7815   */\n      tag_177\n      jump\t// in\n    tag_293:\n        /* \"#utility.yul\":7735:7815   */\n      swap3\n      pop\n        /* \"#utility.yul\":7844:7848   */\n      0x20\n        /* \"#utility.yul\":7839:7842   */\n      dup11\n        /* \"#utility.yul\":7835:7849   */\n      add\n        /* \"#utility.yul\":7828:7849   */\n      swap10\n      pop\n        /* \"#utility.yul\":7523:7859   */\n      pop\n        /* \"#utility.yul\":7510:7511   */\n      0x01\n        /* \"#utility.yul\":7507:7508   */\n      dup2\n        /* \"#utility.yul\":7503:7512   */\n      add\n        /* \"#utility.yul\":7498:7512   */\n      swap1\n      pop\n        /* \"#utility.yul\":7463:7859   */\n      jump(tag_289)\n    tag_291:\n        /* \"#utility.yul\":7467:7481   */\n      pop\n        /* \"#utility.yul\":7875:7879   */\n      dup3\n        /* \"#utility.yul\":7868:7879   */\n      swap8\n      pop\n        /* \"#utility.yul\":7895:7898   */\n      dup8\n        /* \"#utility.yul\":7888:7898   */\n      swap6\n      pop\n        /* \"#utility.yul\":7057:7904   */\n      pop\n      pop\n      pop\n      pop\n      pop\n        /* \"#utility.yul\":6913:7904   */\n      swap3\n      swap2\n      pop\n      pop\n      jump\t// out\n        /* \"#utility.yul\":7910:8323   */\n    tag_42:\n        /* \"#utility.yul\":8073:8077   */\n      0x00\n        /* \"#utility.yul\":8111:8113   */\n      0x20\n        /* \"#utility.yul\":8100:8109   */\n      dup3\n        /* \"#utility.yul\":8096:8114   */\n      add\n        /* \"#utility.yul\":8088:8114   */\n      swap1\n      pop\n        /* \"#utility.yul\":8160:8169   */\n      dup2\n        /* \"#utility.yul\":8154:8158   */\n      dup2\n        /* \"#utility.yul\":8150:8170   */\n      sub\n        /* \"#utility.yul\":8146:8147   */\n      0x00\n        /* \"#utility.yul\":8135:8144   */\n      dup4\n        /* \"#utility.yul\":8131:8148   */\n      add\n        /* \"#utility.yul\":8124:8171   */\n      mstore\n        /* \"#utility.yul\":8188:8316   */\n      tag_295\n        /* \"#utility.yul\":8311:8315   */\n      dup2\n        /* \"#utility.yul\":8302:8308   */\n      dup5\n        /* \"#utility.yul\":8188:8316   */\n      tag_178\n      jump\t// in\n    tag_295:\n        /* \"#utility.yul\":8180:8316   */\n      swap1\n      pop\n        /* \"#utility.yul\":7910:8323   */\n      swap3\n      swap2\n      pop\n      pop\n      jump\t// out\n        /* \"#utility.yul\":8329:8509   */\n    tag_179:\n        /* \"#utility.yul\":8377:8454   */\n      0x4e487b7100000000000000000000000000000000000000000000000000000000\n        /* \"#utility.yul\":8374:8375   */\n      0x00\n        /* \"#utility.yul\":8367:8455   */\n      mstore\n        /* \"#utility.yul\":8474:8478   */\n      0x22\n        /* \"#utility.yul\":8471:8472   */\n      0x04\n        /* \"#utility.yul\":8464:8479   */\n      mstore\n        /* \"#utility.yul\":8498:8502   */\n      0x24\n        /* \"#utility.yul\":8495:8496   */\n      0x00\n        /* \"#utility.yul\":8488:8503   */\n      revert\n        /* \"#utility.yul\":8515:8835   */\n    tag_44:\n        /* \"#utility.yul\":8559:8565   */\n      0x00\n        /* \"#utility.yul\":8596:8597   */\n      0x02\n        /* \"#utility.yul\":8590:8594   */\n      dup3\n        /* \"#utility.yul\":8586:8598   */\n      div\n        /* \"#utility.yul\":8576:8598   */\n      swap1\n      pop\n        /* \"#utility.yul\":8643:8644   */\n      0x01\n        /* \"#utility.yul\":8637:8641   */\n      dup3\n        /* \"#utility.yul\":8633:8645   */\n      and\n        /* \"#utility.yul\":8664:8682   */\n      dup1\n        /* \"#utility.yul\":8654:8735   */\n      tag_298\n      jumpi\n        /* \"#utility.yul\":8720:8724   */\n      0x7f\n        /* \"#utility.yul\":8712:8718   */\n      dup3\n        /* \"#utility.yul\":8708:8725   */\n      and\n        /* \"#utility.yul\":8698:8725   */\n      swap2\n      pop\n        /* \"#utility.yul\":8654:8735   */\n    tag_298:\n        /* \"#utility.yul\":8782:8784   */\n      0x20\n        /* \"#utility.yul\":8774:8780   */\n      dup3\n        /* \"#utility.yul\":8771:8785   */\n      lt\n        /* \"#utility.yul\":8751:8769   */\n      dup2\n        /* \"#utility.yul\":8748:8786   */\n      sub\n        /* \"#utility.yul\":8745:8829   */\n      tag_299\n      jumpi\n        /* \"#utility.yul\":8801:8819   */\n      tag_300\n      tag_179\n      jump\t// in\n    tag_300:\n        /* \"#utility.yul\":8745:8829   */\n    tag_299:\n        /* \"#utility.yul\":8566:8835   */\n      pop\n        /* \"#utility.yul\":8515:8835   */\n      swap2\n      swap1\n      pop\n      jump\t// out\n        /* \"#utility.yul\":8841:9010   */\n    tag_180:\n        /* \"#utility.yul\":8981:9002   */\n      0x496e646578206f7574206f6620626f756e647300000000000000000000000000\n        /* \"#utility.yul\":8977:8978   */\n      0x00\n        /* \"#utility.yul\":8969:8975   */\n      dup3\n        /* \"#utility.yul\":8965:8979   */\n      add\n        /* \"#utility.yul\":8958:9003   */\n      mstore\n        /* \"#utility.yul\":8841:9010   */\n      pop\n      jump\t// out\n        /* \"#utility.yul\":9016:9382   */\n    tag_181:\n        /* \"#utility.yul\":9158:9161   */\n      0x00\n        /* \"#utility.yul\":9179:9246   */\n      tag_303\n        /* \"#utility.yul\":9243:9245   */\n      0x13\n        /* \"#utility.yul\":9238:9241   */\n      dup4\n        /* \"#utility.yul\":9179:9246   */\n      tag_152\n      jump\t// in\n    tag_303:\n        /* \"#utility.yul\":9172:9246   */\n      swap2\n      pop\n        /* \"#utility.yul\":9255:9348   */\n      tag_304\n        /* \"#utility.yul\":9344:9347   */\n      dup3\n        /* \"#utility.yul\":9255:9348   */\n      tag_180\n      jump\t// in\n    tag_304:\n        /* \"#utility.yul\":9373:9375   */\n      0x20\n        /* \"#utility.yul\":9368:9371   */\n      dup3\n        /* \"#utility.yul\":9364:9376   */\n      add\n        /* \"#utility.yul\":9357:9376   */\n      swap1\n      pop\n        /* \"#utility.yul\":9016:9382   */\n      swap2\n      swap1\n      pop\n      jump\t// out\n        /* \"#utility.yul\":9388:9807   */\n    tag_60:\n        /* \"#utility.yul\":9554:9558   */\n      0x00\n        /* \"#utility.yul\":9592:9594   */\n      0x20\n        /* \"#utility.yul\":9581:9590   */\n      dup3\n        /* \"#utility.yul\":9577:9595   */\n      add\n        /* \"#utility.yul\":9569:9595   */\n      swap1\n      pop\n        /* \"#utility.yul\":9641:9650   */\n      dup2\n        /* \"#utility.yul\":9635:9639   */\n      dup2\n        /* \"#utility.yul\":9631:9651   */\n      sub\n        /* \"#utility.yul\":9627:9628   */\n      0x00\n        /* \"#utility.yul\":9616:9625   */\n      dup4\n        /* \"#utility.yul\":9612:9629   */\n      add\n        /* \"#utility.yul\":9605:9652   */\n      mstore\n        /* \"#utility.yul\":9669:9800   */\n      tag_306\n        /* \"#utility.yul\":9795:9799   */\n      dup2\n        /* \"#utility.yul\":9669:9800   */\n      tag_181\n      jump\t// in\n    tag_306:\n        /* \"#utility.yul\":9661:9800   */\n      swap1\n      pop\n        /* \"#utility.yul\":9388:9807   */\n      swap2\n      swap1\n      pop\n      jump\t// out\n        /* \"#utility.yul\":9813:9993   */\n    tag_64:\n        /* \"#utility.yul\":9861:9938   */\n      0x4e487b7100000000000000000000000000000000000000000000000000000000\n        /* \"#utility.yul\":9858:9859   */\n      0x00\n        /* \"#utility.yul\":9851:9939   */\n      mstore\n        /* \"#utility.yul\":9958:9962   */\n      0x32\n        /* \"#utility.yul\":9955:9956   */\n      0x04\n        /* \"#utility.yul\":9948:9963   */\n      mstore\n        /* \"#utility.yul\":9982:9986   */\n      0x24\n        /* \"#utility.yul\":9979:9980   */\n      0x00\n        /* \"#utility.yul\":9972:9987   */\n      revert\n        /* \"#utility.yul\":9999:10140   */\n    tag_182:\n        /* \"#utility.yul\":10048:10052   */\n      0x00\n        /* \"#utility.yul\":10071:10074   */\n      dup2\n        /* \"#utility.yul\":10063:10074   */\n      swap1\n      pop\n        /* \"#utility.yul\":10094:10097   */\n      dup2\n        /* \"#utility.yul\":10091:10092   */\n      0x00\n        /* \"#utility.yul\":10084:10098   */\n      mstore\n        /* \"#utility.yul\":10128:10132   */\n      0x20\n        /* \"#utility.yul\":10125:10126   */\n      0x00\n        /* \"#utility.yul\":10115:10133   */\n      keccak256\n        /* \"#utility.yul\":10107:10133   */\n      swap1\n      pop\n        /* \"#utility.yul\":9999:10140   */\n      swap2\n      swap1\n      pop\n      jump\t// out\n        /* \"#utility.yul\":10146:10239   */\n    tag_183:\n        /* \"#utility.yul\":10183:10189   */\n      0x00\n        /* \"#utility.yul\":10230:10232   */\n      0x20\n        /* \"#utility.yul\":10225:10227   */\n      0x1f\n        /* \"#utility.yul\":10218:10223   */\n      dup4\n        /* \"#utility.yul\":10214:10228   */\n      add\n        /* \"#utility.yul\":10210:10233   */\n      div\n        /* \"#utility.yul\":10200:10233   */\n      swap1\n      pop\n        /* \"#utility.yul\":10146:10239   */\n      swap2\n      swap1\n      pop\n      jump\t// out\n        /* \"#utility.yul\":10245:10352   */\n    tag_184:\n        /* \"#utility.yul\":10289:10297   */\n      0x00\n        /* \"#utility.yul\":10339:10344   */\n      dup3\n        /* \"#utility.yul\":10333:10337   */\n      dup3\n        /* \"#utility.yul\":10329:10345   */\n      shl\n        /* \"#utility.yul\":10308:10345   */\n      swap1\n      pop\n        /* \"#utility.yul\":10245:10352   */\n      swap3\n      swap2\n      pop\n      pop\n      jump\t// out\n        /* \"#utility.yul\":10358:10751   */\n    tag_185:\n        /* \"#utility.yul\":10427:10433   */\n      0x00\n        /* \"#utility.yul\":10477:10478   */\n      0x08\n        /* \"#utility.yul\":10465:10475   */\n      dup4\n        /* \"#utility.yul\":10461:10479   */\n      mul\n        /* \"#utility.yul\":10500:10597   */\n      tag_312\n        /* \"#utility.yul\":10530:10596   */\n      0xffffffffffffffffffffffffffffffffffffffffffffffffffffffffffffffff\n        /* \"#utility.yul\":10519:10528   */\n      dup3\n        /* \"#utility.yul\":10500:10597   */\n      tag_184\n      jump\t// in\n    tag_312:\n        /* \"#utility.yul\":10618:10657   */\n      tag_313\n        /* \"#utility.yul\":10648:10656   */\n      dup7\n        /* \"#utility.yul\":10637:10646   */\n      dup4\n        /* \"#utility.yul\":10618:10657   */\n      tag_184\n      jump\t// in\n    tag_313:\n        /* \"#utility.yul\":10606:10657   */\n      swap6\n      pop\n        /* \"#utility.yul\":10690:10694   */\n      dup1\n        /* \"#utility.yul\":10686:10695   */\n      not\n        /* \"#utility.yul\":10679:10684   */\n      dup5\n        /* \"#utility.yul\":10675:10696   */\n      and\n        /* \"#utility.yul\":10666:10696   */\n      swap4\n      pop\n        /* \"#utility.yul\":10739:10743   */\n      dup1\n        /* \"#utility.yul\":10729:10737   */\n      dup7\n        /* \"#utility.yul\":10725:10744   */\n      and\n        /* \"#utility.yul\":10718:10723   */\n      dup5\n        /* \"#utility.yul\":10715:10745   */\n      or\n        /* \"#utility.yul\":10705:10745   */\n      swap3\n      pop\n        /* \"#utility.yul\":10434:10751   */\n      pop\n      pop\n        /* \"#utility.yul\":10358:10751   */\n      swap4\n      swap3\n      pop\n      pop\n      pop\n      jump\t// out\n        /* \"#utility.yul\":10757:10817   */\n    tag_186:\n        /* \"#utility.yul\":10785:10788   */\n      0x00\n        /* \"#utility.yul\":10806:10811   */\n      dup2\n        /* \"#utility.yul\":10799:10811   */\n      swap1\n      pop\n        /* \"#utility.yul\":10757:10817   */\n      swap2\n      swap1\n      pop\n      jump\t// out\n        /* \"#utility.yul\":10823:10965   */\n    tag_187:\n        /* \"#utility.yul\":10873:10882   */\n      0x00\n        /* \"#utility.yul\":10906:10959   */\n      tag_316\n        /* \"#utility.yul\":10924:10958   */\n      tag_317\n        /* \"#utility.yul\":10933:10957   */\n      tag_318\n        /* \"#utility.yul\":10951:10956   */\n      dup5\n        /* \"#utility.yul\":10933:10957   */\n      tag_159\n      jump\t// in\n    tag_318:\n        /* \"#utility.yul\":10924:10958   */\n      tag_186\n      jump\t// in\n    tag_317:\n        /* \"#utility.yul\":10906:10959   */\n      tag_159\n      jump\t// in\n    tag_316:\n        /* \"#utility.yul\":10893:10959   */\n      swap1\n      pop\n        /* \"#utility.yul\":10823:10965   */\n      swap2\n      swap1\n      pop\n      jump\t// out\n        /* \"#utility.yul\":10971:11046   */\n    tag_188:\n        /* \"#utility.yul\":11014:11017   */\n      0x00\n        /* \"#utility.yul\":11035:11040   */\n      dup2\n        /* \"#utility.yul\":11028:11040   */\n      swap1\n      pop\n        /* \"#utility.yul\":10971:11046   */\n      swap2\n      swap1\n      pop\n      jump\t// out\n        /* \"#utility.yul\":11052:11321   */\n    tag_189:\n        /* \"#utility.yul\":11162:11201   */\n      tag_321\n        /* \"#utility.yul\":11193:11200   */\n      dup4\n        /* \"#utility.yul\":11162:11201   */\n      tag_187\n      jump\t// in\n    tag_321:\n        /* \"#utility.yul\":11223:11314   */\n      tag_322\n        /* \"#utility.yul\":11272:11313   */\n      tag_323\n        /* \"#utility.yul\":11296:11312   */\n      dup3\n        /* \"#utility.yul\":11272:11313   */\n      tag_188\n      jump\t// in\n    tag_323:\n        /* \"#utility.yul\":11264:11270   */\n      dup5\n        /* \"#utility.yul\":11257:11261   */\n      dup5\n        /* \"#utility.yul\":11251:11262   */\n      sload\n        /* \"#utility.yul\":11223:11314   */\n      tag_185\n      jump\t// in\n    tag_322:\n        /* \"#utility.yul\":11217:11221   */\n      dup3\n        /* \"#utility.yul\":11210:11315   */\n      sstore\n        /* \"#utility.yul\":11128:11321   */\n      pop\n        /* \"#utility.yul\":11052:11321   */\n      pop\n      pop\n      pop\n      jump\t// out\n        /* \"#utility.yul\":11327:11400   */\n    tag_190:\n        /* \"#utility.yul\":11372:11375   */\n      0x00\n        /* \"#utility.yul\":11327:11400   */\n      swap1\n      jump\t// out\n        /* \"#utility.yul\":11406:11595   */\n    tag_191:\n        /* \"#utility.yul\":11483:11515   */\n      tag_326\n      tag_190\n      jump\t// in\n    tag_326:\n        /* \"#utility.yul\":11524:11589   */\n      tag_327\n        /* \"#utility.yul\":11582:11588   */\n      dup2\n        /* \"#utility.yul\":11574:11580   */\n      dup5\n        /* \"#utility.yul\":11568:11572   */\n      dup5\n        /* \"#utility.yul\":11524:11589   */\n      tag_189\n      jump\t// in\n    tag_327:\n        /* \"#utility.yul\":11459:11595   */\n      pop\n        /* \"#utility.yul\":11406:11595   */\n      pop\n      pop\n      jump\t// out\n        /* \"#utility.yul\":11601:11787   */\n    tag_192:\n        /* \"#utility.yul\":11661:11781   */\n    tag_329:\n        /* \"#utility.yul\":11678:11681   */\n      dup2\n        /* \"#utility.yul\":11671:11676   */\n      dup2\n        /* \"#utility.yul\":11668:11682   */\n      lt\n        /* \"#utility.yul\":11661:11781   */\n      iszero\n      tag_331\n      jumpi\n        /* \"#utility.yul\":11732:11771   */\n      tag_332\n        /* \"#utility.yul\":11769:11770   */\n      0x00\n        /* \"#utility.yul\":11762:11767   */\n      dup3\n        /* \"#utility.yul\":11732:11771   */\n      tag_191\n      jump\t// in\n    tag_332:\n        /* \"#utility.yul\":11705:11706   */\n      0x01\n        /* \"#utility.yul\":11698:11703   */\n      dup2\n        /* \"#utility.yul\":11694:11707   */\n      add\n        /* \"#utility.yul\":11685:11707   */\n      swap1\n      pop\n        /* \"#utility.yul\":11661:11781   */\n      jump(tag_329)\n    tag_331:\n        /* \"#utility.yul\":11601:11787   */\n      pop\n      pop\n      jump\t// out\n        /* \"#utility.yul\":11793:12336   */\n    tag_193:\n        /* \"#utility.yul\":11894:11896   */\n      0x1f\n        /* \"#utility.yul\":11889:11892   */\n      dup3\n        /* \"#utility.yul\":11886:11897   */\n      gt\n        /* \"#utility.yul\":11883:12329   */\n      iszero\n      tag_334\n      jumpi\n        /* \"#utility.yul\":11928:11966   */\n      tag_335\n        /* \"#utility.yul\":11960:11965   */\n      dup2\n        /* \"#utility.yul\":11928:11966   */\n      tag_182\n      jump\t// in\n    tag_335:\n        /* \"#utility.yul\":12012:12041   */\n      tag_336\n        /* \"#utility.yul\":12030:12040   */\n      dup5\n        /* \"#utility.yul\":12012:12041   */\n      tag_183\n      jump\t// in\n    tag_336:\n        /* \"#utility.yul\":12002:12010   */\n      dup2\n        /* \"#utility.yul\":11998:12042   */\n      add\n        /* \"#utility.yul\":12195:12197   */\n      0x20\n        /* \"#utility.yul\":12183:12193   */\n      dup6\n        /* \"#utility.yul\":12180:12198   */\n      lt\n        /* \"#utility.yul\":12177:12226   */\n      iszero\n      tag_337\n      jumpi\n        /* \"#utility.yul\":12216:12224   */\n      dup2\n        /* \"#utility.yul\":12201:12224   */\n      swap1\n      pop\n        /* \"#utility.yul\":12177:12226   */\n    tag_337:\n        /* \"#utility.yul\":12239:12319   */\n      tag_338\n        /* \"#utility.yul\":12295:12317   */\n      tag_339\n        /* \"#utility.yul\":12313:12316   */\n      dup6\n        /* \"#utility.yul\":12295:12317   */\n      tag_183\n      jump\t// in\n    tag_339:\n        /* \"#utility.yul\":12285:12293   */\n      dup4\n        /* \"#utility.yul\":12281:12318   */\n      add\n        /* \"#utility.yul\":12268:12279   */\n      dup3\n        /* \"#utility.yul\":12239:12319   */\n      tag_192\n      jump\t// in\n    tag_338:\n        /* \"#utility.yul\":11898:12329   */\n      pop\n      pop\n        /* \"#utility.yul\":11883:12329   */\n    tag_334:\n        /* \"#utility.yul\":11793:12336   */\n      pop\n      pop\n      pop\n      jump\t// out\n        /* \"#utility.yul\":12342:12459   */\n    tag_194:\n        /* \"#utility.yul\":12396:12404   */\n      0x00\n        /* \"#utility.yul\":12446:12451   */\n      dup3\n        /* \"#utility.yul\":12440:12444   */\n      dup3\n        /* \"#utility.yul\":12436:12452   */\n      shr\n        /* \"#utility.yul\":12415:12452   */\n      swap1\n      pop\n        /* \"#utility.yul\":12342:12459   */\n      swap3\n      swap2\n      pop\n      pop\n      jump\t// out\n        /* \"#utility.yul\":12465:12634   */\n    tag_195:\n        /* \"#utility.yul\":12509:12515   */\n      0x00\n        /* \"#utility.yul\":12542:12593   */\n      tag_342\n        /* \"#utility.yul\":12590:12591   */\n      0x00\n        /* \"#utility.yul\":12586:12592   */\n      not\n        /* \"#utility.yul\":12578:12583   */\n      dup5\n        /* \"#utility.yul\":12575:12576   */\n      0x08\n        /* \"#utility.yul\":12571:12584   */\n      mul\n        /* \"#utility.yul\":12542:12593   */\n      tag_194\n      jump\t// in\n    tag_342:\n        /* \"#utility.yul\":12538:12594   */\n      not\n        /* \"#utility.yul\":12623:12627   */\n      dup1\n        /* \"#utility.yul\":12617:12621   */\n      dup4\n        /* \"#utility.yul\":12613:12628   */\n      and\n        /* \"#utility.yul\":12603:12628   */\n      swap2\n      pop\n        /* \"#utility.yul\":12516:12634   */\n      pop\n        /* \"#utility.yul\":12465:12634   */\n      swap3\n      swap2\n      pop\n      pop\n      jump\t// out\n        /* \"#utility.yul\":12639:12934   */\n    tag_196:\n        /* \"#utility.yul\":12715:12719   */\n      0x00\n        /* \"#utility.yul\":12861:12890   */\n      tag_344\n        /* \"#utility.yul\":12886:12889   */\n      dup4\n        /* \"#utility.yul\":12880:12884   */\n      dup4\n        /* \"#utility.yul\":12861:12890   */\n      tag_195\n      jump\t// in\n    tag_344:\n        /* \"#utility.yul\":12853:12890   */\n      swap2\n      pop\n        /* \"#utility.yul\":12923:12926   */\n      dup3\n        /* \"#utility.yul\":12920:12921   */\n      0x02\n        /* \"#utility.yul\":12916:12927   */\n      mul\n        /* \"#utility.yul\":12910:12914   */\n      dup3\n        /* \"#utility.yul\":12907:12928   */\n      or\n        /* \"#utility.yul\":12899:12928   */\n      swap1\n      pop\n        /* \"#utility.yul\":12639:12934   */\n      swap3\n      swap2\n      pop\n      pop\n      jump\t// out\n        /* \"#utility.yul\":12939:14334   */\n    tag_67:\n        /* \"#utility.yul\":13056:13093   */\n      tag_346\n        /* \"#utility.yul\":13089:13092   */\n      dup3\n        /* \"#utility.yul\":13056:13093   */\n      tag_151\n      jump\t// in\n    tag_346:\n        /* \"#utility.yul\":13158:13176   */\n      0xffffffffffffffff\n        /* \"#utility.yul\":13150:13156   */\n      dup2\n        /* \"#utility.yul\":13147:13177   */\n      gt\n        /* \"#utility.yul\":13144:13200   */\n      iszero\n      tag_347\n      jumpi\n        /* \"#utility.yul\":13180:13198   */\n      tag_348\n      tag_164\n      jump\t// in\n    tag_348:\n        /* \"#utility.yul\":13144:13200   */\n    tag_347:\n        /* \"#utility.yul\":13224:13262   */\n      tag_349\n        /* \"#utility.yul\":13256:13260   */\n      dup3\n        /* \"#utility.yul\":13250:13261   */\n      sload\n        /* \"#utility.yul\":13224:13262   */\n      tag_44\n      jump\t// in\n    tag_349:\n        /* \"#utility.yul\":13309:13376   */\n      tag_350\n        /* \"#utility.yul\":13369:13375   */\n      dup3\n        /* \"#utility.yul\":13361:13367   */\n      dup3\n        /* \"#utility.yul\":13355:13359   */\n      dup6\n        /* \"#utility.yul\":13309:13376   */\n      tag_193\n      jump\t// in\n    tag_350:\n        /* \"#utility.yul\":13403:13404   */\n      0x00\n        /* \"#utility.yul\":13427:13431   */\n      0x20\n        /* \"#utility.yul\":13414:13431   */\n      swap1\n      pop\n        /* \"#utility.yul\":13459:13461   */\n      0x1f\n        /* \"#utility.yul\":13451:13457   */\n      dup4\n        /* \"#utility.yul\":13448:13462   */\n      gt\n        /* \"#utility.yul\":13476:13477   */\n      0x01\n        /* \"#utility.yul\":13471:14089   */\n      dup2\n      eq\n      tag_352\n      jumpi\n        /* \"#utility.yul\":14133:14134   */\n      0x00\n        /* \"#utility.yul\":14150:14156   */\n      dup5\n        /* \"#utility.yul\":14147:14224   */\n      iszero\n      tag_353\n      jumpi\n        /* \"#utility.yul\":14199:14208   */\n      dup3\n        /* \"#utility.yul\":14194:14197   */\n      dup8\n        /* \"#utility.yul\":14190:14209   */\n      add\n        /* \"#utility.yul\":14184:14210   */\n      mload\n        /* \"#utility.yul\":14175:14210   */\n      swap1\n      pop\n        /* \"#utility.yul\":14147:14224   */\n    tag_353:\n        /* \"#utility.yul\":14250:14317   */\n      tag_354\n        /* \"#utility.yul\":14310:14316   */\n      dup6\n        /* \"#utility.yul\":14303:14308   */\n      dup3\n        /* \"#utility.yul\":14250:14317   */\n      tag_196\n      jump\t// in\n    tag_354:\n        /* \"#utility.yul\":14244:14248   */\n      dup7\n        /* \"#utility.yul\":14237:14318   */\n      sstore\n        /* \"#utility.yul\":14106:14328   */\n      pop\n        /* \"#utility.yul\":13441:14328   */\n      jump(tag_351)\n        /* \"#utility.yul\":13471:14089   */\n    tag_352:\n        /* \"#utility.yul\":13523:13527   */\n      0x1f\n        /* \"#utility.yul\":13519:13528   */\n      not\n        /* \"#utility.yul\":13511:13517   */\n      dup5\n        /* \"#utility.yul\":13507:13529   */\n      and\n        /* \"#utility.yul\":13557:13594   */\n      tag_355\n        /* \"#utility.yul\":13589:13593   */\n      dup7\n        /* \"#utility.yul\":13557:13594   */\n      tag_182\n      jump\t// in\n    tag_355:\n        /* \"#utility.yul\":13616:13617   */\n      0x00\n        /* \"#utility.yul\":13630:13838   */\n    tag_356:\n        /* \"#utility.yul\":13644:13651   */\n      dup3\n        /* \"#utility.yul\":13641:13642   */\n      dup2\n        /* \"#utility.yul\":13638:13652   */\n      lt\n        /* \"#utility.yul\":13630:13838   */\n      iszero\n      tag_358\n      jumpi\n        /* \"#utility.yul\":13723:13732   */\n      dup5\n        /* \"#utility.yul\":13718:13721   */\n      dup10\n        /* \"#utility.yul\":13714:13733   */\n      add\n        /* \"#utility.yul\":13708:13734   */\n      mload\n        /* \"#utility.yul\":13700:13706   */\n      dup3\n        /* \"#utility.yul\":13693:13735   */\n      sstore\n        /* \"#utility.yul\":13774:13775   */\n      0x01\n        /* \"#utility.yul\":13766:13772   */\n      dup3\n        /* \"#utility.yul\":13762:13776   */\n      add\n        /* \"#utility.yul\":13752:13776   */\n      swap2\n      pop\n        /* \"#utility.yul\":13821:13823   */\n      0x20\n        /* \"#utility.yul\":13810:13819   */\n      dup6\n        /* \"#utility.yul\":13806:13824   */\n      add\n        /* \"#utility.yul\":13793:13824   */\n      swap5\n      pop\n        /* \"#utility.yul\":13667:13671   */\n      0x20\n        /* \"#utility.yul\":13664:13665   */\n      dup2\n        /* \"#utility.yul\":13660:13672   */\n      add\n        /* \"#utility.yul\":13655:13672   */\n      swap1\n      pop\n        /* \"#utility.yul\":13630:13838   */\n      jump(tag_356)\n    tag_358:\n        /* \"#utility.yul\":13866:13872   */\n      dup7\n        /* \"#utility.yul\":13857:13864   */\n      dup4\n        /* \"#utility.yul\":13854:13873   */\n      lt\n        /* \"#utility.yul\":13851:14030   */\n      iszero\n      tag_359\n      jumpi\n        /* \"#utility.yul\":13924:13933   */\n      dup5\n        /* \"#utility.yul\":13919:13922   */\n      dup10\n        /* \"#utility.yul\":13915:13934   */\n      add\n        /* \"#utility.yul\":13909:13935   */\n      mload\n        /* \"#utility.yul\":13967:14015   */\n      tag_360\n        /* \"#utility.yul\":14009:14013   */\n      0x1f\n        /* \"#utility.yul\":14001:14007   */\n      dup10\n        /* \"#utility.yul\":13997:14014   */\n      and\n        /* \"#utility.yul\":13986:13995   */\n      dup3\n        /* \"#utility.yul\":13967:14015   */\n      tag_195\n      jump\t// in\n    tag_360:\n        /* \"#utility.yul\":13959:13965   */\n      dup4\n        /* \"#utility.yul\":13952:14016   */\n      sstore\n        /* \"#utility.yul\":13874:14030   */\n      pop\n        /* \"#utility.yul\":13851:14030   */\n    tag_359:\n        /* \"#utility.yul\":14076:14077   */\n      0x01\n        /* \"#utility.yul\":14072:14073   */\n      0x02\n        /* \"#utility.yul\":14064:14070   */\n      dup9\n        /* \"#utility.yul\":14060:14074   */\n      mul\n        /* \"#utility.yul\":14056:14078   */\n      add\n        /* \"#utility.yul\":14050:14054   */\n      dup9\n        /* \"#utility.yul\":14043:14079   */\n      sstore\n        /* \"#utility.yul\":13478:14089   */\n      pop\n      pop\n      pop\n        /* \"#utility.yul\":13441:14328   */\n    tag_351:\n      pop\n        /* \"#utility.yul\":13031:14334   */\n      pop\n      pop\n      pop\n        /* \"#utility.yul\":12939:14334   */\n      pop\n      pop\n      jump\t// out\n        /* \"#utility.yul\":14340:14565   */\n    tag_197:\n        /* \"#utility.yul\":14480:14514   */\n      0x4f6e6c7920746865206f776e65722063616e206d6f646966792074686520636f\n        /* \"#utility.yul\":14476:14477   */\n      0x00\n        /* \"#utility.yul\":14468:14474   */\n      dup3\n        /* \"#utility.yul\":14464:14478   */\n      add\n        /* \"#utility.yul\":14457:14515   */\n      mstore\n        /* \"#utility.yul\":14549:14557   */\n      0x6e74726163740000000000000000000000000000000000000000000000000000\n        /* \"#utility.yul\":14544:14546   */\n      0x20\n        /* \"#utility.yul\":14536:14542   */\n      dup3\n        /* \"#utility.yul\":14532:14547   */\n      add\n        /* \"#utility.yul\":14525:14558   */\n      mstore\n        /* \"#utility.yul\":14340:14565   */\n      pop\n      jump\t// out\n        /* \"#utility.yul\":14571:14937   */\n    tag_198:\n        /* \"#utility.yul\":14713:14716   */\n      0x00\n        /* \"#utility.yul\":14734:14801   */\n      tag_363\n        /* \"#utility.yul\":14798:14800   */\n      0x26\n        /* \"#utility.yul\":14793:14796   */\n      dup4\n        /* \"#utility.yul\":14734:14801   */\n      tag_152\n      jump\t// in\n    tag_363:\n        /* \"#utility.yul\":14727:14801   */\n      swap2\n      pop\n        /* \"#utility.yul\":14810:14903   */\n      tag_364\n        /* \"#utility.yul\":14899:14902   */\n      dup3\n        /* \"#utility.yul\":14810:14903   */\n      tag_197\n      jump\t// in\n    tag_364:\n        /* \"#utility.yul\":14928:14930   */\n      0x40\n        /* \"#utility.yul\":14923:14926   */\n      dup3\n        /* \"#utility.yul\":14919:14931   */\n      add\n        /* \"#utility.yul\":14912:14931   */\n      swap1\n      pop\n        /* \"#utility.yul\":14571:14937   */\n      swap2\n      swap1\n      pop\n      jump\t// out\n        /* \"#utility.yul\":14943:15362   */\n    tag_78:\n        /* \"#utility.yul\":15109:15113   */\n      0x00\n        /* \"#utility.yul\":15147:15149   */\n      0x20\n        /* \"#utility.yul\":15136:15145   */\n      dup3\n        /* \"#utility.yul\":15132:15150   */\n      add\n        /* \"#utility.yul\":15124:15150   */\n      swap1\n      pop\n        /* \"#utility.yul\":15196:15205   */\n      dup2\n        /* \"#utility.yul\":15190:15194   */\n      dup2\n        /* \"#utility.yul\":15186:15206   */\n      sub\n        /* \"#utility.yul\":15182:15183   */\n      0x00\n        /* \"#utility.yul\":15171:15180   */\n      dup4\n        /* \"#utility.yul\":15167:15184   */\n      add\n        /* \"#utility.yul\":15160:15207   */\n      mstore\n        /* \"#utility.yul\":15224:15355   */\n      tag_366\n        /* \"#utility.yul\":15350:15354   */\n      dup2\n        /* \"#utility.yul\":15224:15355   */\n      tag_198\n      jump\t// in\n    tag_366:\n        /* \"#utility.yul\":15216:15355   */\n      swap1\n      pop\n        /* \"#utility.yul\":14943:15362   */\n      swap2\n      swap1\n      pop\n      jump\t// out\n        /* \"#utility.yul\":15368:15516   */\n    tag_199:\n        /* \"#utility.yul\":15470:15481   */\n      0x00\n        /* \"#utility.yul\":15507:15510   */\n      dup2\n        /* \"#utility.yul\":15492:15510   */\n      swap1\n      pop\n        /* \"#utility.yul\":15368:15516   */\n      swap3\n      swap2\n      pop\n      pop\n      jump\t// out\n        /* \"#utility.yul\":15522:15681   */\n    tag_200:\n        /* \"#utility.yul\":15662:15673   */\n      0x4c617374204e616d650000000000000000000000000000000000000000000000\n        /* \"#utility.yul\":15658:15659   */\n      0x00\n        /* \"#utility.yul\":15650:15656   */\n      dup3\n        /* \"#utility.yul\":15646:15660   */\n      add\n        /* \"#utility.yul\":15639:15674   */\n      mstore\n        /* \"#utility.yul\":15522:15681   */\n      pop\n      jump\t// out\n        /* \"#utility.yul\":15687:16087   */\n    tag_201:\n        /* \"#utility.yul\":15847:15850   */\n      0x00\n        /* \"#utility.yul\":15868:15952   */\n      tag_370\n        /* \"#utility.yul\":15950:15951   */\n      0x09\n        /* \"#utility.yul\":15945:15948   */\n      dup4\n        /* \"#utility.yul\":15868:15952   */\n      tag_199\n      jump\t// in\n    tag_370:\n        /* \"#utility.yul\":15861:15952   */\n      swap2\n      pop\n        /* \"#utility.yul\":15961:16054   */\n      tag_371\n        /* \"#utility.yul\":16050:16053   */\n      dup3\n        /* \"#utility.yul\":15961:16054   */\n      tag_200\n      jump\t// in\n    tag_371:\n        /* \"#utility.yul\":16079:16080   */\n      0x09\n        /* \"#utility.yul\":16074:16077   */\n      dup3\n        /* \"#utility.yul\":16070:16081   */\n      add\n        /* \"#utility.yul\":16063:16081   */\n      swap1\n      pop\n        /* \"#utility.yul\":15687:16087   */\n      swap2\n      swap1\n      pop\n      jump\t// out\n        /* \"#utility.yul\":16093:16474   */\n    tag_81:\n        /* \"#utility.yul\":16278:16281   */\n      0x00\n        /* \"#utility.yul\":16300:16448   */\n      tag_373\n        /* \"#utility.yul\":16444:16447   */\n      dup3\n        /* \"#utility.yul\":16300:16448   */\n      tag_201\n      jump\t// in\n    tag_373:\n        /* \"#utility.yul\":16293:16448   */\n      swap2\n      pop\n        /* \"#utility.yul\":16465:16468   */\n      dup2\n        /* \"#utility.yul\":16458:16468   */\n      swap1\n      pop\n        /* \"#utility.yul\":16093:16474   */\n      swap2\n      swap1\n      pop\n      jump\t// out\n        /* \"#utility.yul\":16480:16634   */\n    tag_202:\n        /* \"#utility.yul\":16620:16626   */\n      0x4e616d6500000000000000000000000000000000000000000000000000000000\n        /* \"#utility.yul\":16616:16617   */\n      0x00\n        /* \"#utility.yul\":16608:16614   */\n      dup3\n        /* \"#utility.yul\":16604:16618   */\n      add\n        /* \"#utility.yul\":16597:16627   */\n      mstore\n        /* \"#utility.yul\":16480:16634   */\n      pop\n      jump\t// out\n        /* \"#utility.yul\":16640:17040   */\n    tag_203:\n        /* \"#utility.yul\":16800:16803   */\n      0x00\n        /* \"#utility.yul\":16821:16905   */\n      tag_376\n        /* \"#utility.yul\":16903:16904   */\n      0x04\n        /* \"#utility.yul\":16898:16901   */\n      dup4\n        /* \"#utility.yul\":16821:16905   */\n      tag_199\n      jump\t// in\n    tag_376:\n        /* \"#utility.yul\":16814:16905   */\n      swap2\n      pop\n        /* \"#utility.yul\":16914:17007   */\n      tag_377\n        /* \"#utility.yul\":17003:17006   */\n      dup3\n        /* \"#utility.yul\":16914:17007   */\n      tag_202\n      jump\t// in\n    tag_377:\n        /* \"#utility.yul\":17032:17033   */\n      0x04\n        /* \"#utility.yul\":17027:17030   */\n      dup3\n        /* \"#utility.yul\":17023:17034   */\n      add\n        /* \"#utility.yul\":17016:17034   */\n      swap1\n      pop\n        /* \"#utility.yul\":16640:17040   */\n      swap2\n      swap1\n      pop\n      jump\t// out\n        /* \"#utility.yul\":17046:17427   */\n    tag_94:\n        /* \"#utility.yul\":17231:17234   */\n      0x00\n        /* \"#utility.yul\":17253:17401   */\n      tag_379\n        /* \"#utility.yul\":17397:17400   */\n      dup3\n        /* \"#utility.yul\":17253:17401   */\n      tag_203\n      jump\t// in\n    tag_379:\n        /* \"#utility.yul\":17246:17401   */\n      swap2\n      pop\n        /* \"#utility.yul\":17418:17421   */\n      dup2\n        /* \"#utility.yul\":17411:17421   */\n      swap1\n      pop\n        /* \"#utility.yul\":17046:17427   */\n      swap2\n      swap1\n      pop\n      jump\t// out\n        /* \"#utility.yul\":17433:17586   */\n    tag_204:\n        /* \"#utility.yul\":17486:17492   */\n      0x00\n        /* \"#utility.yul\":17520:17525   */\n      dup2\n        /* \"#utility.yul\":17514:17526   */\n      sload\n        /* \"#utility.yul\":17504:17526   */\n      swap1\n      pop\n        /* \"#utility.yul\":17546:17579   */\n      tag_381\n        /* \"#utility.yul\":17572:17578   */\n      dup2\n        /* \"#utility.yul\":17546:17579   */\n      tag_44\n      jump\t// in\n    tag_381:\n        /* \"#utility.yul\":17536:17579   */\n      swap1\n      pop\n        /* \"#utility.yul\":17433:17586   */\n      swap2\n      swap1\n      pop\n      jump\t// out\n        /* \"#utility.yul\":17592:17737   */\n    tag_205:\n        /* \"#utility.yul\":17645:17649   */\n      0x00\n        /* \"#utility.yul\":17668:17671   */\n      dup2\n        /* \"#utility.yul\":17660:17671   */\n      swap1\n      pop\n        /* \"#utility.yul\":17691:17694   */\n      dup2\n        /* \"#utility.yul\":17688:17689   */\n      0x00\n        /* \"#utility.yul\":17681:17695   */\n      mstore\n        /* \"#utility.yul\":17725:17729   */\n      0x20\n        /* \"#utility.yul\":17722:17723   */\n      0x00\n        /* \"#utility.yul\":17712:17730   */\n      keccak256\n        /* \"#utility.yul\":17704:17730   */\n      swap1\n      pop\n        /* \"#utility.yul\":17592:17737   */\n      swap2\n      swap1\n      pop\n      jump\t// out\n        /* \"#utility.yul\":17743:19206   */\n    tag_99:\n        /* \"#utility.yul\":17858:17861   */\n      dup2\n        /* \"#utility.yul\":17852:17856   */\n      dup2\n        /* \"#utility.yul\":17849:17862   */\n      sub\n        /* \"#utility.yul\":17846:17872   */\n      tag_384\n      jumpi\n        /* \"#utility.yul\":17865:17870   */\n      pop\n      pop\n      jump(tag_383)\n        /* \"#utility.yul\":17846:17872   */\n    tag_384:\n        /* \"#utility.yul\":17896:17934   */\n      tag_385\n        /* \"#utility.yul\":17930:17933   */\n      dup3\n        /* \"#utility.yul\":17896:17934   */\n      tag_204\n      jump\t// in\n    tag_385:\n        /* \"#utility.yul\":17999:18017   */\n      0xffffffffffffffff\n        /* \"#utility.yul\":17991:17997   */\n      dup2\n        /* \"#utility.yul\":17988:18018   */\n      gt\n        /* \"#utility.yul\":17985:18041   */\n      iszero\n      tag_386\n      jumpi\n        /* \"#utility.yul\":18021:18039   */\n      tag_387\n      tag_164\n      jump\t// in\n    tag_387:\n        /* \"#utility.yul\":17985:18041   */\n    tag_386:\n        /* \"#utility.yul\":18065:18103   */\n      tag_388\n        /* \"#utility.yul\":18097:18101   */\n      dup3\n        /* \"#utility.yul\":18091:18102   */\n      sload\n        /* \"#utility.yul\":18065:18103   */\n      tag_44\n      jump\t// in\n    tag_388:\n        /* \"#utility.yul\":18150:18217   */\n      tag_389\n        /* \"#utility.yul\":18210:18216   */\n      dup3\n        /* \"#utility.yul\":18202:18208   */\n      dup3\n        /* \"#utility.yul\":18196:18200   */\n      dup6\n        /* \"#utility.yul\":18150:18217   */\n      tag_193\n      jump\t// in\n    tag_389:\n        /* \"#utility.yul\":18244:18245   */\n      0x00\n        /* \"#utility.yul\":18273:18275   */\n      0x1f\n        /* \"#utility.yul\":18265:18271   */\n      dup4\n        /* \"#utility.yul\":18262:18276   */\n      gt\n        /* \"#utility.yul\":18290:18291   */\n      0x01\n        /* \"#utility.yul\":18285:18961   */\n      dup2\n      eq\n      tag_391\n      jumpi\n        /* \"#utility.yul\":19005:19006   */\n      0x00\n        /* \"#utility.yul\":19022:19028   */\n      dup5\n        /* \"#utility.yul\":19019:19096   */\n      iszero\n      tag_392\n      jumpi\n        /* \"#utility.yul\":19071:19080   */\n      dup3\n        /* \"#utility.yul\":19066:19069   */\n      dup8\n        /* \"#utility.yul\":19062:19081   */\n      add\n        /* \"#utility.yul\":19056:19082   */\n      sload\n        /* \"#utility.yul\":19047:19082   */\n      swap1\n      pop\n        /* \"#utility.yul\":19019:19096   */\n    tag_392:\n        /* \"#utility.yul\":19122:19189   */\n      tag_393\n        /* \"#utility.yul\":19182:19188   */\n      dup6\n        /* \"#utility.yul\":19175:19180   */\n      dup3\n        /* \"#utility.yul\":19122:19189   */\n      tag_196\n      jump\t// in\n    tag_393:\n        /* \"#utility.yul\":19116:19120   */\n      dup7\n        /* \"#utility.yul\":19109:19190   */\n      sstore\n        /* \"#utility.yul\":18978:19200   */\n      pop\n        /* \"#utility.yul\":18255:19200   */\n      jump(tag_390)\n        /* \"#utility.yul\":18285:18961   */\n    tag_391:\n        /* \"#utility.yul\":18337:18341   */\n      0x1f\n        /* \"#utility.yul\":18333:18342   */\n      not\n        /* \"#utility.yul\":18325:18331   */\n      dup5\n        /* \"#utility.yul\":18321:18343   */\n      and\n        /* \"#utility.yul\":18363:18403   */\n      tag_394\n        /* \"#utility.yul\":18399:18402   */\n      dup8\n        /* \"#utility.yul\":18363:18403   */\n      tag_205\n      jump\t// in\n    tag_394:\n        /* \"#utility.yul\":18356:18403   */\n      swap7\n      pop\n        /* \"#utility.yul\":18430:18467   */\n      tag_395\n        /* \"#utility.yul\":18462:18466   */\n      dup7\n        /* \"#utility.yul\":18430:18467   */\n      tag_182\n      jump\t// in\n    tag_395:\n        /* \"#utility.yul\":18489:18490   */\n      0x00\n        /* \"#utility.yul\":18503:18710   */\n    tag_396:\n        /* \"#utility.yul\":18517:18524   */\n      dup3\n        /* \"#utility.yul\":18514:18515   */\n      dup2\n        /* \"#utility.yul\":18511:18525   */\n      lt\n        /* \"#utility.yul\":18503:18710   */\n      iszero\n      tag_398\n      jumpi\n        /* \"#utility.yul\":18596:18605   */\n      dup5\n        /* \"#utility.yul\":18591:18594   */\n      dup10\n        /* \"#utility.yul\":18587:18606   */\n      add\n        /* \"#utility.yul\":18581:18607   */\n      sload\n        /* \"#utility.yul\":18573:18579   */\n      dup3\n        /* \"#utility.yul\":18566:18608   */\n      sstore\n        /* \"#utility.yul\":18647:18648   */\n      0x01\n        /* \"#utility.yul\":18639:18645   */\n      dup3\n        /* \"#utility.yul\":18635:18649   */\n      add\n        /* \"#utility.yul\":18625:18649   */\n      swap2\n      pop\n        /* \"#utility.yul\":18694:18695   */\n      0x01\n        /* \"#utility.yul\":18683:18692   */\n      dup6\n        /* \"#utility.yul\":18679:18696   */\n      add\n        /* \"#utility.yul\":18666:18696   */\n      swap5\n      pop\n        /* \"#utility.yul\":18540:18544   */\n      0x20\n        /* \"#utility.yul\":18537:18538   */\n      dup2\n        /* \"#utility.yul\":18533:18545   */\n      add\n        /* \"#utility.yul\":18528:18545   */\n      swap1\n      pop\n        /* \"#utility.yul\":18503:18710   */\n      jump(tag_396)\n    tag_398:\n        /* \"#utility.yul\":18738:18744   */\n      dup7\n        /* \"#utility.yul\":18729:18736   */\n      dup4\n        /* \"#utility.yul\":18726:18745   */\n      lt\n        /* \"#utility.yul\":18723:18902   */\n      iszero\n      tag_399\n      jumpi\n        /* \"#utility.yul\":18796:18805   */\n      dup5\n        /* \"#utility.yul\":18791:18794   */\n      dup10\n        /* \"#utility.yul\":18787:18806   */\n      add\n        /* \"#utility.yul\":18781:18807   */\n      sload\n        /* \"#utility.yul\":18839:18887   */\n      tag_400\n        /* \"#utility.yul\":18881:18885   */\n      0x1f\n        /* \"#utility.yul\":18873:18879   */\n      dup10\n        /* \"#utility.yul\":18869:18886   */\n      and\n        /* \"#utility.yul\":18858:18867   */\n      dup3\n        /* \"#utility.yul\":18839:18887   */\n      tag_195\n      jump\t// in\n    tag_400:\n        /* \"#utility.yul\":18831:18837   */\n      dup4\n        /* \"#utility.yul\":18824:18888   */\n      sstore\n        /* \"#utility.yul\":18746:18902   */\n      pop\n        /* \"#utility.yul\":18723:18902   */\n    tag_399:\n        /* \"#utility.yul\":18948:18949   */\n      0x01\n        /* \"#utility.yul\":18944:18945   */\n      0x02\n        /* \"#utility.yul\":18936:18942   */\n      dup9\n        /* \"#utility.yul\":18932:18946   */\n      mul\n        /* \"#utility.yul\":18928:18950   */\n      add\n        /* \"#utility.yul\":18922:18926   */\n      dup9\n        /* \"#utility.yul\":18915:18951   */\n      sstore\n        /* \"#utility.yul\":18292:18961   */\n      pop\n      pop\n      pop\n        /* \"#utility.yul\":18255:19200   */\n    tag_390:\n      pop\n        /* \"#utility.yul\":17836:19206   */\n      pop\n      pop\n      pop\n        /* \"#utility.yul\":17743:19206   */\n      pop\n      pop\n    tag_383:\n      jump\t// out\n        /* \"#utility.yul\":19212:19379   */\n    tag_206:\n        /* \"#utility.yul\":19352:19371   */\n      0x64656c6574654c617374456c656d656e74000000000000000000000000000000\n        /* \"#utility.yul\":19348:19349   */\n      0x00\n        /* \"#utility.yul\":19340:19346   */\n      dup3\n        /* \"#utility.yul\":19336:19350   */\n      add\n        /* \"#utility.yul\":19329:19372   */\n      mstore\n        /* \"#utility.yul\":19212:19379   */\n      pop\n      jump\t// out\n        /* \"#utility.yul\":19385:19787   */\n    tag_207:\n        /* \"#utility.yul\":19545:19548   */\n      0x00\n        /* \"#utility.yul\":19566:19651   */\n      tag_403\n        /* \"#utility.yul\":19648:19650   */\n      0x11\n        /* \"#utility.yul\":19643:19646   */\n      dup4\n        /* \"#utility.yul\":19566:19651   */\n      tag_199\n      jump\t// in\n    tag_403:\n        /* \"#utility.yul\":19559:19651   */\n      swap2\n      pop\n        /* \"#utility.yul\":19660:19753   */\n      tag_404\n        /* \"#utility.yul\":19749:19752   */\n      dup3\n        /* \"#utility.yul\":19660:19753   */\n      tag_206\n      jump\t// in\n    tag_404:\n        /* \"#utility.yul\":19778:19780   */\n      0x11\n        /* \"#utility.yul\":19773:19776   */\n      dup3\n        /* \"#utility.yul\":19769:19781   */\n      add\n        /* \"#utility.yul\":19762:19781   */\n      swap1\n      pop\n        /* \"#utility.yul\":19385:19787   */\n      swap2\n      swap1\n      pop\n      jump\t// out\n        /* \"#utility.yul\":19793:20174   */\n    tag_122:\n        /* \"#utility.yul\":19978:19981   */\n      0x00\n        /* \"#utility.yul\":20000:20148   */\n      tag_406\n        /* \"#utility.yul\":20144:20147   */\n      dup3\n        /* \"#utility.yul\":20000:20148   */\n      tag_207\n      jump\t// in\n    tag_406:\n        /* \"#utility.yul\":19993:20148   */\n      swap2\n      pop\n        /* \"#utility.yul\":20165:20168   */\n      dup2\n        /* \"#utility.yul\":20158:20168   */\n      swap1\n      pop\n        /* \"#utility.yul\":19793:20174   */\n      swap2\n      swap1\n      pop\n      jump\t// out\n        /* \"#utility.yul\":20180:20360   */\n    tag_208:\n        /* \"#utility.yul\":20228:20305   */\n      0x4e487b7100000000000000000000000000000000000000000000000000000000\n        /* \"#utility.yul\":20225:20226   */\n      0x00\n        /* \"#utility.yul\":20218:20306   */\n      mstore\n        /* \"#utility.yul\":20325:20329   */\n      0x11\n        /* \"#utility.yul\":20322:20323   */\n      0x04\n        /* \"#utility.yul\":20315:20330   */\n      mstore\n        /* \"#utility.yul\":20349:20353   */\n      0x24\n        /* \"#utility.yul\":20346:20347   */\n      0x00\n        /* \"#utility.yul\":20339:20354   */\n      revert\n        /* \"#utility.yul\":20366:20560   */\n    tag_124:\n        /* \"#utility.yul\":20406:20410   */\n      0x00\n        /* \"#utility.yul\":20426:20446   */\n      tag_409\n        /* \"#utility.yul\":20444:20445   */\n      dup3\n        /* \"#utility.yul\":20426:20446   */\n      tag_159\n      jump\t// in\n    tag_409:\n        /* \"#utility.yul\":20421:20446   */\n      swap2\n      pop\n        /* \"#utility.yul\":20460:20480   */\n      tag_410\n        /* \"#utility.yul\":20478:20479   */\n      dup4\n        /* \"#utility.yul\":20460:20480   */\n      tag_159\n      jump\t// in\n    tag_410:\n        /* \"#utility.yul\":20455:20480   */\n      swap3\n      pop\n        /* \"#utility.yul\":20504:20505   */\n      dup3\n        /* \"#utility.yul\":20501:20502   */\n      dup3\n        /* \"#utility.yul\":20497:20506   */\n      sub\n        /* \"#utility.yul\":20489:20506   */\n      swap1\n      pop\n        /* \"#utility.yul\":20528:20529   */\n      dup2\n        /* \"#utility.yul\":20522:20526   */\n      dup2\n        /* \"#utility.yul\":20519:20530   */\n      gt\n        /* \"#utility.yul\":20516:20553   */\n      iszero\n      tag_411\n      jumpi\n        /* \"#utility.yul\":20533:20551   */\n      tag_412\n      tag_208\n      jump\t// in\n    tag_412:\n        /* \"#utility.yul\":20516:20553   */\n    tag_411:\n        /* \"#utility.yul\":20366:20560   */\n      swap3\n      swap2\n      pop\n      pop\n      jump\t// out\n        /* \"#utility.yul\":20590:21421   */\n    tag_209:\n        /* \"#utility.yul\":20675:20678   */\n      0x00\n        /* \"#utility.yul\":20712:20717   */\n      dup2\n        /* \"#utility.yul\":20706:20718   */\n      sload\n        /* \"#utility.yul\":20741:20777   */\n      tag_414\n        /* \"#utility.yul\":20767:20776   */\n      dup2\n        /* \"#utility.yul\":20741:20777   */\n      tag_44\n      jump\t// in\n    tag_414:\n        /* \"#utility.yul\":20793:20864   */\n      tag_415\n        /* \"#utility.yul\":20857:20863   */\n      dup2\n        /* \"#utility.yul\":20852:20855   */\n      dup7\n        /* \"#utility.yul\":20793:20864   */\n      tag_152\n      jump\t// in\n    tag_415:\n        /* \"#utility.yul\":20786:20864   */\n      swap5\n      pop\n        /* \"#utility.yul\":20895:20896   */\n      0x01\n        /* \"#utility.yul\":20884:20893   */\n      dup3\n        /* \"#utility.yul\":20880:20897   */\n      and\n        /* \"#utility.yul\":20911:20912   */\n      0x00\n        /* \"#utility.yul\":20906:21070   */\n      dup2\n      eq\n      tag_417\n      jumpi\n        /* \"#utility.yul\":21084:21085   */\n      0x01\n        /* \"#utility.yul\":21079:21415   */\n      dup2\n      eq\n      tag_418\n      jumpi\n        /* \"#utility.yul\":20873:21415   */\n      jump(tag_416)\n        /* \"#utility.yul\":20906:21070   */\n    tag_417:\n        /* \"#utility.yul\":20990:20994   */\n      0xff\n        /* \"#utility.yul\":20986:20995   */\n      not\n        /* \"#utility.yul\":20975:20984   */\n      dup4\n        /* \"#utility.yul\":20971:20996   */\n      and\n        /* \"#utility.yul\":20966:20969   */\n      dup7\n        /* \"#utility.yul\":20959:20997   */\n      mstore\n        /* \"#utility.yul\":21050:21056   */\n      dup2\n        /* \"#utility.yul\":21043:21057   */\n      iszero\n        /* \"#utility.yul\":21036:21058   */\n      iszero\n        /* \"#utility.yul\":21030:21034   */\n      0x20\n        /* \"#utility.yul\":21026:21059   */\n      mul\n        /* \"#utility.yul\":21021:21024   */\n      dup7\n        /* \"#utility.yul\":21017:21060   */\n      add\n        /* \"#utility.yul\":21010:21060   */\n      swap4\n      pop\n        /* \"#utility.yul\":20906:21070   */\n      jump(tag_416)\n        /* \"#utility.yul\":21079:21415   */\n    tag_418:\n        /* \"#utility.yul\":21146:21184   */\n      tag_419\n        /* \"#utility.yul\":21178:21183   */\n      dup6\n        /* \"#utility.yul\":21146:21184   */\n      tag_182\n      jump\t// in\n    tag_419:\n        /* \"#utility.yul\":21206:21207   */\n      0x00\n        /* \"#utility.yul\":21220:21374   */\n    tag_420:\n        /* \"#utility.yul\":21234:21240   */\n      dup4\n        /* \"#utility.yul\":21231:21232   */\n      dup2\n        /* \"#utility.yul\":21228:21241   */\n      lt\n        /* \"#utility.yul\":21220:21374   */\n      iszero\n      tag_422\n      jumpi\n        /* \"#utility.yul\":21308:21315   */\n      dup2\n        /* \"#utility.yul\":21302:21316   */\n      sload\n        /* \"#utility.yul\":21298:21299   */\n      dup2\n        /* \"#utility.yul\":21293:21296   */\n      dup10\n        /* \"#utility.yul\":21289:21300   */\n      add\n        /* \"#utility.yul\":21282:21317   */\n      mstore\n        /* \"#utility.yul\":21358:21359   */\n      0x01\n        /* \"#utility.yul\":21349:21356   */\n      dup3\n        /* \"#utility.yul\":21345:21360   */\n      add\n        /* \"#utility.yul\":21334:21360   */\n      swap2\n      pop\n        /* \"#utility.yul\":21256:21260   */\n      0x20\n        /* \"#utility.yul\":21253:21254   */\n      dup2\n        /* \"#utility.yul\":21249:21261   */\n      add\n        /* \"#utility.yul\":21244:21261   */\n      swap1\n      pop\n        /* \"#utility.yul\":21220:21374   */\n      jump(tag_420)\n    tag_422:\n        /* \"#utility.yul\":21403:21404   */\n      dup1\n        /* \"#utility.yul\":21398:21401   */\n      dup9\n        /* \"#utility.yul\":21394:21405   */\n      add\n        /* \"#utility.yul\":21387:21405   */\n      swap6\n      pop\n        /* \"#utility.yul\":21086:21415   */\n      pop\n      pop\n        /* \"#utility.yul\":20873:21415   */\n    tag_416:\n      pop\n        /* \"#utility.yul\":20679:21421   */\n      pop\n      pop\n        /* \"#utility.yul\":20590:21421   */\n      swap3\n      swap2\n      pop\n      pop\n      jump\t// out\n        /* \"#utility.yul\":21427:21734   */\n    tag_129:\n        /* \"#utility.yul\":21537:21541   */\n      0x00\n        /* \"#utility.yul\":21575:21577   */\n      0x20\n        /* \"#utility.yul\":21564:21573   */\n      dup3\n        /* \"#utility.yul\":21560:21578   */\n      add\n        /* \"#utility.yul\":21552:21578   */\n      swap1\n      pop\n        /* \"#utility.yul\":21624:21633   */\n      dup2\n        /* \"#utility.yul\":21618:21622   */\n      dup2\n        /* \"#utility.yul\":21614:21634   */\n      sub\n        /* \"#utility.yul\":21610:21611   */\n      0x00\n        /* \"#utility.yul\":21599:21608   */\n      dup4\n        /* \"#utility.yul\":21595:21612   */\n      add\n        /* \"#utility.yul\":21588:21635   */\n      mstore\n        /* \"#utility.yul\":21652:21727   */\n      tag_424\n        /* \"#utility.yul\":21722:21726   */\n      dup2\n        /* \"#utility.yul\":21713:21719   */\n      dup5\n        /* \"#utility.yul\":21652:21727   */\n      tag_209\n      jump\t// in\n    tag_424:\n        /* \"#utility.yul\":21644:21727   */\n      swap1\n      pop\n        /* \"#utility.yul\":21427:21734   */\n      swap3\n      swap2\n      pop\n      pop\n      jump\t// out\n        /* \"#utility.yul\":21740:21920   */\n    tag_132:\n        /* \"#utility.yul\":21788:21865   */\n      0x4e487b7100000000000000000000000000000000000000000000000000000000\n        /* \"#utility.yul\":21785:21786   */\n      0x00\n        /* \"#utility.yul\":21778:21866   */\n      mstore\n        /* \"#utility.yul\":21885:21889   */\n      0x31\n        /* \"#utility.yul\":21882:21883   */\n      0x04\n        /* \"#utility.yul\":21875:21890   */\n      mstore\n        /* \"#utility.yul\":21909:21913   */\n      0x24\n        /* \"#utility.yul\":21906:21907   */\n      0x00\n        /* \"#utility.yul\":21899:21914   */\n      revert\n\n    auxdata: 0xa26469706673582212203ba46fc09423b1bfc15de6bdc6f68e938e9878f55e1dfde9ea5dc6250b471baa64736f6c634300081a0033\n}\n",
				"bytecode": {
					"linkReferences": {},
					"object": "6080604052348015600e575f80fd5b503360025f6101000a81548173ffffffffffffffffffffffffffffffffffffffff021916908373ffffffffffffffffffffffffffffffffffffffff1602179055506115e48061005c5f395ff3fe608060405234801561000f575f80fd5b5060043610610086575f3560e01c80639ab03dcb116100595780639ab03dcb14610110578063c47f00271461012e578063dfc63b3e1461014a578063f8bd77721461017a57610086565b806306fdde031461008a5780632ed84c5a146100a85780634622ab03146100c4578063932754f9146100f4575b5f80fd5b610092610198565b60405161009f9190610ae5565b60405180910390f35b6100c260048036038101906100bd9190610c75565b610223565b005b6100de60048036038101906100d99190610ccf565b610364565b6040516100eb9190610ae5565b60405180910390f35b61010e60048036038101906101099190610cfa565b61040a565b005b61011861050e565b6040516101259190610ae5565b60405180910390f35b61014860048036038101906101439190610cfa565b61059a565b005b610164600480360381019061015f9190610ccf565b6106cf565b6040516101719190610ae5565b60405180910390f35b61018261088e565b60405161018f9190610e44565b60405180910390f35b5f80546101a490610e91565b80601f01602080910402602001604051908101604052809291908181526020018280546101d090610e91565b801561021b5780601f106101f25761010080835404028352916020019161021b565b820191905f5260205f20905b8154815290600101906020018083116101fe57829003601f168201915b505050505081565b6003805480602002602001604051908101604052809291908181526020015f905b828210156102ec578382905f5260205f2001805461026190610e91565b80601f016020809104026020016040519081016040528092919081815260200182805461028d90610e91565b80156102d85780601f106102af576101008083540402835291602001916102d8565b820191905f5260205f20905b8154815290600101906020018083116102bb57829003601f168201915b505050505081526020019060010190610244565b505050508281518110610334576040517f08c379a000000000000000000000000000000000000000000000000000000000815260040161032b90610f0b565b60405180910390fd5b826003858154811061034957610348610f29565b5b905f5260205f2001908161035d91906110f3565b5050505050565b60038181548110610373575f80fd5b905f5260205f20015f91509050805461038b90610e91565b80601f01602080910402602001604051908101604052809291908181526020018280546103b790610e91565b80156104025780601f106103d957610100808354040283529160200191610402565b820191905f5260205f20905b8154815290600101906020018083116103e557829003601f168201915b505050505081565b3373ffffffffffffffffffffffffffffffffffffffff1660025f9054906101000a900473ffffffffffffffffffffffffffffffffffffffff1673ffffffffffffffffffffffffffffffffffffffff1614610499576040517f08c379a000000000000000000000000000000000000000000000000000000000815260040161049090611232565b60405180910390fd5b6040516104a5906112a4565b60405180910390203373ffffffffffffffffffffffffffffffffffffffff167fde4389d0e2b82c1da27da351a07c61a1c281a257dd810bc7fad7e95a2fffd0d2836040516104f39190610ae5565b60405180910390a3806001908161050a91906110f3565b5050565b6001805461051b90610e91565b80601f016020809104026020016040519081016040528092919081815260200182805461054790610e91565b80156105925780601f1061056957610100808354040283529160200191610592565b820191905f5260205f20905b81548152906001019060200180831161057557829003601f168201915b505050505081565b3373ffffffffffffffffffffffffffffffffffffffff1660025f9054906101000a900473ffffffffffffffffffffffffffffffffffffffff1673ffffffffffffffffffffffffffffffffffffffff1614610629576040517f08c379a000000000000000000000000000000000000000000000000000000000815260040161062090611232565b60405180910390fd5b60405161063590611302565b60405180910390203373ffffffffffffffffffffffffffffffffffffffff167fde4389d0e2b82c1da27da351a07c61a1c281a257dd810bc7fad7e95a2fffd0d2836040516106839190610ae5565b60405180910390a3805f908161069991906110f3565b5060035f908060018154018082558091505060019003905f5260205f20015f9091909190915090816106cb919061133d565b5050565b60606003805480602002602001604051908101604052809291908181526020015f905b8282101561079a578382905f5260205f2001805461070f90610e91565b80601f016020809104026020016040519081016040528092919081815260200182805461073b90610e91565b80156107865780601f1061075d57610100808354040283529160200191610786565b820191905f5260205f20905b81548152906001019060200180831161076957829003601f168201915b5050505050815260200190600101906106f2565b5050505082815181106107e2576040517f08c379a00000000000000000000000000000000000000000000000000000000081526004016107d990610f0b565b60405180910390fd5b600384815481106107f6576107f5610f29565b5b905f5260205f2001805461080990610e91565b80601f016020809104026020016040519081016040528092919081815260200182805461083590610e91565b80156108805780601f1061085757610100808354040283529160200191610880565b820191905f5260205f20905b81548152906001019060200180831161086357829003601f168201915b505050505092505050919050565b606060405161089c9061146c565b60405180910390203373ffffffffffffffffffffffffffffffffffffffff167fde4389d0e2b82c1da27da351a07c61a1c281a257dd810bc7fad7e95a2fffd0d2600360016003805490506108f091906114ad565b8154811061090157610900610f29565b5b905f5260205f20016040516109169190611561565b60405180910390a360038054806109305761092f611581565b5b600190038181905f5260205f20015f6109499190610a1d565b90556003805480602002602001604051908101604052809291908181526020015f905b82821015610a14578382905f5260205f2001805461098990610e91565b80601f01602080910402602001604051908101604052809291908181526020018280546109b590610e91565b8015610a005780601f106109d757610100808354040283529160200191610a00565b820191905f5260205f20905b8154815290600101906020018083116109e357829003601f168201915b50505050508152602001906001019061096c565b50505050905090565b508054610a2990610e91565b5f825580601f10610a3a5750610a57565b601f0160209004905f5260205f2090810190610a569190610a5a565b5b50565b5b80821115610a71575f815f905550600101610a5b565b5090565b5f81519050919050565b5f82825260208201905092915050565b8281835e5f83830152505050565b5f601f19601f8301169050919050565b5f610ab782610a75565b610ac18185610a7f565b9350610ad1818560208601610a8f565b610ada81610a9d565b840191505092915050565b5f6020820190508181035f830152610afd8184610aad565b905092915050565b5f604051905090565b5f80fd5b5f80fd5b5f819050919050565b610b2881610b16565b8114610b32575f80fd5b50565b5f81359050610b4381610b1f565b92915050565b5f80fd5b5f80fd5b7f4e487b71000000000000000000000000000000000000000000000000000000005f52604160045260245ffd5b610b8782610a9d565b810181811067ffffffffffffffff82111715610ba657610ba5610b51565b5b80604052505050565b5f610bb8610b05565b9050610bc48282610b7e565b919050565b5f67ffffffffffffffff821115610be357610be2610b51565b5b610bec82610a9d565b9050602081019050919050565b828183375f83830152505050565b5f610c19610c1484610bc9565b610baf565b905082815260208101848484011115610c3557610c34610b4d565b5b610c40848285610bf9565b509392505050565b5f82601f830112610c5c57610c5b610b49565b5b8135610c6c848260208601610c07565b91505092915050565b5f8060408385031215610c8b57610c8a610b0e565b5b5f610c9885828601610b35565b925050602083013567ffffffffffffffff811115610cb957610cb8610b12565b5b610cc585828601610c48565b9150509250929050565b5f60208284031215610ce457610ce3610b0e565b5b5f610cf184828501610b35565b91505092915050565b5f60208284031215610d0f57610d0e610b0e565b5b5f82013567ffffffffffffffff811115610d2c57610d2b610b12565b5b610d3884828501610c48565b91505092915050565b5f81519050919050565b5f82825260208201905092915050565b5f819050602082019050919050565b5f82825260208201905092915050565b5f610d8482610a75565b610d8e8185610d6a565b9350610d9e818560208601610a8f565b610da781610a9d565b840191505092915050565b5f610dbd8383610d7a565b905092915050565b5f602082019050919050565b5f610ddb82610d41565b610de58185610d4b565b935083602082028501610df785610d5b565b805f5b85811015610e325784840389528151610e138582610db2565b9450610e1e83610dc5565b925060208a01995050600181019050610dfa565b50829750879550505050505092915050565b5f6020820190508181035f830152610e5c8184610dd1565b905092915050565b7f4e487b71000000000000000000000000000000000000000000000000000000005f52602260045260245ffd5b5f6002820490506001821680610ea857607f821691505b602082108103610ebb57610eba610e64565b5b50919050565b7f496e646578206f7574206f6620626f756e6473000000000000000000000000005f82015250565b5f610ef5601383610a7f565b9150610f0082610ec1565b602082019050919050565b5f6020820190508181035f830152610f2281610ee9565b9050919050565b7f4e487b71000000000000000000000000000000000000000000000000000000005f52603260045260245ffd5b5f819050815f5260205f209050919050565b5f6020601f8301049050919050565b5f82821b905092915050565b5f60088302610fb27fffffffffffffffffffffffffffffffffffffffffffffffffffffffffffffffff82610f77565b610fbc8683610f77565b95508019841693508086168417925050509392505050565b5f819050919050565b5f610ff7610ff2610fed84610b16565b610fd4565b610b16565b9050919050565b5f819050919050565b61101083610fdd565b61102461101c82610ffe565b848454610f83565b825550505050565b5f90565b61103861102c565b611043818484611007565b505050565b5b818110156110665761105b5f82611030565b600181019050611049565b5050565b601f8211156110ab5761107c81610f56565b61108584610f68565b81016020851015611094578190505b6110a86110a085610f68565b830182611048565b50505b505050565b5f82821c905092915050565b5f6110cb5f19846008026110b0565b1980831691505092915050565b5f6110e383836110bc565b9150826002028217905092915050565b6110fc82610a75565b67ffffffffffffffff81111561111557611114610b51565b5b61111f8254610e91565b61112a82828561106a565b5f60209050601f83116001811461115b575f8415611149578287015190505b61115385826110d8565b8655506111ba565b601f19841661116986610f56565b5f5b828110156111905784890151825560018201915060208501945060208101905061116b565b868310156111ad57848901516111a9601f8916826110bc565b8355505b6001600288020188555050505b505050505050565b7f4f6e6c7920746865206f776e65722063616e206d6f646966792074686520636f5f8201527f6e74726163740000000000000000000000000000000000000000000000000000602082015250565b5f61121c602683610a7f565b9150611227826111c2565b604082019050919050565b5f6020820190508181035f83015261124981611210565b9050919050565b5f81905092915050565b7f4c617374204e616d6500000000000000000000000000000000000000000000005f82015250565b5f61128e600983611250565b91506112998261125a565b600982019050919050565b5f6112ae82611282565b9150819050919050565b7f4e616d65000000000000000000000000000000000000000000000000000000005f82015250565b5f6112ec600483611250565b91506112f7826112b8565b600482019050919050565b5f61130c826112e0565b9150819050919050565b5f8154905061132481610e91565b9050919050565b5f819050815f5260205f209050919050565b81810361134b575050611420565b61135482611316565b67ffffffffffffffff81111561136d5761136c610b51565b5b6113778254610e91565b61138282828561106a565b5f601f8311600181146113af575f841561139d578287015490505b6113a785826110d8565b865550611419565b601f1984166113bd8761132b565b96506113c886610f56565b5f5b828110156113ef578489015482556001820191506001850194506020810190506113ca565b8683101561140c5784890154611408601f8916826110bc565b8355505b6001600288020188555050505b5050505050505b565b7f64656c6574654c617374456c656d656e740000000000000000000000000000005f82015250565b5f611456601183611250565b915061146182611422565b601182019050919050565b5f6114768261144a565b9150819050919050565b7f4e487b71000000000000000000000000000000000000000000000000000000005f52601160045260245ffd5b5f6114b782610b16565b91506114c283610b16565b92508282039050818111156114da576114d9611480565b5b92915050565b5f81546114ec81610e91565b6114f68186610a7f565b9450600182165f8114611510576001811461152657611558565b60ff198316865281151560200286019350611558565b61152f85610f56565b5f5b8381101561155057815481890152600182019150602081019050611531565b808801955050505b50505092915050565b5f6020820190508181035f83015261157981846114e0565b905092915050565b7f4e487b71000000000000000000000000000000000000000000000000000000005f52603160045260245ffdfea26469706673582212203ba46fc09423b1bfc15de6bdc6f68e938e9878f55e1dfde9ea5dc6250b471baa64736f6c634300081a0033",
					"opcodes": "PUSH1 0x80 PUSH1 0x40 MSTORE CALLVALUE DUP1 ISZERO PUSH1 0xE JUMPI PUSH0 DUP1 REVERT JUMPDEST POP CALLER PUSH1 0x2 PUSH0 PUSH2 0x100 EXP DUP2 SLOAD DUP2 PUSH20 0xFFFFFFFFFFFFFFFFFFFFFFFFFFFFFFFFFFFFFFFF MUL NOT AND SWAP1 DUP4 PUSH20 0xFFFFFFFFFFFFFFFFFFFFFFFFFFFFFFFFFFFFFFFF AND MUL OR SWAP1 SSTORE POP PUSH2 0x15E4 DUP1 PUSH2 0x5C PUSH0 CODECOPY PUSH0 RETURN INVALID PUSH1 0x80 PUSH1 0x40 MSTORE CALLVALUE DUP1 ISZERO PUSH2 0xF JUMPI PUSH0 DUP1 REVERT JUMPDEST POP PUSH1 0x4 CALLDATASIZE LT PUSH2 0x86 JUMPI PUSH0 CALLDATALOAD PUSH1 0xE0 SHR DUP1 PUSH4 0x9AB03DCB GT PUSH2 0x59 JUMPI DUP1 PUSH4 0x9AB03DCB EQ PUSH2 0x110 JUMPI DUP1 PUSH4 0xC47F0027 EQ PUSH2 0x12E JUMPI DUP1 PUSH4 0xDFC63B3E EQ PUSH2 0x14A JUMPI DUP1 PUSH4 0xF8BD7772 EQ PUSH2 0x17A JUMPI PUSH2 0x86 JUMP JUMPDEST DUP1 PUSH4 0x6FDDE03 EQ PUSH2 0x8A JUMPI DUP1 PUSH4 0x2ED84C5A EQ PUSH2 0xA8 JUMPI DUP1 PUSH4 0x4622AB03 EQ PUSH2 0xC4 JUMPI DUP1 PUSH4 0x932754F9 EQ PUSH2 0xF4 JUMPI JUMPDEST PUSH0 DUP1 REVERT JUMPDEST PUSH2 0x92 PUSH2 0x198 JUMP JUMPDEST PUSH1 0x40 MLOAD PUSH2 0x9F SWAP2 SWAP1 PUSH2 0xAE5 JUMP JUMPDEST PUSH1 0x40 MLOAD DUP1 SWAP2 SUB SWAP1 RETURN JUMPDEST PUSH2 0xC2 PUSH1 0x4 DUP1 CALLDATASIZE SUB DUP2 ADD SWAP1 PUSH2 0xBD SWAP2 SWAP1 PUSH2 0xC75 JUMP JUMPDEST PUSH2 0x223 JUMP JUMPDEST STOP JUMPDEST PUSH2 0xDE PUSH1 0x4 DUP1 CALLDATASIZE SUB DUP2 ADD SWAP1 PUSH2 0xD9 SWAP2 SWAP1 PUSH2 0xCCF JUMP JUMPDEST PUSH2 0x364 JUMP JUMPDEST PUSH1 0x40 MLOAD PUSH2 0xEB SWAP2 SWAP1 PUSH2 0xAE5 JUMP JUMPDEST PUSH1 0x40 MLOAD DUP1 SWAP2 SUB SWAP1 RETURN JUMPDEST PUSH2 0x10E PUSH1 0x4 DUP1 CALLDATASIZE SUB DUP2 ADD SWAP1 PUSH2 0x109 SWAP2 SWAP1 PUSH2 0xCFA JUMP JUMPDEST PUSH2 0x40A JUMP JUMPDEST STOP JUMPDEST PUSH2 0x118 PUSH2 0x50E JUMP JUMPDEST PUSH1 0x40 MLOAD PUSH2 0x125 SWAP2 SWAP1 PUSH2 0xAE5 JUMP JUMPDEST PUSH1 0x40 MLOAD DUP1 SWAP2 SUB SWAP1 RETURN JUMPDEST PUSH2 0x148 PUSH1 0x4 DUP1 CALLDATASIZE SUB DUP2 ADD SWAP1 PUSH2 0x143 SWAP2 SWAP1 PUSH2 0xCFA JUMP JUMPDEST PUSH2 0x59A JUMP JUMPDEST STOP JUMPDEST PUSH2 0x164 PUSH1 0x4 DUP1 CALLDATASIZE SUB DUP2 ADD SWAP1 PUSH2 0x15F SWAP2 SWAP1 PUSH2 0xCCF JUMP JUMPDEST PUSH2 0x6CF JUMP JUMPDEST PUSH1 0x40 MLOAD PUSH2 0x171 SWAP2 SWAP1 PUSH2 0xAE5 JUMP JUMPDEST PUSH1 0x40 MLOAD DUP1 SWAP2 SUB SWAP1 RETURN JUMPDEST PUSH2 0x182 PUSH2 0x88E JUMP JUMPDEST PUSH1 0x40 MLOAD PUSH2 0x18F SWAP2 SWAP1 PUSH2 0xE44 JUMP JUMPDEST PUSH1 0x40 MLOAD DUP1 SWAP2 SUB SWAP1 RETURN JUMPDEST PUSH0 DUP1 SLOAD PUSH2 0x1A4 SWAP1 PUSH2 0xE91 JUMP JUMPDEST DUP1 PUSH1 0x1F ADD PUSH1 0x20 DUP1 SWAP2 DIV MUL PUSH1 0x20 ADD PUSH1 0x40 MLOAD SWAP1 DUP2 ADD PUSH1 0x40 MSTORE DUP1 SWAP3 SWAP2 SWAP1 DUP2 DUP2 MSTORE PUSH1 0x20 ADD DUP3 DUP1 SLOAD PUSH2 0x1D0 SWAP1 PUSH2 0xE91 JUMP JUMPDEST DUP1 ISZERO PUSH2 0x21B JUMPI DUP1 PUSH1 0x1F LT PUSH2 0x1F2 JUMPI PUSH2 0x100 DUP1 DUP4 SLOAD DIV MUL DUP4 MSTORE SWAP2 PUSH1 0x20 ADD SWAP2 PUSH2 0x21B JUMP JUMPDEST DUP3 ADD SWAP2 SWAP1 PUSH0 MSTORE PUSH1 0x20 PUSH0 KECCAK256 SWAP1 JUMPDEST DUP2 SLOAD DUP2 MSTORE SWAP1 PUSH1 0x1 ADD SWAP1 PUSH1 0x20 ADD DUP1 DUP4 GT PUSH2 0x1FE JUMPI DUP3 SWAP1 SUB PUSH1 0x1F AND DUP3 ADD SWAP2 JUMPDEST POP POP POP POP POP DUP2 JUMP JUMPDEST PUSH1 0x3 DUP1 SLOAD DUP1 PUSH1 0x20 MUL PUSH1 0x20 ADD PUSH1 0x40 MLOAD SWAP1 DUP2 ADD PUSH1 0x40 MSTORE DUP1 SWAP3 SWAP2 SWAP1 DUP2 DUP2 MSTORE PUSH1 0x20 ADD PUSH0 SWAP1 JUMPDEST DUP3 DUP3 LT ISZERO PUSH2 0x2EC JUMPI DUP4 DUP3 SWAP1 PUSH0 MSTORE PUSH1 0x20 PUSH0 KECCAK256 ADD DUP1 SLOAD PUSH2 0x261 SWAP1 PUSH2 0xE91 JUMP JUMPDEST DUP1 PUSH1 0x1F ADD PUSH1 0x20 DUP1 SWAP2 DIV MUL PUSH1 0x20 ADD PUSH1 0x40 MLOAD SWAP1 DUP2 ADD PUSH1 0x40 MSTORE DUP1 SWAP3 SWAP2 SWAP1 DUP2 DUP2 MSTORE PUSH1 0x20 ADD DUP3 DUP1 SLOAD PUSH2 0x28D SWAP1 PUSH2 0xE91 JUMP JUMPDEST DUP1 ISZERO PUSH2 0x2D8 JUMPI DUP1 PUSH1 0x1F LT PUSH2 0x2AF JUMPI PUSH2 0x100 DUP1 DUP4 SLOAD DIV MUL DUP4 MSTORE SWAP2 PUSH1 0x20 ADD SWAP2 PUSH2 0x2D8 JUMP JUMPDEST DUP3 ADD SWAP2 SWAP1 PUSH0 MSTORE PUSH1 0x20 PUSH0 KECCAK256 SWAP1 JUMPDEST DUP2 SLOAD DUP2 MSTORE SWAP1 PUSH1 0x1 ADD SWAP1 PUSH1 0x20 ADD DUP1 DUP4 GT PUSH2 0x2BB JUMPI DUP3 SWAP1 SUB PUSH1 0x1F AND DUP3 ADD SWAP2 JUMPDEST POP POP POP POP POP DUP2 MSTORE PUSH1 0x20 ADD SWAP1 PUSH1 0x1 ADD SWAP1 PUSH2 0x244 JUMP JUMPDEST POP POP POP POP DUP3 DUP2 MLOAD DUP2 LT PUSH2 0x334 JUMPI PUSH1 0x40 MLOAD PUSH32 0x8C379A000000000000000000000000000000000000000000000000000000000 DUP2 MSTORE PUSH1 0x4 ADD PUSH2 0x32B SWAP1 PUSH2 0xF0B JUMP JUMPDEST PUSH1 0x40 MLOAD DUP1 SWAP2 SUB SWAP1 REVERT JUMPDEST DUP3 PUSH1 0x3 DUP6 DUP2 SLOAD DUP2 LT PUSH2 0x349 JUMPI PUSH2 0x348 PUSH2 0xF29 JUMP JUMPDEST JUMPDEST SWAP1 PUSH0 MSTORE PUSH1 0x20 PUSH0 KECCAK256 ADD SWAP1 DUP2 PUSH2 0x35D SWAP2 SWAP1 PUSH2 0x10F3 JUMP JUMPDEST POP POP POP POP POP JUMP JUMPDEST PUSH1 0x3 DUP2 DUP2 SLOAD DUP2 LT PUSH2 0x373 JUMPI PUSH0 DUP1 REVERT JUMPDEST SWAP1 PUSH0 MSTORE PUSH1 0x20 PUSH0 KECCAK256 ADD PUSH0 SWAP2 POP SWAP1 POP DUP1 SLOAD PUSH2 0x38B SWAP1 PUSH2 0xE91 JUMP JUMPDEST DUP1 PUSH1 0x1F ADD PUSH1 0x20 DUP1 SWAP2 DIV MUL PUSH1 0x20 ADD PUSH1 0x40 MLOAD SWAP1 DUP2 ADD PUSH1 0x40 MSTORE DUP1 SWAP3 SWAP2 SWAP1 DUP2 DUP2 MSTORE PUSH1 0x20 ADD DUP3 DUP1 SLOAD PUSH2 0x3B7 SWAP1 PUSH2 0xE91 JUMP JUMPDEST DUP1 ISZERO PUSH2 0x402 JUMPI DUP1 PUSH1 0x1F LT PUSH2 0x3D9 JUMPI PUSH2 0x100 DUP1 DUP4 SLOAD DIV MUL DUP4 MSTORE SWAP2 PUSH1 0x20 ADD SWAP2 PUSH2 0x402 JUMP JUMPDEST DUP3 ADD SWAP2 SWAP1 PUSH0 MSTORE PUSH1 0x20 PUSH0 KECCAK256 SWAP1 JUMPDEST DUP2 SLOAD DUP2 MSTORE SWAP1 PUSH1 0x1 ADD SWAP1 PUSH1 0x20 ADD DUP1 DUP4 GT PUSH2 0x3E5 JUMPI DUP3 SWAP1 SUB PUSH1 0x1F AND DUP3 ADD SWAP2 JUMPDEST POP POP POP POP POP DUP2 JUMP JUMPDEST CALLER PUSH20 0xFFFFFFFFFFFFFFFFFFFFFFFFFFFFFFFFFFFFFFFF AND PUSH1 0x2 PUSH0 SWAP1 SLOAD SWAP1 PUSH2 0x100 EXP SWAP1 DIV PUSH20 0xFFFFFFFFFFFFFFFFFFFFFFFFFFFFFFFFFFFFFFFF AND PUSH20 0xFFFFFFFFFFFFFFFFFFFFFFFFFFFFFFFFFFFFFFFF AND EQ PUSH2 0x499 JUMPI PUSH1 0x40 MLOAD PUSH32 0x8C379A000000000000000000000000000000000000000000000000000000000 DUP2 MSTORE PUSH1 0x4 ADD PUSH2 0x490 SWAP1 PUSH2 0x1232 JUMP JUMPDEST PUSH1 0x40 MLOAD DUP1 SWAP2 SUB SWAP1 REVERT JUMPDEST PUSH1 0x40 MLOAD PUSH2 0x4A5 SWAP1 PUSH2 0x12A4 JUMP JUMPDEST PUSH1 0x40 MLOAD DUP1 SWAP2 SUB SWAP1 KECCAK256 CALLER PUSH20 0xFFFFFFFFFFFFFFFFFFFFFFFFFFFFFFFFFFFFFFFF AND PUSH32 0xDE4389D0E2B82C1DA27DA351A07C61A1C281A257DD810BC7FAD7E95A2FFFD0D2 DUP4 PUSH1 0x40 MLOAD PUSH2 0x4F3 SWAP2 SWAP1 PUSH2 0xAE5 JUMP JUMPDEST PUSH1 0x40 MLOAD DUP1 SWAP2 SUB SWAP1 LOG3 DUP1 PUSH1 0x1 SWAP1 DUP2 PUSH2 0x50A SWAP2 SWAP1 PUSH2 0x10F3 JUMP JUMPDEST POP POP JUMP JUMPDEST PUSH1 0x1 DUP1 SLOAD PUSH2 0x51B SWAP1 PUSH2 0xE91 JUMP JUMPDEST DUP1 PUSH1 0x1F ADD PUSH1 0x20 DUP1 SWAP2 DIV MUL PUSH1 0x20 ADD PUSH1 0x40 MLOAD SWAP1 DUP2 ADD PUSH1 0x40 MSTORE DUP1 SWAP3 SWAP2 SWAP1 DUP2 DUP2 MSTORE PUSH1 0x20 ADD DUP3 DUP1 SLOAD PUSH2 0x547 SWAP1 PUSH2 0xE91 JUMP JUMPDEST DUP1 ISZERO PUSH2 0x592 JUMPI DUP1 PUSH1 0x1F LT PUSH2 0x569 JUMPI PUSH2 0x100 DUP1 DUP4 SLOAD DIV MUL DUP4 MSTORE SWAP2 PUSH1 0x20 ADD SWAP2 PUSH2 0x592 JUMP JUMPDEST DUP3 ADD SWAP2 SWAP1 PUSH0 MSTORE PUSH1 0x20 PUSH0 KECCAK256 SWAP1 JUMPDEST DUP2 SLOAD DUP2 MSTORE SWAP1 PUSH1 0x1 ADD SWAP1 PUSH1 0x20 ADD DUP1 DUP4 GT PUSH2 0x575 JUMPI DUP3 SWAP1 SUB PUSH1 0x1F AND DUP3 ADD SWAP2 JUMPDEST POP POP POP POP POP DUP2 JUMP JUMPDEST CALLER PUSH20 0xFFFFFFFFFFFFFFFFFFFFFFFFFFFFFFFFFFFFFFFF AND PUSH1 0x2 PUSH0 SWAP1 SLOAD SWAP1 PUSH2 0x100 EXP SWAP1 DIV PUSH20 0xFFFFFFFFFFFFFFFFFFFFFFFFFFFFFFFFFFFFFFFF AND PUSH20 0xFFFFFFFFFFFFFFFFFFFFFFFFFFFFFFFFFFFFFFFF AND EQ PUSH2 0x629 JUMPI PUSH1 0x40 MLOAD PUSH32 0x8C379A000000000000000000000000000000000000000000000000000000000 DUP2 MSTORE PUSH1 0x4 ADD PUSH2 0x620 SWAP1 PUSH2 0x1232 JUMP JUMPDEST PUSH1 0x40 MLOAD DUP1 SWAP2 SUB SWAP1 REVERT JUMPDEST PUSH1 0x40 MLOAD PUSH2 0x635 SWAP1 PUSH2 0x1302 JUMP JUMPDEST PUSH1 0x40 MLOAD DUP1 SWAP2 SUB SWAP1 KECCAK256 CALLER PUSH20 0xFFFFFFFFFFFFFFFFFFFFFFFFFFFFFFFFFFFFFFFF AND PUSH32 0xDE4389D0E2B82C1DA27DA351A07C61A1C281A257DD810BC7FAD7E95A2FFFD0D2 DUP4 PUSH1 0x40 MLOAD PUSH2 0x683 SWAP2 SWAP1 PUSH2 0xAE5 JUMP JUMPDEST PUSH1 0x40 MLOAD DUP1 SWAP2 SUB SWAP1 LOG3 DUP1 PUSH0 SWAP1 DUP2 PUSH2 0x699 SWAP2 SWAP1 PUSH2 0x10F3 JUMP JUMPDEST POP PUSH1 0x3 PUSH0 SWAP1 DUP1 PUSH1 0x1 DUP2 SLOAD ADD DUP1 DUP3 SSTORE DUP1 SWAP2 POP POP PUSH1 0x1 SWAP1 SUB SWAP1 PUSH0 MSTORE PUSH1 0x20 PUSH0 KECCAK256 ADD PUSH0 SWAP1 SWAP2 SWAP1 SWAP2 SWAP1 SWAP2 POP SWAP1 DUP2 PUSH2 0x6CB SWAP2 SWAP1 PUSH2 0x133D JUMP JUMPDEST POP POP JUMP JUMPDEST PUSH1 0x60 PUSH1 0x3 DUP1 SLOAD DUP1 PUSH1 0x20 MUL PUSH1 0x20 ADD PUSH1 0x40 MLOAD SWAP1 DUP2 ADD PUSH1 0x40 MSTORE DUP1 SWAP3 SWAP2 SWAP1 DUP2 DUP2 MSTORE PUSH1 0x20 ADD PUSH0 SWAP1 JUMPDEST DUP3 DUP3 LT ISZERO PUSH2 0x79A JUMPI DUP4 DUP3 SWAP1 PUSH0 MSTORE PUSH1 0x20 PUSH0 KECCAK256 ADD DUP1 SLOAD PUSH2 0x70F SWAP1 PUSH2 0xE91 JUMP JUMPDEST DUP1 PUSH1 0x1F ADD PUSH1 0x20 DUP1 SWAP2 DIV MUL PUSH1 0x20 ADD PUSH1 0x40 MLOAD SWAP1 DUP2 ADD PUSH1 0x40 MSTORE DUP1 SWAP3 SWAP2 SWAP1 DUP2 DUP2 MSTORE PUSH1 0x20 ADD DUP3 DUP1 SLOAD PUSH2 0x73B SWAP1 PUSH2 0xE91 JUMP JUMPDEST DUP1 ISZERO PUSH2 0x786 JUMPI DUP1 PUSH1 0x1F LT PUSH2 0x75D JUMPI PUSH2 0x100 DUP1 DUP4 SLOAD DIV MUL DUP4 MSTORE SWAP2 PUSH1 0x20 ADD SWAP2 PUSH2 0x786 JUMP JUMPDEST DUP3 ADD SWAP2 SWAP1 PUSH0 MSTORE PUSH1 0x20 PUSH0 KECCAK256 SWAP1 JUMPDEST DUP2 SLOAD DUP2 MSTORE SWAP1 PUSH1 0x1 ADD SWAP1 PUSH1 0x20 ADD DUP1 DUP4 GT PUSH2 0x769 JUMPI DUP3 SWAP1 SUB PUSH1 0x1F AND DUP3 ADD SWAP2 JUMPDEST POP POP POP POP POP DUP2 MSTORE PUSH1 0x20 ADD SWAP1 PUSH1 0x1 ADD SWAP1 PUSH2 0x6F2 JUMP JUMPDEST POP POP POP POP DUP3 DUP2 MLOAD DUP2 LT PUSH2 0x7E2 JUMPI PUSH1 0x40 MLOAD PUSH32 0x8C379A000000000000000000000000000000000000000000000000000000000 DUP2 MSTORE PUSH1 0x4 ADD PUSH2 0x7D9 SWAP1 PUSH2 0xF0B JUMP JUMPDEST PUSH1 0x40 MLOAD DUP1 SWAP2 SUB SWAP1 REVERT JUMPDEST PUSH1 0x3 DUP5 DUP2 SLOAD DUP2 LT PUSH2 0x7F6 JUMPI PUSH2 0x7F5 PUSH2 0xF29 JUMP JUMPDEST JUMPDEST SWAP1 PUSH0 MSTORE PUSH1 0x20 PUSH0 KECCAK256 ADD DUP1 SLOAD PUSH2 0x809 SWAP1 PUSH2 0xE91 JUMP JUMPDEST DUP1 PUSH1 0x1F ADD PUSH1 0x20 DUP1 SWAP2 DIV MUL PUSH1 0x20 ADD PUSH1 0x40 MLOAD SWAP1 DUP2 ADD PUSH1 0x40 MSTORE DUP1 SWAP3 SWAP2 SWAP1 DUP2 DUP2 MSTORE PUSH1 0x20 ADD DUP3 DUP1 SLOAD PUSH2 0x835 SWAP1 PUSH2 0xE91 JUMP JUMPDEST DUP1 ISZERO PUSH2 0x880 JUMPI DUP1 PUSH1 0x1F LT PUSH2 0x857 JUMPI PUSH2 0x100 DUP1 DUP4 SLOAD DIV MUL DUP4 MSTORE SWAP2 PUSH1 0x20 ADD SWAP2 PUSH2 0x880 JUMP JUMPDEST DUP3 ADD SWAP2 SWAP1 PUSH0 MSTORE PUSH1 0x20 PUSH0 KECCAK256 SWAP1 JUMPDEST DUP2 SLOAD DUP2 MSTORE SWAP1 PUSH1 0x1 ADD SWAP1 PUSH1 0x20 ADD DUP1 DUP4 GT PUSH2 0x863 JUMPI DUP3 SWAP1 SUB PUSH1 0x1F AND DUP3 ADD SWAP2 JUMPDEST POP POP POP POP POP SWAP3 POP POP POP SWAP2 SWAP1 POP JUMP JUMPDEST PUSH1 0x60 PUSH1 0x40 MLOAD PUSH2 0x89C SWAP1 PUSH2 0x146C JUMP JUMPDEST PUSH1 0x40 MLOAD DUP1 SWAP2 SUB SWAP1 KECCAK256 CALLER PUSH20 0xFFFFFFFFFFFFFFFFFFFFFFFFFFFFFFFFFFFFFFFF AND PUSH32 0xDE4389D0E2B82C1DA27DA351A07C61A1C281A257DD810BC7FAD7E95A2FFFD0D2 PUSH1 0x3 PUSH1 0x1 PUSH1 0x3 DUP1 SLOAD SWAP1 POP PUSH2 0x8F0 SWAP2 SWAP1 PUSH2 0x14AD JUMP JUMPDEST DUP2 SLOAD DUP2 LT PUSH2 0x901 JUMPI PUSH2 0x900 PUSH2 0xF29 JUMP JUMPDEST JUMPDEST SWAP1 PUSH0 MSTORE PUSH1 0x20 PUSH0 KECCAK256 ADD PUSH1 0x40 MLOAD PUSH2 0x916 SWAP2 SWAP1 PUSH2 0x1561 JUMP JUMPDEST PUSH1 0x40 MLOAD DUP1 SWAP2 SUB SWAP1 LOG3 PUSH1 0x3 DUP1 SLOAD DUP1 PUSH2 0x930 JUMPI PUSH2 0x92F PUSH2 0x1581 JUMP JUMPDEST JUMPDEST PUSH1 0x1 SWAP1 SUB DUP2 DUP2 SWAP1 PUSH0 MSTORE PUSH1 0x20 PUSH0 KECCAK256 ADD PUSH0 PUSH2 0x949 SWAP2 SWAP1 PUSH2 0xA1D JUMP JUMPDEST SWAP1 SSTORE PUSH1 0x3 DUP1 SLOAD DUP1 PUSH1 0x20 MUL PUSH1 0x20 ADD PUSH1 0x40 MLOAD SWAP1 DUP2 ADD PUSH1 0x40 MSTORE DUP1 SWAP3 SWAP2 SWAP1 DUP2 DUP2 MSTORE PUSH1 0x20 ADD PUSH0 SWAP1 JUMPDEST DUP3 DUP3 LT ISZERO PUSH2 0xA14 JUMPI DUP4 DUP3 SWAP1 PUSH0 MSTORE PUSH1 0x20 PUSH0 KECCAK256 ADD DUP1 SLOAD PUSH2 0x989 SWAP1 PUSH2 0xE91 JUMP JUMPDEST DUP1 PUSH1 0x1F ADD PUSH1 0x20 DUP1 SWAP2 DIV MUL PUSH1 0x20 ADD PUSH1 0x40 MLOAD SWAP1 DUP2 ADD PUSH1 0x40 MSTORE DUP1 SWAP3 SWAP2 SWAP1 DUP2 DUP2 MSTORE PUSH1 0x20 ADD DUP3 DUP1 SLOAD PUSH2 0x9B5 SWAP1 PUSH2 0xE91 JUMP JUMPDEST DUP1 ISZERO PUSH2 0xA00 JUMPI DUP1 PUSH1 0x1F LT PUSH2 0x9D7 JUMPI PUSH2 0x100 DUP1 DUP4 SLOAD DIV MUL DUP4 MSTORE SWAP2 PUSH1 0x20 ADD SWAP2 PUSH2 0xA00 JUMP JUMPDEST DUP3 ADD SWAP2 SWAP1 PUSH0 MSTORE PUSH1 0x20 PUSH0 KECCAK256 SWAP1 JUMPDEST DUP2 SLOAD DUP2 MSTORE SWAP1 PUSH1 0x1 ADD SWAP1 PUSH1 0x20 ADD DUP1 DUP4 GT PUSH2 0x9E3 JUMPI DUP3 SWAP1 SUB PUSH1 0x1F AND DUP3 ADD SWAP2 JUMPDEST POP POP POP POP POP DUP2 MSTORE PUSH1 0x20 ADD SWAP1 PUSH1 0x1 ADD SWAP1 PUSH2 0x96C JUMP JUMPDEST POP POP POP POP SWAP1 POP SWAP1 JUMP JUMPDEST POP DUP1 SLOAD PUSH2 0xA29 SWAP1 PUSH2 0xE91 JUMP JUMPDEST PUSH0 DUP3 SSTORE DUP1 PUSH1 0x1F LT PUSH2 0xA3A JUMPI POP PUSH2 0xA57 JUMP JUMPDEST PUSH1 0x1F ADD PUSH1 0x20 SWAP1 DIV SWAP1 PUSH0 MSTORE PUSH1 0x20 PUSH0 KECCAK256 SWAP1 DUP2 ADD SWAP1 PUSH2 0xA56 SWAP2 SWAP1 PUSH2 0xA5A JUMP JUMPDEST JUMPDEST POP JUMP JUMPDEST JUMPDEST DUP1 DUP3 GT ISZERO PUSH2 0xA71 JUMPI PUSH0 DUP2 PUSH0 SWAP1 SSTORE POP PUSH1 0x1 ADD PUSH2 0xA5B JUMP JUMPDEST POP SWAP1 JUMP JUMPDEST PUSH0 DUP2 MLOAD SWAP1 POP SWAP2 SWAP1 POP JUMP JUMPDEST PUSH0 DUP3 DUP3 MSTORE PUSH1 0x20 DUP3 ADD SWAP1 POP SWAP3 SWAP2 POP POP JUMP JUMPDEST DUP3 DUP2 DUP4 MCOPY PUSH0 DUP4 DUP4 ADD MSTORE POP POP POP JUMP JUMPDEST PUSH0 PUSH1 0x1F NOT PUSH1 0x1F DUP4 ADD AND SWAP1 POP SWAP2 SWAP1 POP JUMP JUMPDEST PUSH0 PUSH2 0xAB7 DUP3 PUSH2 0xA75 JUMP JUMPDEST PUSH2 0xAC1 DUP2 DUP6 PUSH2 0xA7F JUMP JUMPDEST SWAP4 POP PUSH2 0xAD1 DUP2 DUP6 PUSH1 0x20 DUP7 ADD PUSH2 0xA8F JUMP JUMPDEST PUSH2 0xADA DUP2 PUSH2 0xA9D JUMP JUMPDEST DUP5 ADD SWAP2 POP POP SWAP3 SWAP2 POP POP JUMP JUMPDEST PUSH0 PUSH1 0x20 DUP3 ADD SWAP1 POP DUP2 DUP2 SUB PUSH0 DUP4 ADD MSTORE PUSH2 0xAFD DUP2 DUP5 PUSH2 0xAAD JUMP JUMPDEST SWAP1 POP SWAP3 SWAP2 POP POP JUMP JUMPDEST PUSH0 PUSH1 0x40 MLOAD SWAP1 POP SWAP1 JUMP JUMPDEST PUSH0 DUP1 REVERT JUMPDEST PUSH0 DUP1 REVERT JUMPDEST PUSH0 DUP2 SWAP1 POP SWAP2 SWAP1 POP JUMP JUMPDEST PUSH2 0xB28 DUP2 PUSH2 0xB16 JUMP JUMPDEST DUP2 EQ PUSH2 0xB32 JUMPI PUSH0 DUP1 REVERT JUMPDEST POP JUMP JUMPDEST PUSH0 DUP2 CALLDATALOAD SWAP1 POP PUSH2 0xB43 DUP2 PUSH2 0xB1F JUMP JUMPDEST SWAP3 SWAP2 POP POP JUMP JUMPDEST PUSH0 DUP1 REVERT JUMPDEST PUSH0 DUP1 REVERT JUMPDEST PUSH32 0x4E487B7100000000000000000000000000000000000000000000000000000000 PUSH0 MSTORE PUSH1 0x41 PUSH1 0x4 MSTORE PUSH1 0x24 PUSH0 REVERT JUMPDEST PUSH2 0xB87 DUP3 PUSH2 0xA9D JUMP JUMPDEST DUP2 ADD DUP2 DUP2 LT PUSH8 0xFFFFFFFFFFFFFFFF DUP3 GT OR ISZERO PUSH2 0xBA6 JUMPI PUSH2 0xBA5 PUSH2 0xB51 JUMP JUMPDEST JUMPDEST DUP1 PUSH1 0x40 MSTORE POP POP POP JUMP JUMPDEST PUSH0 PUSH2 0xBB8 PUSH2 0xB05 JUMP JUMPDEST SWAP1 POP PUSH2 0xBC4 DUP3 DUP3 PUSH2 0xB7E JUMP JUMPDEST SWAP2 SWAP1 POP JUMP JUMPDEST PUSH0 PUSH8 0xFFFFFFFFFFFFFFFF DUP3 GT ISZERO PUSH2 0xBE3 JUMPI PUSH2 0xBE2 PUSH2 0xB51 JUMP JUMPDEST JUMPDEST PUSH2 0xBEC DUP3 PUSH2 0xA9D JUMP JUMPDEST SWAP1 POP PUSH1 0x20 DUP2 ADD SWAP1 POP SWAP2 SWAP1 POP JUMP JUMPDEST DUP3 DUP2 DUP4 CALLDATACOPY PUSH0 DUP4 DUP4 ADD MSTORE POP POP POP JUMP JUMPDEST PUSH0 PUSH2 0xC19 PUSH2 0xC14 DUP5 PUSH2 0xBC9 JUMP JUMPDEST PUSH2 0xBAF JUMP JUMPDEST SWAP1 POP DUP3 DUP2 MSTORE PUSH1 0x20 DUP2 ADD DUP5 DUP5 DUP5 ADD GT ISZERO PUSH2 0xC35 JUMPI PUSH2 0xC34 PUSH2 0xB4D JUMP JUMPDEST JUMPDEST PUSH2 0xC40 DUP5 DUP3 DUP6 PUSH2 0xBF9 JUMP JUMPDEST POP SWAP4 SWAP3 POP POP POP JUMP JUMPDEST PUSH0 DUP3 PUSH1 0x1F DUP4 ADD SLT PUSH2 0xC5C JUMPI PUSH2 0xC5B PUSH2 0xB49 JUMP JUMPDEST JUMPDEST DUP2 CALLDATALOAD PUSH2 0xC6C DUP5 DUP3 PUSH1 0x20 DUP7 ADD PUSH2 0xC07 JUMP JUMPDEST SWAP2 POP POP SWAP3 SWAP2 POP POP JUMP JUMPDEST PUSH0 DUP1 PUSH1 0x40 DUP4 DUP6 SUB SLT ISZERO PUSH2 0xC8B JUMPI PUSH2 0xC8A PUSH2 0xB0E JUMP JUMPDEST JUMPDEST PUSH0 PUSH2 0xC98 DUP6 DUP3 DUP7 ADD PUSH2 0xB35 JUMP JUMPDEST SWAP3 POP POP PUSH1 0x20 DUP4 ADD CALLDATALOAD PUSH8 0xFFFFFFFFFFFFFFFF DUP2 GT ISZERO PUSH2 0xCB9 JUMPI PUSH2 0xCB8 PUSH2 0xB12 JUMP JUMPDEST JUMPDEST PUSH2 0xCC5 DUP6 DUP3 DUP7 ADD PUSH2 0xC48 JUMP JUMPDEST SWAP2 POP POP SWAP3 POP SWAP3 SWAP1 POP JUMP JUMPDEST PUSH0 PUSH1 0x20 DUP3 DUP5 SUB SLT ISZERO PUSH2 0xCE4 JUMPI PUSH2 0xCE3 PUSH2 0xB0E JUMP JUMPDEST JUMPDEST PUSH0 PUSH2 0xCF1 DUP5 DUP3 DUP6 ADD PUSH2 0xB35 JUMP JUMPDEST SWAP2 POP POP SWAP3 SWAP2 POP POP JUMP JUMPDEST PUSH0 PUSH1 0x20 DUP3 DUP5 SUB SLT ISZERO PUSH2 0xD0F JUMPI PUSH2 0xD0E PUSH2 0xB0E JUMP JUMPDEST JUMPDEST PUSH0 DUP3 ADD CALLDATALOAD PUSH8 0xFFFFFFFFFFFFFFFF DUP2 GT ISZERO PUSH2 0xD2C JUMPI PUSH2 0xD2B PUSH2 0xB12 JUMP JUMPDEST JUMPDEST PUSH2 0xD38 DUP5 DUP3 DUP6 ADD PUSH2 0xC48 JUMP JUMPDEST SWAP2 POP POP SWAP3 SWAP2 POP POP JUMP JUMPDEST PUSH0 DUP2 MLOAD SWAP1 POP SWAP2 SWAP1 POP JUMP JUMPDEST PUSH0 DUP3 DUP3 MSTORE PUSH1 0x20 DUP3 ADD SWAP1 POP SWAP3 SWAP2 POP POP JUMP JUMPDEST PUSH0 DUP2 SWAP1 POP PUSH1 0x20 DUP3 ADD SWAP1 POP SWAP2 SWAP1 POP JUMP JUMPDEST PUSH0 DUP3 DUP3 MSTORE PUSH1 0x20 DUP3 ADD SWAP1 POP SWAP3 SWAP2 POP POP JUMP JUMPDEST PUSH0 PUSH2 0xD84 DUP3 PUSH2 0xA75 JUMP JUMPDEST PUSH2 0xD8E DUP2 DUP6 PUSH2 0xD6A JUMP JUMPDEST SWAP4 POP PUSH2 0xD9E DUP2 DUP6 PUSH1 0x20 DUP7 ADD PUSH2 0xA8F JUMP JUMPDEST PUSH2 0xDA7 DUP2 PUSH2 0xA9D JUMP JUMPDEST DUP5 ADD SWAP2 POP POP SWAP3 SWAP2 POP POP JUMP JUMPDEST PUSH0 PUSH2 0xDBD DUP4 DUP4 PUSH2 0xD7A JUMP JUMPDEST SWAP1 POP SWAP3 SWAP2 POP POP JUMP JUMPDEST PUSH0 PUSH1 0x20 DUP3 ADD SWAP1 POP SWAP2 SWAP1 POP JUMP JUMPDEST PUSH0 PUSH2 0xDDB DUP3 PUSH2 0xD41 JUMP JUMPDEST PUSH2 0xDE5 DUP2 DUP6 PUSH2 0xD4B JUMP JUMPDEST SWAP4 POP DUP4 PUSH1 0x20 DUP3 MUL DUP6 ADD PUSH2 0xDF7 DUP6 PUSH2 0xD5B JUMP JUMPDEST DUP1 PUSH0 JUMPDEST DUP6 DUP2 LT ISZERO PUSH2 0xE32 JUMPI DUP5 DUP5 SUB DUP10 MSTORE DUP2 MLOAD PUSH2 0xE13 DUP6 DUP3 PUSH2 0xDB2 JUMP JUMPDEST SWAP5 POP PUSH2 0xE1E DUP4 PUSH2 0xDC5 JUMP JUMPDEST SWAP3 POP PUSH1 0x20 DUP11 ADD SWAP10 POP POP PUSH1 0x1 DUP2 ADD SWAP1 POP PUSH2 0xDFA JUMP JUMPDEST POP DUP3 SWAP8 POP DUP8 SWAP6 POP POP POP POP POP POP SWAP3 SWAP2 POP POP JUMP JUMPDEST PUSH0 PUSH1 0x20 DUP3 ADD SWAP1 POP DUP2 DUP2 SUB PUSH0 DUP4 ADD MSTORE PUSH2 0xE5C DUP2 DUP5 PUSH2 0xDD1 JUMP JUMPDEST SWAP1 POP SWAP3 SWAP2 POP POP JUMP JUMPDEST PUSH32 0x4E487B7100000000000000000000000000000000000000000000000000000000 PUSH0 MSTORE PUSH1 0x22 PUSH1 0x4 MSTORE PUSH1 0x24 PUSH0 REVERT JUMPDEST PUSH0 PUSH1 0x2 DUP3 DIV SWAP1 POP PUSH1 0x1 DUP3 AND DUP1 PUSH2 0xEA8 JUMPI PUSH1 0x7F DUP3 AND SWAP2 POP JUMPDEST PUSH1 0x20 DUP3 LT DUP2 SUB PUSH2 0xEBB JUMPI PUSH2 0xEBA PUSH2 0xE64 JUMP JUMPDEST JUMPDEST POP SWAP2 SWAP1 POP JUMP JUMPDEST PUSH32 0x496E646578206F7574206F6620626F756E647300000000000000000000000000 PUSH0 DUP3 ADD MSTORE POP JUMP JUMPDEST PUSH0 PUSH2 0xEF5 PUSH1 0x13 DUP4 PUSH2 0xA7F JUMP JUMPDEST SWAP2 POP PUSH2 0xF00 DUP3 PUSH2 0xEC1 JUMP JUMPDEST PUSH1 0x20 DUP3 ADD SWAP1 POP SWAP2 SWAP1 POP JUMP JUMPDEST PUSH0 PUSH1 0x20 DUP3 ADD SWAP1 POP DUP2 DUP2 SUB PUSH0 DUP4 ADD MSTORE PUSH2 0xF22 DUP2 PUSH2 0xEE9 JUMP JUMPDEST SWAP1 POP SWAP2 SWAP1 POP JUMP JUMPDEST PUSH32 0x4E487B7100000000000000000000000000000000000000000000000000000000 PUSH0 MSTORE PUSH1 0x32 PUSH1 0x4 MSTORE PUSH1 0x24 PUSH0 REVERT JUMPDEST PUSH0 DUP2 SWAP1 POP DUP2 PUSH0 MSTORE PUSH1 0x20 PUSH0 KECCAK256 SWAP1 POP SWAP2 SWAP1 POP JUMP JUMPDEST PUSH0 PUSH1 0x20 PUSH1 0x1F DUP4 ADD DIV SWAP1 POP SWAP2 SWAP1 POP JUMP JUMPDEST PUSH0 DUP3 DUP3 SHL SWAP1 POP SWAP3 SWAP2 POP POP JUMP JUMPDEST PUSH0 PUSH1 0x8 DUP4 MUL PUSH2 0xFB2 PUSH32 0xFFFFFFFFFFFFFFFFFFFFFFFFFFFFFFFFFFFFFFFFFFFFFFFFFFFFFFFFFFFFFFFF DUP3 PUSH2 0xF77 JUMP JUMPDEST PUSH2 0xFBC DUP7 DUP4 PUSH2 0xF77 JUMP JUMPDEST SWAP6 POP DUP1 NOT DUP5 AND SWAP4 POP DUP1 DUP7 AND DUP5 OR SWAP3 POP POP POP SWAP4 SWAP3 POP POP POP JUMP JUMPDEST PUSH0 DUP2 SWAP1 POP SWAP2 SWAP1 POP JUMP JUMPDEST PUSH0 PUSH2 0xFF7 PUSH2 0xFF2 PUSH2 0xFED DUP5 PUSH2 0xB16 JUMP JUMPDEST PUSH2 0xFD4 JUMP JUMPDEST PUSH2 0xB16 JUMP JUMPDEST SWAP1 POP SWAP2 SWAP1 POP JUMP JUMPDEST PUSH0 DUP2 SWAP1 POP SWAP2 SWAP1 POP JUMP JUMPDEST PUSH2 0x1010 DUP4 PUSH2 0xFDD JUMP JUMPDEST PUSH2 0x1024 PUSH2 0x101C DUP3 PUSH2 0xFFE JUMP JUMPDEST DUP5 DUP5 SLOAD PUSH2 0xF83 JUMP JUMPDEST DUP3 SSTORE POP POP POP POP JUMP JUMPDEST PUSH0 SWAP1 JUMP JUMPDEST PUSH2 0x1038 PUSH2 0x102C JUMP JUMPDEST PUSH2 0x1043 DUP2 DUP5 DUP5 PUSH2 0x1007 JUMP JUMPDEST POP POP POP JUMP JUMPDEST JUMPDEST DUP2 DUP2 LT ISZERO PUSH2 0x1066 JUMPI PUSH2 0x105B PUSH0 DUP3 PUSH2 0x1030 JUMP JUMPDEST PUSH1 0x1 DUP2 ADD SWAP1 POP PUSH2 0x1049 JUMP JUMPDEST POP POP JUMP JUMPDEST PUSH1 0x1F DUP3 GT ISZERO PUSH2 0x10AB JUMPI PUSH2 0x107C DUP2 PUSH2 0xF56 JUMP JUMPDEST PUSH2 0x1085 DUP5 PUSH2 0xF68 JUMP JUMPDEST DUP2 ADD PUSH1 0x20 DUP6 LT ISZERO PUSH2 0x1094 JUMPI DUP2 SWAP1 POP JUMPDEST PUSH2 0x10A8 PUSH2 0x10A0 DUP6 PUSH2 0xF68 JUMP JUMPDEST DUP4 ADD DUP3 PUSH2 0x1048 JUMP JUMPDEST POP POP JUMPDEST POP POP POP JUMP JUMPDEST PUSH0 DUP3 DUP3 SHR SWAP1 POP SWAP3 SWAP2 POP POP JUMP JUMPDEST PUSH0 PUSH2 0x10CB PUSH0 NOT DUP5 PUSH1 0x8 MUL PUSH2 0x10B0 JUMP JUMPDEST NOT DUP1 DUP4 AND SWAP2 POP POP SWAP3 SWAP2 POP POP JUMP JUMPDEST PUSH0 PUSH2 0x10E3 DUP4 DUP4 PUSH2 0x10BC JUMP JUMPDEST SWAP2 POP DUP3 PUSH1 0x2 MUL DUP3 OR SWAP1 POP SWAP3 SWAP2 POP POP JUMP JUMPDEST PUSH2 0x10FC DUP3 PUSH2 0xA75 JUMP JUMPDEST PUSH8 0xFFFFFFFFFFFFFFFF DUP2 GT ISZERO PUSH2 0x1115 JUMPI PUSH2 0x1114 PUSH2 0xB51 JUMP JUMPDEST JUMPDEST PUSH2 0x111F DUP3 SLOAD PUSH2 0xE91 JUMP JUMPDEST PUSH2 0x112A DUP3 DUP3 DUP6 PUSH2 0x106A JUMP JUMPDEST PUSH0 PUSH1 0x20 SWAP1 POP PUSH1 0x1F DUP4 GT PUSH1 0x1 DUP2 EQ PUSH2 0x115B JUMPI PUSH0 DUP5 ISZERO PUSH2 0x1149 JUMPI DUP3 DUP8 ADD MLOAD SWAP1 POP JUMPDEST PUSH2 0x1153 DUP6 DUP3 PUSH2 0x10D8 JUMP JUMPDEST DUP7 SSTORE POP PUSH2 0x11BA JUMP JUMPDEST PUSH1 0x1F NOT DUP5 AND PUSH2 0x1169 DUP7 PUSH2 0xF56 JUMP JUMPDEST PUSH0 JUMPDEST DUP3 DUP2 LT ISZERO PUSH2 0x1190 JUMPI DUP5 DUP10 ADD MLOAD DUP3 SSTORE PUSH1 0x1 DUP3 ADD SWAP2 POP PUSH1 0x20 DUP6 ADD SWAP5 POP PUSH1 0x20 DUP2 ADD SWAP1 POP PUSH2 0x116B JUMP JUMPDEST DUP7 DUP4 LT ISZERO PUSH2 0x11AD JUMPI DUP5 DUP10 ADD MLOAD PUSH2 0x11A9 PUSH1 0x1F DUP10 AND DUP3 PUSH2 0x10BC JUMP JUMPDEST DUP4 SSTORE POP JUMPDEST PUSH1 0x1 PUSH1 0x2 DUP9 MUL ADD DUP9 SSTORE POP POP POP JUMPDEST POP POP POP POP POP POP JUMP JUMPDEST PUSH32 0x4F6E6C7920746865206F776E65722063616E206D6F646966792074686520636F PUSH0 DUP3 ADD MSTORE PUSH32 0x6E74726163740000000000000000000000000000000000000000000000000000 PUSH1 0x20 DUP3 ADD MSTORE POP JUMP JUMPDEST PUSH0 PUSH2 0x121C PUSH1 0x26 DUP4 PUSH2 0xA7F JUMP JUMPDEST SWAP2 POP PUSH2 0x1227 DUP3 PUSH2 0x11C2 JUMP JUMPDEST PUSH1 0x40 DUP3 ADD SWAP1 POP SWAP2 SWAP1 POP JUMP JUMPDEST PUSH0 PUSH1 0x20 DUP3 ADD SWAP1 POP DUP2 DUP2 SUB PUSH0 DUP4 ADD MSTORE PUSH2 0x1249 DUP2 PUSH2 0x1210 JUMP JUMPDEST SWAP1 POP SWAP2 SWAP1 POP JUMP JUMPDEST PUSH0 DUP2 SWAP1 POP SWAP3 SWAP2 POP POP JUMP JUMPDEST PUSH32 0x4C617374204E616D650000000000000000000000000000000000000000000000 PUSH0 DUP3 ADD MSTORE POP JUMP JUMPDEST PUSH0 PUSH2 0x128E PUSH1 0x9 DUP4 PUSH2 0x1250 JUMP JUMPDEST SWAP2 POP PUSH2 0x1299 DUP3 PUSH2 0x125A JUMP JUMPDEST PUSH1 0x9 DUP3 ADD SWAP1 POP SWAP2 SWAP1 POP JUMP JUMPDEST PUSH0 PUSH2 0x12AE DUP3 PUSH2 0x1282 JUMP JUMPDEST SWAP2 POP DUP2 SWAP1 POP SWAP2 SWAP1 POP JUMP JUMPDEST PUSH32 0x4E616D6500000000000000000000000000000000000000000000000000000000 PUSH0 DUP3 ADD MSTORE POP JUMP JUMPDEST PUSH0 PUSH2 0x12EC PUSH1 0x4 DUP4 PUSH2 0x1250 JUMP JUMPDEST SWAP2 POP PUSH2 0x12F7 DUP3 PUSH2 0x12B8 JUMP JUMPDEST PUSH1 0x4 DUP3 ADD SWAP1 POP SWAP2 SWAP1 POP JUMP JUMPDEST PUSH0 PUSH2 0x130C DUP3 PUSH2 0x12E0 JUMP JUMPDEST SWAP2 POP DUP2 SWAP1 POP SWAP2 SWAP1 POP JUMP JUMPDEST PUSH0 DUP2 SLOAD SWAP1 POP PUSH2 0x1324 DUP2 PUSH2 0xE91 JUMP JUMPDEST SWAP1 POP SWAP2 SWAP1 POP JUMP JUMPDEST PUSH0 DUP2 SWAP1 POP DUP2 PUSH0 MSTORE PUSH1 0x20 PUSH0 KECCAK256 SWAP1 POP SWAP2 SWAP1 POP JUMP JUMPDEST DUP2 DUP2 SUB PUSH2 0x134B JUMPI POP POP PUSH2 0x1420 JUMP JUMPDEST PUSH2 0x1354 DUP3 PUSH2 0x1316 JUMP JUMPDEST PUSH8 0xFFFFFFFFFFFFFFFF DUP2 GT ISZERO PUSH2 0x136D JUMPI PUSH2 0x136C PUSH2 0xB51 JUMP JUMPDEST JUMPDEST PUSH2 0x1377 DUP3 SLOAD PUSH2 0xE91 JUMP JUMPDEST PUSH2 0x1382 DUP3 DUP3 DUP6 PUSH2 0x106A JUMP JUMPDEST PUSH0 PUSH1 0x1F DUP4 GT PUSH1 0x1 DUP2 EQ PUSH2 0x13AF JUMPI PUSH0 DUP5 ISZERO PUSH2 0x139D JUMPI DUP3 DUP8 ADD SLOAD SWAP1 POP JUMPDEST PUSH2 0x13A7 DUP6 DUP3 PUSH2 0x10D8 JUMP JUMPDEST DUP7 SSTORE POP PUSH2 0x1419 JUMP JUMPDEST PUSH1 0x1F NOT DUP5 AND PUSH2 0x13BD DUP8 PUSH2 0x132B JUMP JUMPDEST SWAP7 POP PUSH2 0x13C8 DUP7 PUSH2 0xF56 JUMP JUMPDEST PUSH0 JUMPDEST DUP3 DUP2 LT ISZERO PUSH2 0x13EF JUMPI DUP5 DUP10 ADD SLOAD DUP3 SSTORE PUSH1 0x1 DUP3 ADD SWAP2 POP PUSH1 0x1 DUP6 ADD SWAP5 POP PUSH1 0x20 DUP2 ADD SWAP1 POP PUSH2 0x13CA JUMP JUMPDEST DUP7 DUP4 LT ISZERO PUSH2 0x140C JUMPI DUP5 DUP10 ADD SLOAD PUSH2 0x1408 PUSH1 0x1F DUP10 AND DUP3 PUSH2 0x10BC JUMP JUMPDEST DUP4 SSTORE POP JUMPDEST PUSH1 0x1 PUSH1 0x2 DUP9 MUL ADD DUP9 SSTORE POP POP POP JUMPDEST POP POP POP POP POP POP JUMPDEST JUMP JUMPDEST PUSH32 0x64656C6574654C617374456C656D656E74000000000000000000000000000000 PUSH0 DUP3 ADD MSTORE POP JUMP JUMPDEST PUSH0 PUSH2 0x1456 PUSH1 0x11 DUP4 PUSH2 0x1250 JUMP JUMPDEST SWAP2 POP PUSH2 0x1461 DUP3 PUSH2 0x1422 JUMP JUMPDEST PUSH1 0x11 DUP3 ADD SWAP1 POP SWAP2 SWAP1 POP JUMP JUMPDEST PUSH0 PUSH2 0x1476 DUP3 PUSH2 0x144A JUMP JUMPDEST SWAP2 POP DUP2 SWAP1 POP SWAP2 SWAP1 POP JUMP JUMPDEST PUSH32 0x4E487B7100000000000000000000000000000000000000000000000000000000 PUSH0 MSTORE PUSH1 0x11 PUSH1 0x4 MSTORE PUSH1 0x24 PUSH0 REVERT JUMPDEST PUSH0 PUSH2 0x14B7 DUP3 PUSH2 0xB16 JUMP JUMPDEST SWAP2 POP PUSH2 0x14C2 DUP4 PUSH2 0xB16 JUMP JUMPDEST SWAP3 POP DUP3 DUP3 SUB SWAP1 POP DUP2 DUP2 GT ISZERO PUSH2 0x14DA JUMPI PUSH2 0x14D9 PUSH2 0x1480 JUMP JUMPDEST JUMPDEST SWAP3 SWAP2 POP POP JUMP JUMPDEST PUSH0 DUP2 SLOAD PUSH2 0x14EC DUP2 PUSH2 0xE91 JUMP JUMPDEST PUSH2 0x14F6 DUP2 DUP7 PUSH2 0xA7F JUMP JUMPDEST SWAP5 POP PUSH1 0x1 DUP3 AND PUSH0 DUP2 EQ PUSH2 0x1510 JUMPI PUSH1 0x1 DUP2 EQ PUSH2 0x1526 JUMPI PUSH2 0x1558 JUMP JUMPDEST PUSH1 0xFF NOT DUP4 AND DUP7 MSTORE DUP2 ISZERO ISZERO PUSH1 0x20 MUL DUP7 ADD SWAP4 POP PUSH2 0x1558 JUMP JUMPDEST PUSH2 0x152F DUP6 PUSH2 0xF56 JUMP JUMPDEST PUSH0 JUMPDEST DUP4 DUP2 LT ISZERO PUSH2 0x1550 JUMPI DUP2 SLOAD DUP2 DUP10 ADD MSTORE PUSH1 0x1 DUP3 ADD SWAP2 POP PUSH1 0x20 DUP2 ADD SWAP1 POP PUSH2 0x1531 JUMP JUMPDEST DUP1 DUP9 ADD SWAP6 POP POP POP JUMPDEST POP POP POP SWAP3 SWAP2 POP POP JUMP JUMPDEST PUSH0 PUSH1 0x20 DUP3 ADD SWAP1 POP DUP2 DUP2 SUB PUSH0 DUP4 ADD MSTORE PUSH2 0x1579 DUP2 DUP5 PUSH2 0x14E0 JUMP JUMPDEST SWAP1 POP SWAP3 SWAP2 POP POP JUMP JUMPDEST PUSH32 0x4E487B7100000000000000000000000000000000000000000000000000000000 PUSH0 MSTORE PUSH1 0x31 PUSH1 0x4 MSTORE PUSH1 0x24 PUSH0 REVERT INVALID LOG2 PUSH5 0x6970667358 0x22 SLT KECCAK256 EXTCODESIZE LOG4 PUSH16 0xC09423B1BFC15DE6BDC6F68E938E9878 CREATE2 MCOPY SAR REVERT 0xE9 0xEA TSTORE 0xC6 0x25 SIGNEXTEND SELFBALANCE SHL 0xAA PUSH5 0x736F6C6343 STOP ADDMOD BYTE STOP CALLER "
				},
				"gasEstimates": {
					"creation": {
						"codeDepositCost": "1120800",
						"executionCost": "25430",
						"totalCost": "1146230"
					},
					"external": {
						"deleteLastElement()": "infinite",
						"editNameArray(uint256,string)": "infinite",
						"lastName()": "infinite",
						"name()": "infinite",
						"names(uint256)": "infinite",
						"readNames(uint256)": "infinite",
						"setLastName(string)": "infinite",
						"setName(string)": "infinite"
					}
				},
				"methodIdentifiers": {
					"deleteLastElement()": "f8bd7772",
					"editNameArray(uint256,string)": "2ed84c5a",
					"lastName()": "9ab03dcb",
					"name()": "06fdde03",
					"names(uint256)": "4622ab03",
					"readNames(uint256)": "dfc63b3e",
					"setLastName(string)": "932754f9",
					"setName(string)": "c47f0027"
				}
			},
			"storageLayout": {
				"storage": [
					{
						"astId": 3,
						"contract": "contracts/7_Clase2Modulo2.sol:Clase2Modulo2",
						"label": "name",
						"offset": 0,
						"slot": "0",
						"type": "t_string_storage"
					},
					{
						"astId": 5,
						"contract": "contracts/7_Clase2Modulo2.sol:Clase2Modulo2",
						"label": "lastName",
						"offset": 0,
						"slot": "1",
						"type": "t_string_storage"
					},
					{
						"astId": 7,
						"contract": "contracts/7_Clase2Modulo2.sol:Clase2Modulo2",
						"label": "owner",
						"offset": 0,
						"slot": "2",
						"type": "t_address"
					},
					{
						"astId": 10,
						"contract": "contracts/7_Clase2Modulo2.sol:Clase2Modulo2",
						"label": "names",
						"offset": 0,
						"slot": "3",
						"type": "t_array(t_string_storage)dyn_storage"
					}
				],
				"types": {
					"t_address": {
						"encoding": "inplace",
						"label": "address",
						"numberOfBytes": "20"
					},
					"t_array(t_string_storage)dyn_storage": {
						"base": "t_string_storage",
						"encoding": "dynamic_array",
						"label": "string[]",
						"numberOfBytes": "32"
					},
					"t_string_storage": {
						"encoding": "bytes",
						"label": "string",
						"numberOfBytes": "32"
					}
				}
			},
			"userdoc": {
				"kind": "user",
				"methods": {},
				"version": 1
			}
		}
	}
}