{
	"contracts/9_Mappings.sol": {
		"Mappings": {
			"abi": [
				{
					"inputs": [
						{
							"internalType": "address",
							"name": "_userAddress",
							"type": "address"
						}
					],
					"name": "addToWhitelist",
					"outputs": [],
					"stateMutability": "nonpayable",
					"type": "function"
				},
				{
					"inputs": [],
					"name": "name",
					"outputs": [
						{
							"internalType": "string",
							"name": "",
							"type": "string"
						}
					],
					"stateMutability": "view",
					"type": "function"
				},
				{
					"inputs": [
						{
							"internalType": "string",
							"name": "_name",
							"type": "string"
						}
					],
					"name": "setName",
					"outputs": [],
					"stateMutability": "nonpayable",
					"type": "function"
				},
				{
					"inputs": [
						{
							"internalType": "address",
							"name": "",
							"type": "address"
						}
					],
					"name": "whiteList",
					"outputs": [
						{
							"internalType": "bool",
							"name": "",
							"type": "bool"
						}
					],
					"stateMutability": "view",
					"type": "function"
				}
			],
			"devdoc": {
				"kind": "dev",
				"methods": {},
				"version": 1
			},
			"evm": {
				"assembly": "    /* \"contracts/9_Mappings.sol\":127:553  contract Mappings{... */\n  mstore(0x40, 0x80)\n  callvalue\n  dup1\n  iszero\n  tag_1\n  jumpi\n  0x00\n  dup1\n  revert\ntag_1:\n  pop\n  dataSize(sub_0)\n  dup1\n  dataOffset(sub_0)\n  0x00\n  codecopy\n  0x00\n  return\nstop\n\nsub_0: assembly {\n        /* \"contracts/9_Mappings.sol\":127:553  contract Mappings{... */\n      mstore(0x40, 0x80)\n      callvalue\n      dup1\n      iszero\n      tag_1\n      jumpi\n      0x00\n      dup1\n      revert\n    tag_1:\n      pop\n      jumpi(tag_2, lt(calldatasize, 0x04))\n      shr(0xe0, calldataload(0x00))\n      dup1\n      0x06fdde03\n      eq\n      tag_3\n      jumpi\n      dup1\n      0x372c12b1\n      eq\n      tag_4\n      jumpi\n      dup1\n      0xc47f0027\n      eq\n      tag_5\n      jumpi\n      dup1\n      0xe43252d7\n      eq\n      tag_6\n      jumpi\n    tag_2:\n      0x00\n      dup1\n      revert\n        /* \"contracts/9_Mappings.sol\":200:218  string public name */\n    tag_3:\n      tag_7\n      tag_8\n      jump\t// in\n    tag_7:\n      mload(0x40)\n      tag_9\n      swap2\n      swap1\n      tag_10\n      jump\t// in\n    tag_9:\n      mload(0x40)\n      dup1\n      swap2\n      sub\n      swap1\n      return\n        /* \"contracts/9_Mappings.sol\":151:193  mapping (address => bool) public whiteList */\n    tag_4:\n      tag_11\n      0x04\n      dup1\n      calldatasize\n      sub\n      dup2\n      add\n      swap1\n      tag_12\n      swap2\n      swap1\n      tag_13\n      jump\t// in\n    tag_12:\n      tag_14\n      jump\t// in\n    tag_11:\n      mload(0x40)\n      tag_15\n      swap2\n      swap1\n      tag_16\n      jump\t// in\n    tag_15:\n      mload(0x40)\n      dup1\n      swap2\n      sub\n      swap1\n      return\n        /* \"contracts/9_Mappings.sol\":398:550  function setName(string memory _name) public {... */\n    tag_5:\n      tag_17\n      0x04\n      dup1\n      calldatasize\n      sub\n      dup2\n      add\n      swap1\n      tag_18\n      swap2\n      swap1\n      tag_19\n      jump\t// in\n    tag_18:\n      tag_20\n      jump\t// in\n    tag_17:\n      stop\n        /* \"contracts/9_Mappings.sol\":287:390  function addToWhitelist(address _userAddress) public {... */\n    tag_6:\n      tag_21\n      0x04\n      dup1\n      calldatasize\n      sub\n      dup2\n      add\n      swap1\n      tag_22\n      swap2\n      swap1\n      tag_13\n      jump\t// in\n    tag_22:\n      tag_23\n      jump\t// in\n    tag_21:\n      stop\n        /* \"contracts/9_Mappings.sol\":200:218  string public name */\n    tag_8:\n      0x01\n      dup1\n      sload\n      tag_24\n      swap1\n      tag_25\n      jump\t// in\n    tag_24:\n      dup1\n      0x1f\n      add\n      0x20\n      dup1\n      swap2\n      div\n      mul\n      0x20\n      add\n      mload(0x40)\n      swap1\n      dup2\n      add\n      0x40\n      mstore\n      dup1\n      swap3\n      swap2\n      swap1\n      dup2\n      dup2\n      mstore\n      0x20\n      add\n      dup3\n      dup1\n      sload\n      tag_26\n      swap1\n      tag_25\n      jump\t// in\n    tag_26:\n      dup1\n      iszero\n      tag_27\n      jumpi\n      dup1\n      0x1f\n      lt\n      tag_28\n      jumpi\n      0x0100\n      dup1\n      dup4\n      sload\n      div\n      mul\n      dup4\n      mstore\n      swap2\n      0x20\n      add\n      swap2\n      jump(tag_27)\n    tag_28:\n      dup3\n      add\n      swap2\n      swap1\n      0x00\n      mstore\n      keccak256(0x00, 0x20)\n      swap1\n    tag_29:\n      dup2\n      sload\n      dup2\n      mstore\n      swap1\n      0x01\n      add\n      swap1\n      0x20\n      add\n      dup1\n      dup4\n      gt\n      tag_29\n      jumpi\n      dup3\n      swap1\n      sub\n      0x1f\n      and\n      dup3\n      add\n      swap2\n    tag_27:\n      pop\n      pop\n      pop\n      pop\n      pop\n      dup2\n      jump\t// out\n        /* \"contracts/9_Mappings.sol\":151:193  mapping (address => bool) public whiteList */\n    tag_14:\n      mstore(0x20, 0x00)\n      dup1\n      0x00\n      mstore\n      keccak256(0x00, 0x40)\n      0x00\n      swap2\n      pop\n      sload\n      swap1\n      0x0100\n      exp\n      swap1\n      div\n      0xff\n      and\n      dup2\n      jump\t// out\n        /* \"contracts/9_Mappings.sol\":398:550  function setName(string memory _name) public {... */\n    tag_20:\n        /* \"contracts/9_Mappings.sol\":462:471  whiteList */\n      0x00\n        /* \"contracts/9_Mappings.sol\":462:483  whiteList[msg.sender] */\n      dup1\n        /* \"contracts/9_Mappings.sol\":472:482  msg.sender */\n      caller\n        /* \"contracts/9_Mappings.sol\":462:483  whiteList[msg.sender] */\n      0xffffffffffffffffffffffffffffffffffffffff\n      and\n      0xffffffffffffffffffffffffffffffffffffffff\n      and\n      dup2\n      mstore\n      0x20\n      add\n      swap1\n      dup2\n      mstore\n      0x20\n      add\n      0x00\n      keccak256\n      0x00\n      swap1\n      sload\n      swap1\n      0x0100\n      exp\n      swap1\n      div\n      0xff\n      and\n        /* \"contracts/9_Mappings.sol\":454:519  require(whiteList[msg.sender], \"This address is not whitelisted\") */\n      tag_31\n      jumpi\n      mload(0x40)\n      0x08c379a000000000000000000000000000000000000000000000000000000000\n      dup2\n      mstore\n      0x04\n      add\n      tag_32\n      swap1\n      tag_33\n      jump\t// in\n    tag_32:\n      mload(0x40)\n      dup1\n      swap2\n      sub\n      swap1\n      revert\n    tag_31:\n        /* \"contracts/9_Mappings.sol\":537:542  _name */\n      dup1\n        /* \"contracts/9_Mappings.sol\":530:534  name */\n      0x01\n        /* \"contracts/9_Mappings.sol\":530:542  name = _name */\n      swap1\n      dup2\n      tag_34\n      swap2\n      swap1\n      tag_35\n      jump\t// in\n    tag_34:\n      pop\n        /* \"contracts/9_Mappings.sol\":398:550  function setName(string memory _name) public {... */\n      pop\n      jump\t// out\n        /* \"contracts/9_Mappings.sol\":287:390  function addToWhitelist(address _userAddress) public {... */\n    tag_23:\n        /* \"contracts/9_Mappings.sol\":377:381  true */\n      0x01\n        /* \"contracts/9_Mappings.sol\":351:360  whiteList */\n      0x00\n        /* \"contracts/9_Mappings.sol\":351:374  whiteList[_userAddress] */\n      dup1\n        /* \"contracts/9_Mappings.sol\":361:373  _userAddress */\n      dup4\n        /* \"contracts/9_Mappings.sol\":351:374  whiteList[_userAddress] */\n      0xffffffffffffffffffffffffffffffffffffffff\n      and\n      0xffffffffffffffffffffffffffffffffffffffff\n      and\n      dup2\n      mstore\n      0x20\n      add\n      swap1\n      dup2\n      mstore\n      0x20\n      add\n      0x00\n      keccak256\n      0x00\n        /* \"contracts/9_Mappings.sol\":351:381  whiteList[_userAddress] = true */\n      0x0100\n      exp\n      dup2\n      sload\n      dup2\n      0xff\n      mul\n      not\n      and\n      swap1\n      dup4\n      iszero\n      iszero\n      mul\n      or\n      swap1\n      sstore\n      pop\n        /* \"contracts/9_Mappings.sol\":287:390  function addToWhitelist(address _userAddress) public {... */\n      pop\n      jump\t// out\n        /* \"#utility.yul\":7:106   */\n    tag_37:\n        /* \"#utility.yul\":59:65   */\n      0x00\n        /* \"#utility.yul\":93:98   */\n      dup2\n        /* \"#utility.yul\":87:99   */\n      mload\n        /* \"#utility.yul\":77:99   */\n      swap1\n      pop\n        /* \"#utility.yul\":7:106   */\n      swap2\n      swap1\n      pop\n      jump\t// out\n        /* \"#utility.yul\":112:281   */\n    tag_38:\n        /* \"#utility.yul\":196:207   */\n      0x00\n        /* \"#utility.yul\":230:236   */\n      dup3\n        /* \"#utility.yul\":225:228   */\n      dup3\n        /* \"#utility.yul\":218:237   */\n      mstore\n        /* \"#utility.yul\":270:274   */\n      0x20\n        /* \"#utility.yul\":265:268   */\n      dup3\n        /* \"#utility.yul\":261:275   */\n      add\n        /* \"#utility.yul\":246:275   */\n      swap1\n      pop\n        /* \"#utility.yul\":112:281   */\n      swap3\n      swap2\n      pop\n      pop\n      jump\t// out\n        /* \"#utility.yul\":287:426   */\n    tag_39:\n        /* \"#utility.yul\":376:382   */\n      dup3\n        /* \"#utility.yul\":371:374   */\n      dup2\n        /* \"#utility.yul\":366:369   */\n      dup4\n        /* \"#utility.yul\":360:383   */\n      mcopy\n        /* \"#utility.yul\":417:418   */\n      0x00\n        /* \"#utility.yul\":408:414   */\n      dup4\n        /* \"#utility.yul\":403:406   */\n      dup4\n        /* \"#utility.yul\":399:415   */\n      add\n        /* \"#utility.yul\":392:419   */\n      mstore\n        /* \"#utility.yul\":287:426   */\n      pop\n      pop\n      pop\n      jump\t// out\n        /* \"#utility.yul\":432:534   */\n    tag_40:\n        /* \"#utility.yul\":473:479   */\n      0x00\n        /* \"#utility.yul\":524:526   */\n      0x1f\n        /* \"#utility.yul\":520:527   */\n      not\n        /* \"#utility.yul\":515:517   */\n      0x1f\n        /* \"#utility.yul\":508:513   */\n      dup4\n        /* \"#utility.yul\":504:518   */\n      add\n        /* \"#utility.yul\":500:528   */\n      and\n        /* \"#utility.yul\":490:528   */\n      swap1\n      pop\n        /* \"#utility.yul\":432:534   */\n      swap2\n      swap1\n      pop\n      jump\t// out\n        /* \"#utility.yul\":540:917   */\n    tag_41:\n        /* \"#utility.yul\":628:631   */\n      0x00\n        /* \"#utility.yul\":656:695   */\n      tag_85\n        /* \"#utility.yul\":689:694   */\n      dup3\n        /* \"#utility.yul\":656:695   */\n      tag_37\n      jump\t// in\n    tag_85:\n        /* \"#utility.yul\":711:782   */\n      tag_86\n        /* \"#utility.yul\":775:781   */\n      dup2\n        /* \"#utility.yul\":770:773   */\n      dup6\n        /* \"#utility.yul\":711:782   */\n      tag_38\n      jump\t// in\n    tag_86:\n        /* \"#utility.yul\":704:782   */\n      swap4\n      pop\n        /* \"#utility.yul\":791:856   */\n      tag_87\n        /* \"#utility.yul\":849:855   */\n      dup2\n        /* \"#utility.yul\":844:847   */\n      dup6\n        /* \"#utility.yul\":837:841   */\n      0x20\n        /* \"#utility.yul\":830:835   */\n      dup7\n        /* \"#utility.yul\":826:842   */\n      add\n        /* \"#utility.yul\":791:856   */\n      tag_39\n      jump\t// in\n    tag_87:\n        /* \"#utility.yul\":881:910   */\n      tag_88\n        /* \"#utility.yul\":903:909   */\n      dup2\n        /* \"#utility.yul\":881:910   */\n      tag_40\n      jump\t// in\n    tag_88:\n        /* \"#utility.yul\":876:879   */\n      dup5\n        /* \"#utility.yul\":872:911   */\n      add\n        /* \"#utility.yul\":865:911   */\n      swap2\n      pop\n        /* \"#utility.yul\":632:917   */\n      pop\n        /* \"#utility.yul\":540:917   */\n      swap3\n      swap2\n      pop\n      pop\n      jump\t// out\n        /* \"#utility.yul\":923:1236   */\n    tag_10:\n        /* \"#utility.yul\":1036:1040   */\n      0x00\n        /* \"#utility.yul\":1074:1076   */\n      0x20\n        /* \"#utility.yul\":1063:1072   */\n      dup3\n        /* \"#utility.yul\":1059:1077   */\n      add\n        /* \"#utility.yul\":1051:1077   */\n      swap1\n      pop\n        /* \"#utility.yul\":1123:1132   */\n      dup2\n        /* \"#utility.yul\":1117:1121   */\n      dup2\n        /* \"#utility.yul\":1113:1133   */\n      sub\n        /* \"#utility.yul\":1109:1110   */\n      0x00\n        /* \"#utility.yul\":1098:1107   */\n      dup4\n        /* \"#utility.yul\":1094:1111   */\n      add\n        /* \"#utility.yul\":1087:1134   */\n      mstore\n        /* \"#utility.yul\":1151:1229   */\n      tag_90\n        /* \"#utility.yul\":1224:1228   */\n      dup2\n        /* \"#utility.yul\":1215:1221   */\n      dup5\n        /* \"#utility.yul\":1151:1229   */\n      tag_41\n      jump\t// in\n    tag_90:\n        /* \"#utility.yul\":1143:1229   */\n      swap1\n      pop\n        /* \"#utility.yul\":923:1236   */\n      swap3\n      swap2\n      pop\n      pop\n      jump\t// out\n        /* \"#utility.yul\":1242:1317   */\n    tag_42:\n        /* \"#utility.yul\":1275:1281   */\n      0x00\n        /* \"#utility.yul\":1308:1310   */\n      0x40\n        /* \"#utility.yul\":1302:1311   */\n      mload\n        /* \"#utility.yul\":1292:1311   */\n      swap1\n      pop\n        /* \"#utility.yul\":1242:1317   */\n      swap1\n      jump\t// out\n        /* \"#utility.yul\":1323:1440   */\n    tag_43:\n        /* \"#utility.yul\":1432:1433   */\n      0x00\n        /* \"#utility.yul\":1429:1430   */\n      dup1\n        /* \"#utility.yul\":1422:1434   */\n      revert\n        /* \"#utility.yul\":1446:1563   */\n    tag_44:\n        /* \"#utility.yul\":1555:1556   */\n      0x00\n        /* \"#utility.yul\":1552:1553   */\n      dup1\n        /* \"#utility.yul\":1545:1557   */\n      revert\n        /* \"#utility.yul\":1569:1695   */\n    tag_45:\n        /* \"#utility.yul\":1606:1613   */\n      0x00\n        /* \"#utility.yul\":1646:1688   */\n      0xffffffffffffffffffffffffffffffffffffffff\n        /* \"#utility.yul\":1639:1644   */\n      dup3\n        /* \"#utility.yul\":1635:1689   */\n      and\n        /* \"#utility.yul\":1624:1689   */\n      swap1\n      pop\n        /* \"#utility.yul\":1569:1695   */\n      swap2\n      swap1\n      pop\n      jump\t// out\n        /* \"#utility.yul\":1701:1797   */\n    tag_46:\n        /* \"#utility.yul\":1738:1745   */\n      0x00\n        /* \"#utility.yul\":1767:1791   */\n      tag_96\n        /* \"#utility.yul\":1785:1790   */\n      dup3\n        /* \"#utility.yul\":1767:1791   */\n      tag_45\n      jump\t// in\n    tag_96:\n        /* \"#utility.yul\":1756:1791   */\n      swap1\n      pop\n        /* \"#utility.yul\":1701:1797   */\n      swap2\n      swap1\n      pop\n      jump\t// out\n        /* \"#utility.yul\":1803:1925   */\n    tag_47:\n        /* \"#utility.yul\":1876:1900   */\n      tag_98\n        /* \"#utility.yul\":1894:1899   */\n      dup2\n        /* \"#utility.yul\":1876:1900   */\n      tag_46\n      jump\t// in\n    tag_98:\n        /* \"#utility.yul\":1869:1874   */\n      dup2\n        /* \"#utility.yul\":1866:1901   */\n      eq\n        /* \"#utility.yul\":1856:1919   */\n      tag_99\n      jumpi\n        /* \"#utility.yul\":1915:1916   */\n      0x00\n        /* \"#utility.yul\":1912:1913   */\n      dup1\n        /* \"#utility.yul\":1905:1917   */\n      revert\n        /* \"#utility.yul\":1856:1919   */\n    tag_99:\n        /* \"#utility.yul\":1803:1925   */\n      pop\n      jump\t// out\n        /* \"#utility.yul\":1931:2070   */\n    tag_48:\n        /* \"#utility.yul\":1977:1982   */\n      0x00\n        /* \"#utility.yul\":2015:2021   */\n      dup2\n        /* \"#utility.yul\":2002:2022   */\n      calldataload\n        /* \"#utility.yul\":1993:2022   */\n      swap1\n      pop\n        /* \"#utility.yul\":2031:2064   */\n      tag_101\n        /* \"#utility.yul\":2058:2063   */\n      dup2\n        /* \"#utility.yul\":2031:2064   */\n      tag_47\n      jump\t// in\n    tag_101:\n        /* \"#utility.yul\":1931:2070   */\n      swap3\n      swap2\n      pop\n      pop\n      jump\t// out\n        /* \"#utility.yul\":2076:2405   */\n    tag_13:\n        /* \"#utility.yul\":2135:2141   */\n      0x00\n        /* \"#utility.yul\":2184:2186   */\n      0x20\n        /* \"#utility.yul\":2172:2181   */\n      dup3\n        /* \"#utility.yul\":2163:2170   */\n      dup5\n        /* \"#utility.yul\":2159:2182   */\n      sub\n        /* \"#utility.yul\":2155:2187   */\n      slt\n        /* \"#utility.yul\":2152:2271   */\n      iszero\n      tag_103\n      jumpi\n        /* \"#utility.yul\":2190:2269   */\n      tag_104\n      tag_43\n      jump\t// in\n    tag_104:\n        /* \"#utility.yul\":2152:2271   */\n    tag_103:\n        /* \"#utility.yul\":2310:2311   */\n      0x00\n        /* \"#utility.yul\":2335:2388   */\n      tag_105\n        /* \"#utility.yul\":2380:2387   */\n      dup5\n        /* \"#utility.yul\":2371:2377   */\n      dup3\n        /* \"#utility.yul\":2360:2369   */\n      dup6\n        /* \"#utility.yul\":2356:2378   */\n      add\n        /* \"#utility.yul\":2335:2388   */\n      tag_48\n      jump\t// in\n    tag_105:\n        /* \"#utility.yul\":2325:2388   */\n      swap2\n      pop\n        /* \"#utility.yul\":2281:2398   */\n      pop\n        /* \"#utility.yul\":2076:2405   */\n      swap3\n      swap2\n      pop\n      pop\n      jump\t// out\n        /* \"#utility.yul\":2411:2501   */\n    tag_49:\n        /* \"#utility.yul\":2445:2452   */\n      0x00\n        /* \"#utility.yul\":2488:2493   */\n      dup2\n        /* \"#utility.yul\":2481:2494   */\n      iszero\n        /* \"#utility.yul\":2474:2495   */\n      iszero\n        /* \"#utility.yul\":2463:2495   */\n      swap1\n      pop\n        /* \"#utility.yul\":2411:2501   */\n      swap2\n      swap1\n      pop\n      jump\t// out\n        /* \"#utility.yul\":2507:2616   */\n    tag_50:\n        /* \"#utility.yul\":2588:2609   */\n      tag_108\n        /* \"#utility.yul\":2603:2608   */\n      dup2\n        /* \"#utility.yul\":2588:2609   */\n      tag_49\n      jump\t// in\n    tag_108:\n        /* \"#utility.yul\":2583:2586   */\n      dup3\n        /* \"#utility.yul\":2576:2610   */\n      mstore\n        /* \"#utility.yul\":2507:2616   */\n      pop\n      pop\n      jump\t// out\n        /* \"#utility.yul\":2622:2832   */\n    tag_16:\n        /* \"#utility.yul\":2709:2713   */\n      0x00\n        /* \"#utility.yul\":2747:2749   */\n      0x20\n        /* \"#utility.yul\":2736:2745   */\n      dup3\n        /* \"#utility.yul\":2732:2750   */\n      add\n        /* \"#utility.yul\":2724:2750   */\n      swap1\n      pop\n        /* \"#utility.yul\":2760:2825   */\n      tag_110\n        /* \"#utility.yul\":2822:2823   */\n      0x00\n        /* \"#utility.yul\":2811:2820   */\n      dup4\n        /* \"#utility.yul\":2807:2824   */\n      add\n        /* \"#utility.yul\":2798:2804   */\n      dup5\n        /* \"#utility.yul\":2760:2825   */\n      tag_50\n      jump\t// in\n    tag_110:\n        /* \"#utility.yul\":2622:2832   */\n      swap3\n      swap2\n      pop\n      pop\n      jump\t// out\n        /* \"#utility.yul\":2838:2955   */\n    tag_51:\n        /* \"#utility.yul\":2947:2948   */\n      0x00\n        /* \"#utility.yul\":2944:2945   */\n      dup1\n        /* \"#utility.yul\":2937:2949   */\n      revert\n        /* \"#utility.yul\":2961:3078   */\n    tag_52:\n        /* \"#utility.yul\":3070:3071   */\n      0x00\n        /* \"#utility.yul\":3067:3068   */\n      dup1\n        /* \"#utility.yul\":3060:3072   */\n      revert\n        /* \"#utility.yul\":3084:3264   */\n    tag_53:\n        /* \"#utility.yul\":3132:3209   */\n      0x4e487b7100000000000000000000000000000000000000000000000000000000\n        /* \"#utility.yul\":3129:3130   */\n      0x00\n        /* \"#utility.yul\":3122:3210   */\n      mstore\n        /* \"#utility.yul\":3229:3233   */\n      0x41\n        /* \"#utility.yul\":3226:3227   */\n      0x04\n        /* \"#utility.yul\":3219:3234   */\n      mstore\n        /* \"#utility.yul\":3253:3257   */\n      0x24\n        /* \"#utility.yul\":3250:3251   */\n      0x00\n        /* \"#utility.yul\":3243:3258   */\n      revert\n        /* \"#utility.yul\":3270:3551   */\n    tag_54:\n        /* \"#utility.yul\":3353:3380   */\n      tag_115\n        /* \"#utility.yul\":3375:3379   */\n      dup3\n        /* \"#utility.yul\":3353:3380   */\n      tag_40\n      jump\t// in\n    tag_115:\n        /* \"#utility.yul\":3345:3351   */\n      dup2\n        /* \"#utility.yul\":3341:3381   */\n      add\n        /* \"#utility.yul\":3483:3489   */\n      dup2\n        /* \"#utility.yul\":3471:3481   */\n      dup2\n        /* \"#utility.yul\":3468:3490   */\n      lt\n        /* \"#utility.yul\":3447:3465   */\n      0xffffffffffffffff\n        /* \"#utility.yul\":3435:3445   */\n      dup3\n        /* \"#utility.yul\":3432:3466   */\n      gt\n        /* \"#utility.yul\":3429:3491   */\n      or\n        /* \"#utility.yul\":3426:3514   */\n      iszero\n      tag_116\n      jumpi\n        /* \"#utility.yul\":3494:3512   */\n      tag_117\n      tag_53\n      jump\t// in\n    tag_117:\n        /* \"#utility.yul\":3426:3514   */\n    tag_116:\n        /* \"#utility.yul\":3534:3544   */\n      dup1\n        /* \"#utility.yul\":3530:3532   */\n      0x40\n        /* \"#utility.yul\":3523:3545   */\n      mstore\n        /* \"#utility.yul\":3313:3551   */\n      pop\n        /* \"#utility.yul\":3270:3551   */\n      pop\n      pop\n      jump\t// out\n        /* \"#utility.yul\":3557:3686   */\n    tag_55:\n        /* \"#utility.yul\":3591:3597   */\n      0x00\n        /* \"#utility.yul\":3618:3638   */\n      tag_119\n      tag_42\n      jump\t// in\n    tag_119:\n        /* \"#utility.yul\":3608:3638   */\n      swap1\n      pop\n        /* \"#utility.yul\":3647:3680   */\n      tag_120\n        /* \"#utility.yul\":3675:3679   */\n      dup3\n        /* \"#utility.yul\":3667:3673   */\n      dup3\n        /* \"#utility.yul\":3647:3680   */\n      tag_54\n      jump\t// in\n    tag_120:\n        /* \"#utility.yul\":3557:3686   */\n      swap2\n      swap1\n      pop\n      jump\t// out\n        /* \"#utility.yul\":3692:4000   */\n    tag_56:\n        /* \"#utility.yul\":3754:3758   */\n      0x00\n        /* \"#utility.yul\":3844:3862   */\n      0xffffffffffffffff\n        /* \"#utility.yul\":3836:3842   */\n      dup3\n        /* \"#utility.yul\":3833:3863   */\n      gt\n        /* \"#utility.yul\":3830:3886   */\n      iszero\n      tag_122\n      jumpi\n        /* \"#utility.yul\":3866:3884   */\n      tag_123\n      tag_53\n      jump\t// in\n    tag_123:\n        /* \"#utility.yul\":3830:3886   */\n    tag_122:\n        /* \"#utility.yul\":3904:3933   */\n      tag_124\n        /* \"#utility.yul\":3926:3932   */\n      dup3\n        /* \"#utility.yul\":3904:3933   */\n      tag_40\n      jump\t// in\n    tag_124:\n        /* \"#utility.yul\":3896:3933   */\n      swap1\n      pop\n        /* \"#utility.yul\":3988:3992   */\n      0x20\n        /* \"#utility.yul\":3982:3986   */\n      dup2\n        /* \"#utility.yul\":3978:3993   */\n      add\n        /* \"#utility.yul\":3970:3993   */\n      swap1\n      pop\n        /* \"#utility.yul\":3692:4000   */\n      swap2\n      swap1\n      pop\n      jump\t// out\n        /* \"#utility.yul\":4006:4154   */\n    tag_57:\n        /* \"#utility.yul\":4104:4110   */\n      dup3\n        /* \"#utility.yul\":4099:4102   */\n      dup2\n        /* \"#utility.yul\":4094:4097   */\n      dup4\n        /* \"#utility.yul\":4081:4111   */\n      calldatacopy\n        /* \"#utility.yul\":4145:4146   */\n      0x00\n        /* \"#utility.yul\":4136:4142   */\n      dup4\n        /* \"#utility.yul\":4131:4134   */\n      dup4\n        /* \"#utility.yul\":4127:4143   */\n      add\n        /* \"#utility.yul\":4120:4147   */\n      mstore\n        /* \"#utility.yul\":4006:4154   */\n      pop\n      pop\n      pop\n      jump\t// out\n        /* \"#utility.yul\":4160:4585   */\n    tag_58:\n        /* \"#utility.yul\":4238:4243   */\n      0x00\n        /* \"#utility.yul\":4263:4329   */\n      tag_127\n        /* \"#utility.yul\":4279:4328   */\n      tag_128\n        /* \"#utility.yul\":4321:4327   */\n      dup5\n        /* \"#utility.yul\":4279:4328   */\n      tag_56\n      jump\t// in\n    tag_128:\n        /* \"#utility.yul\":4263:4329   */\n      tag_55\n      jump\t// in\n    tag_127:\n        /* \"#utility.yul\":4254:4329   */\n      swap1\n      pop\n        /* \"#utility.yul\":4352:4358   */\n      dup3\n        /* \"#utility.yul\":4345:4350   */\n      dup2\n        /* \"#utility.yul\":4338:4359   */\n      mstore\n        /* \"#utility.yul\":4390:4394   */\n      0x20\n        /* \"#utility.yul\":4383:4388   */\n      dup2\n        /* \"#utility.yul\":4379:4395   */\n      add\n        /* \"#utility.yul\":4428:4431   */\n      dup5\n        /* \"#utility.yul\":4419:4425   */\n      dup5\n        /* \"#utility.yul\":4414:4417   */\n      dup5\n        /* \"#utility.yul\":4410:4426   */\n      add\n        /* \"#utility.yul\":4407:4432   */\n      gt\n        /* \"#utility.yul\":4404:4516   */\n      iszero\n      tag_129\n      jumpi\n        /* \"#utility.yul\":4435:4514   */\n      tag_130\n      tag_52\n      jump\t// in\n    tag_130:\n        /* \"#utility.yul\":4404:4516   */\n    tag_129:\n        /* \"#utility.yul\":4525:4579   */\n      tag_131\n        /* \"#utility.yul\":4572:4578   */\n      dup5\n        /* \"#utility.yul\":4567:4570   */\n      dup3\n        /* \"#utility.yul\":4562:4565   */\n      dup6\n        /* \"#utility.yul\":4525:4579   */\n      tag_57\n      jump\t// in\n    tag_131:\n        /* \"#utility.yul\":4244:4585   */\n      pop\n        /* \"#utility.yul\":4160:4585   */\n      swap4\n      swap3\n      pop\n      pop\n      pop\n      jump\t// out\n        /* \"#utility.yul\":4605:4945   */\n    tag_59:\n        /* \"#utility.yul\":4661:4666   */\n      0x00\n        /* \"#utility.yul\":4710:4713   */\n      dup3\n        /* \"#utility.yul\":4703:4707   */\n      0x1f\n        /* \"#utility.yul\":4695:4701   */\n      dup4\n        /* \"#utility.yul\":4691:4708   */\n      add\n        /* \"#utility.yul\":4687:4714   */\n      slt\n        /* \"#utility.yul\":4677:4799   */\n      tag_133\n      jumpi\n        /* \"#utility.yul\":4718:4797   */\n      tag_134\n      tag_51\n      jump\t// in\n    tag_134:\n        /* \"#utility.yul\":4677:4799   */\n    tag_133:\n        /* \"#utility.yul\":4835:4841   */\n      dup2\n        /* \"#utility.yul\":4822:4842   */\n      calldataload\n        /* \"#utility.yul\":4860:4939   */\n      tag_135\n        /* \"#utility.yul\":4935:4938   */\n      dup5\n        /* \"#utility.yul\":4927:4933   */\n      dup3\n        /* \"#utility.yul\":4920:4924   */\n      0x20\n        /* \"#utility.yul\":4912:4918   */\n      dup7\n        /* \"#utility.yul\":4908:4925   */\n      add\n        /* \"#utility.yul\":4860:4939   */\n      tag_58\n      jump\t// in\n    tag_135:\n        /* \"#utility.yul\":4851:4939   */\n      swap2\n      pop\n        /* \"#utility.yul\":4667:4945   */\n      pop\n        /* \"#utility.yul\":4605:4945   */\n      swap3\n      swap2\n      pop\n      pop\n      jump\t// out\n        /* \"#utility.yul\":4951:5460   */\n    tag_19:\n        /* \"#utility.yul\":5020:5026   */\n      0x00\n        /* \"#utility.yul\":5069:5071   */\n      0x20\n        /* \"#utility.yul\":5057:5066   */\n      dup3\n        /* \"#utility.yul\":5048:5055   */\n      dup5\n        /* \"#utility.yul\":5044:5067   */\n      sub\n        /* \"#utility.yul\":5040:5072   */\n      slt\n        /* \"#utility.yul\":5037:5156   */\n      iszero\n      tag_137\n      jumpi\n        /* \"#utility.yul\":5075:5154   */\n      tag_138\n      tag_43\n      jump\t// in\n    tag_138:\n        /* \"#utility.yul\":5037:5156   */\n    tag_137:\n        /* \"#utility.yul\":5223:5224   */\n      0x00\n        /* \"#utility.yul\":5212:5221   */\n      dup3\n        /* \"#utility.yul\":5208:5225   */\n      add\n        /* \"#utility.yul\":5195:5226   */\n      calldataload\n        /* \"#utility.yul\":5253:5271   */\n      0xffffffffffffffff\n        /* \"#utility.yul\":5245:5251   */\n      dup2\n        /* \"#utility.yul\":5242:5272   */\n      gt\n        /* \"#utility.yul\":5239:5356   */\n      iszero\n      tag_139\n      jumpi\n        /* \"#utility.yul\":5275:5354   */\n      tag_140\n      tag_44\n      jump\t// in\n    tag_140:\n        /* \"#utility.yul\":5239:5356   */\n    tag_139:\n        /* \"#utility.yul\":5380:5443   */\n      tag_141\n        /* \"#utility.yul\":5435:5442   */\n      dup5\n        /* \"#utility.yul\":5426:5432   */\n      dup3\n        /* \"#utility.yul\":5415:5424   */\n      dup6\n        /* \"#utility.yul\":5411:5433   */\n      add\n        /* \"#utility.yul\":5380:5443   */\n      tag_59\n      jump\t// in\n    tag_141:\n        /* \"#utility.yul\":5370:5443   */\n      swap2\n      pop\n        /* \"#utility.yul\":5166:5453   */\n      pop\n        /* \"#utility.yul\":4951:5460   */\n      swap3\n      swap2\n      pop\n      pop\n      jump\t// out\n        /* \"#utility.yul\":5466:5646   */\n    tag_60:\n        /* \"#utility.yul\":5514:5591   */\n      0x4e487b7100000000000000000000000000000000000000000000000000000000\n        /* \"#utility.yul\":5511:5512   */\n      0x00\n        /* \"#utility.yul\":5504:5592   */\n      mstore\n        /* \"#utility.yul\":5611:5615   */\n      0x22\n        /* \"#utility.yul\":5608:5609   */\n      0x04\n        /* \"#utility.yul\":5601:5616   */\n      mstore\n        /* \"#utility.yul\":5635:5639   */\n      0x24\n        /* \"#utility.yul\":5632:5633   */\n      0x00\n        /* \"#utility.yul\":5625:5640   */\n      revert\n        /* \"#utility.yul\":5652:5972   */\n    tag_25:\n        /* \"#utility.yul\":5696:5702   */\n      0x00\n        /* \"#utility.yul\":5733:5734   */\n      0x02\n        /* \"#utility.yul\":5727:5731   */\n      dup3\n        /* \"#utility.yul\":5723:5735   */\n      div\n        /* \"#utility.yul\":5713:5735   */\n      swap1\n      pop\n        /* \"#utility.yul\":5780:5781   */\n      0x01\n        /* \"#utility.yul\":5774:5778   */\n      dup3\n        /* \"#utility.yul\":5770:5782   */\n      and\n        /* \"#utility.yul\":5801:5819   */\n      dup1\n        /* \"#utility.yul\":5791:5872   */\n      tag_144\n      jumpi\n        /* \"#utility.yul\":5857:5861   */\n      0x7f\n        /* \"#utility.yul\":5849:5855   */\n      dup3\n        /* \"#utility.yul\":5845:5862   */\n      and\n        /* \"#utility.yul\":5835:5862   */\n      swap2\n      pop\n        /* \"#utility.yul\":5791:5872   */\n    tag_144:\n        /* \"#utility.yul\":5919:5921   */\n      0x20\n        /* \"#utility.yul\":5911:5917   */\n      dup3\n        /* \"#utility.yul\":5908:5922   */\n      lt\n        /* \"#utility.yul\":5888:5906   */\n      dup2\n        /* \"#utility.yul\":5885:5923   */\n      sub\n        /* \"#utility.yul\":5882:5966   */\n      tag_145\n      jumpi\n        /* \"#utility.yul\":5938:5956   */\n      tag_146\n      tag_60\n      jump\t// in\n    tag_146:\n        /* \"#utility.yul\":5882:5966   */\n    tag_145:\n        /* \"#utility.yul\":5703:5972   */\n      pop\n        /* \"#utility.yul\":5652:5972   */\n      swap2\n      swap1\n      pop\n      jump\t// out\n        /* \"#utility.yul\":5978:6159   */\n    tag_61:\n        /* \"#utility.yul\":6118:6151   */\n      0x546869732061646472657373206973206e6f742077686974656c697374656400\n        /* \"#utility.yul\":6114:6115   */\n      0x00\n        /* \"#utility.yul\":6106:6112   */\n      dup3\n        /* \"#utility.yul\":6102:6116   */\n      add\n        /* \"#utility.yul\":6095:6152   */\n      mstore\n        /* \"#utility.yul\":5978:6159   */\n      pop\n      jump\t// out\n        /* \"#utility.yul\":6165:6531   */\n    tag_62:\n        /* \"#utility.yul\":6307:6310   */\n      0x00\n        /* \"#utility.yul\":6328:6395   */\n      tag_149\n        /* \"#utility.yul\":6392:6394   */\n      0x1f\n        /* \"#utility.yul\":6387:6390   */\n      dup4\n        /* \"#utility.yul\":6328:6395   */\n      tag_38\n      jump\t// in\n    tag_149:\n        /* \"#utility.yul\":6321:6395   */\n      swap2\n      pop\n        /* \"#utility.yul\":6404:6497   */\n      tag_150\n        /* \"#utility.yul\":6493:6496   */\n      dup3\n        /* \"#utility.yul\":6404:6497   */\n      tag_61\n      jump\t// in\n    tag_150:\n        /* \"#utility.yul\":6522:6524   */\n      0x20\n        /* \"#utility.yul\":6517:6520   */\n      dup3\n        /* \"#utility.yul\":6513:6525   */\n      add\n        /* \"#utility.yul\":6506:6525   */\n      swap1\n      pop\n        /* \"#utility.yul\":6165:6531   */\n      swap2\n      swap1\n      pop\n      jump\t// out\n        /* \"#utility.yul\":6537:6956   */\n    tag_33:\n        /* \"#utility.yul\":6703:6707   */\n      0x00\n        /* \"#utility.yul\":6741:6743   */\n      0x20\n        /* \"#utility.yul\":6730:6739   */\n      dup3\n        /* \"#utility.yul\":6726:6744   */\n      add\n        /* \"#utility.yul\":6718:6744   */\n      swap1\n      pop\n        /* \"#utility.yul\":6790:6799   */\n      dup2\n        /* \"#utility.yul\":6784:6788   */\n      dup2\n        /* \"#utility.yul\":6780:6800   */\n      sub\n        /* \"#utility.yul\":6776:6777   */\n      0x00\n        /* \"#utility.yul\":6765:6774   */\n      dup4\n        /* \"#utility.yul\":6761:6778   */\n      add\n        /* \"#utility.yul\":6754:6801   */\n      mstore\n        /* \"#utility.yul\":6818:6949   */\n      tag_152\n        /* \"#utility.yul\":6944:6948   */\n      dup2\n        /* \"#utility.yul\":6818:6949   */\n      tag_62\n      jump\t// in\n    tag_152:\n        /* \"#utility.yul\":6810:6949   */\n      swap1\n      pop\n        /* \"#utility.yul\":6537:6956   */\n      swap2\n      swap1\n      pop\n      jump\t// out\n        /* \"#utility.yul\":6962:7103   */\n    tag_63:\n        /* \"#utility.yul\":7011:7015   */\n      0x00\n        /* \"#utility.yul\":7034:7037   */\n      dup2\n        /* \"#utility.yul\":7026:7037   */\n      swap1\n      pop\n        /* \"#utility.yul\":7057:7060   */\n      dup2\n        /* \"#utility.yul\":7054:7055   */\n      0x00\n        /* \"#utility.yul\":7047:7061   */\n      mstore\n        /* \"#utility.yul\":7091:7095   */\n      0x20\n        /* \"#utility.yul\":7088:7089   */\n      0x00\n        /* \"#utility.yul\":7078:7096   */\n      keccak256\n        /* \"#utility.yul\":7070:7096   */\n      swap1\n      pop\n        /* \"#utility.yul\":6962:7103   */\n      swap2\n      swap1\n      pop\n      jump\t// out\n        /* \"#utility.yul\":7109:7202   */\n    tag_64:\n        /* \"#utility.yul\":7146:7152   */\n      0x00\n        /* \"#utility.yul\":7193:7195   */\n      0x20\n        /* \"#utility.yul\":7188:7190   */\n      0x1f\n        /* \"#utility.yul\":7181:7186   */\n      dup4\n        /* \"#utility.yul\":7177:7191   */\n      add\n        /* \"#utility.yul\":7173:7196   */\n      div\n        /* \"#utility.yul\":7163:7196   */\n      swap1\n      pop\n        /* \"#utility.yul\":7109:7202   */\n      swap2\n      swap1\n      pop\n      jump\t// out\n        /* \"#utility.yul\":7208:7315   */\n    tag_65:\n        /* \"#utility.yul\":7252:7260   */\n      0x00\n        /* \"#utility.yul\":7302:7307   */\n      dup3\n        /* \"#utility.yul\":7296:7300   */\n      dup3\n        /* \"#utility.yul\":7292:7308   */\n      shl\n        /* \"#utility.yul\":7271:7308   */\n      swap1\n      pop\n        /* \"#utility.yul\":7208:7315   */\n      swap3\n      swap2\n      pop\n      pop\n      jump\t// out\n        /* \"#utility.yul\":7321:7714   */\n    tag_66:\n        /* \"#utility.yul\":7390:7396   */\n      0x00\n        /* \"#utility.yul\":7440:7441   */\n      0x08\n        /* \"#utility.yul\":7428:7438   */\n      dup4\n        /* \"#utility.yul\":7424:7442   */\n      mul\n        /* \"#utility.yul\":7463:7560   */\n      tag_157\n        /* \"#utility.yul\":7493:7559   */\n      0xffffffffffffffffffffffffffffffffffffffffffffffffffffffffffffffff\n        /* \"#utility.yul\":7482:7491   */\n      dup3\n        /* \"#utility.yul\":7463:7560   */\n      tag_65\n      jump\t// in\n    tag_157:\n        /* \"#utility.yul\":7581:7620   */\n      tag_158\n        /* \"#utility.yul\":7611:7619   */\n      dup7\n        /* \"#utility.yul\":7600:7609   */\n      dup4\n        /* \"#utility.yul\":7581:7620   */\n      tag_65\n      jump\t// in\n    tag_158:\n        /* \"#utility.yul\":7569:7620   */\n      swap6\n      pop\n        /* \"#utility.yul\":7653:7657   */\n      dup1\n        /* \"#utility.yul\":7649:7658   */\n      not\n        /* \"#utility.yul\":7642:7647   */\n      dup5\n        /* \"#utility.yul\":7638:7659   */\n      and\n        /* \"#utility.yul\":7629:7659   */\n      swap4\n      pop\n        /* \"#utility.yul\":7702:7706   */\n      dup1\n        /* \"#utility.yul\":7692:7700   */\n      dup7\n        /* \"#utility.yul\":7688:7707   */\n      and\n        /* \"#utility.yul\":7681:7686   */\n      dup5\n        /* \"#utility.yul\":7678:7708   */\n      or\n        /* \"#utility.yul\":7668:7708   */\n      swap3\n      pop\n        /* \"#utility.yul\":7397:7714   */\n      pop\n      pop\n        /* \"#utility.yul\":7321:7714   */\n      swap4\n      swap3\n      pop\n      pop\n      pop\n      jump\t// out\n        /* \"#utility.yul\":7720:7797   */\n    tag_67:\n        /* \"#utility.yul\":7757:7764   */\n      0x00\n        /* \"#utility.yul\":7786:7791   */\n      dup2\n        /* \"#utility.yul\":7775:7791   */\n      swap1\n      pop\n        /* \"#utility.yul\":7720:7797   */\n      swap2\n      swap1\n      pop\n      jump\t// out\n        /* \"#utility.yul\":7803:7863   */\n    tag_68:\n        /* \"#utility.yul\":7831:7834   */\n      0x00\n        /* \"#utility.yul\":7852:7857   */\n      dup2\n        /* \"#utility.yul\":7845:7857   */\n      swap1\n      pop\n        /* \"#utility.yul\":7803:7863   */\n      swap2\n      swap1\n      pop\n      jump\t// out\n        /* \"#utility.yul\":7869:8011   */\n    tag_69:\n        /* \"#utility.yul\":7919:7928   */\n      0x00\n        /* \"#utility.yul\":7952:8005   */\n      tag_162\n        /* \"#utility.yul\":7970:8004   */\n      tag_163\n        /* \"#utility.yul\":7979:8003   */\n      tag_164\n        /* \"#utility.yul\":7997:8002   */\n      dup5\n        /* \"#utility.yul\":7979:8003   */\n      tag_67\n      jump\t// in\n    tag_164:\n        /* \"#utility.yul\":7970:8004   */\n      tag_68\n      jump\t// in\n    tag_163:\n        /* \"#utility.yul\":7952:8005   */\n      tag_67\n      jump\t// in\n    tag_162:\n        /* \"#utility.yul\":7939:8005   */\n      swap1\n      pop\n        /* \"#utility.yul\":7869:8011   */\n      swap2\n      swap1\n      pop\n      jump\t// out\n        /* \"#utility.yul\":8017:8092   */\n    tag_70:\n        /* \"#utility.yul\":8060:8063   */\n      0x00\n        /* \"#utility.yul\":8081:8086   */\n      dup2\n        /* \"#utility.yul\":8074:8086   */\n      swap1\n      pop\n        /* \"#utility.yul\":8017:8092   */\n      swap2\n      swap1\n      pop\n      jump\t// out\n        /* \"#utility.yul\":8098:8367   */\n    tag_71:\n        /* \"#utility.yul\":8208:8247   */\n      tag_167\n        /* \"#utility.yul\":8239:8246   */\n      dup4\n        /* \"#utility.yul\":8208:8247   */\n      tag_69\n      jump\t// in\n    tag_167:\n        /* \"#utility.yul\":8269:8360   */\n      tag_168\n        /* \"#utility.yul\":8318:8359   */\n      tag_169\n        /* \"#utility.yul\":8342:8358   */\n      dup3\n        /* \"#utility.yul\":8318:8359   */\n      tag_70\n      jump\t// in\n    tag_169:\n        /* \"#utility.yul\":8310:8316   */\n      dup5\n        /* \"#utility.yul\":8303:8307   */\n      dup5\n        /* \"#utility.yul\":8297:8308   */\n      sload\n        /* \"#utility.yul\":8269:8360   */\n      tag_66\n      jump\t// in\n    tag_168:\n        /* \"#utility.yul\":8263:8267   */\n      dup3\n        /* \"#utility.yul\":8256:8361   */\n      sstore\n        /* \"#utility.yul\":8174:8367   */\n      pop\n        /* \"#utility.yul\":8098:8367   */\n      pop\n      pop\n      pop\n      jump\t// out\n        /* \"#utility.yul\":8373:8446   */\n    tag_72:\n        /* \"#utility.yul\":8418:8421   */\n      0x00\n        /* \"#utility.yul\":8373:8446   */\n      swap1\n      jump\t// out\n        /* \"#utility.yul\":8452:8641   */\n    tag_73:\n        /* \"#utility.yul\":8529:8561   */\n      tag_172\n      tag_72\n      jump\t// in\n    tag_172:\n        /* \"#utility.yul\":8570:8635   */\n      tag_173\n        /* \"#utility.yul\":8628:8634   */\n      dup2\n        /* \"#utility.yul\":8620:8626   */\n      dup5\n        /* \"#utility.yul\":8614:8618   */\n      dup5\n        /* \"#utility.yul\":8570:8635   */\n      tag_71\n      jump\t// in\n    tag_173:\n        /* \"#utility.yul\":8505:8641   */\n      pop\n        /* \"#utility.yul\":8452:8641   */\n      pop\n      pop\n      jump\t// out\n        /* \"#utility.yul\":8647:8833   */\n    tag_74:\n        /* \"#utility.yul\":8707:8827   */\n    tag_175:\n        /* \"#utility.yul\":8724:8727   */\n      dup2\n        /* \"#utility.yul\":8717:8722   */\n      dup2\n        /* \"#utility.yul\":8714:8728   */\n      lt\n        /* \"#utility.yul\":8707:8827   */\n      iszero\n      tag_177\n      jumpi\n        /* \"#utility.yul\":8778:8817   */\n      tag_178\n        /* \"#utility.yul\":8815:8816   */\n      0x00\n        /* \"#utility.yul\":8808:8813   */\n      dup3\n        /* \"#utility.yul\":8778:8817   */\n      tag_73\n      jump\t// in\n    tag_178:\n        /* \"#utility.yul\":8751:8752   */\n      0x01\n        /* \"#utility.yul\":8744:8749   */\n      dup2\n        /* \"#utility.yul\":8740:8753   */\n      add\n        /* \"#utility.yul\":8731:8753   */\n      swap1\n      pop\n        /* \"#utility.yul\":8707:8827   */\n      jump(tag_175)\n    tag_177:\n        /* \"#utility.yul\":8647:8833   */\n      pop\n      pop\n      jump\t// out\n        /* \"#utility.yul\":8839:9382   */\n    tag_75:\n        /* \"#utility.yul\":8940:8942   */\n      0x1f\n        /* \"#utility.yul\":8935:8938   */\n      dup3\n        /* \"#utility.yul\":8932:8943   */\n      gt\n        /* \"#utility.yul\":8929:9375   */\n      iszero\n      tag_180\n      jumpi\n        /* \"#utility.yul\":8974:9012   */\n      tag_181\n        /* \"#utility.yul\":9006:9011   */\n      dup2\n        /* \"#utility.yul\":8974:9012   */\n      tag_63\n      jump\t// in\n    tag_181:\n        /* \"#utility.yul\":9058:9087   */\n      tag_182\n        /* \"#utility.yul\":9076:9086   */\n      dup5\n        /* \"#utility.yul\":9058:9087   */\n      tag_64\n      jump\t// in\n    tag_182:\n        /* \"#utility.yul\":9048:9056   */\n      dup2\n        /* \"#utility.yul\":9044:9088   */\n      add\n        /* \"#utility.yul\":9241:9243   */\n      0x20\n        /* \"#utility.yul\":9229:9239   */\n      dup6\n        /* \"#utility.yul\":9226:9244   */\n      lt\n        /* \"#utility.yul\":9223:9272   */\n      iszero\n      tag_183\n      jumpi\n        /* \"#utility.yul\":9262:9270   */\n      dup2\n        /* \"#utility.yul\":9247:9270   */\n      swap1\n      pop\n        /* \"#utility.yul\":9223:9272   */\n    tag_183:\n        /* \"#utility.yul\":9285:9365   */\n      tag_184\n        /* \"#utility.yul\":9341:9363   */\n      tag_185\n        /* \"#utility.yul\":9359:9362   */\n      dup6\n        /* \"#utility.yul\":9341:9363   */\n      tag_64\n      jump\t// in\n    tag_185:\n        /* \"#utility.yul\":9331:9339   */\n      dup4\n        /* \"#utility.yul\":9327:9364   */\n      add\n        /* \"#utility.yul\":9314:9325   */\n      dup3\n        /* \"#utility.yul\":9285:9365   */\n      tag_74\n      jump\t// in\n    tag_184:\n        /* \"#utility.yul\":8944:9375   */\n      pop\n      pop\n        /* \"#utility.yul\":8929:9375   */\n    tag_180:\n        /* \"#utility.yul\":8839:9382   */\n      pop\n      pop\n      pop\n      jump\t// out\n        /* \"#utility.yul\":9388:9505   */\n    tag_76:\n        /* \"#utility.yul\":9442:9450   */\n      0x00\n        /* \"#utility.yul\":9492:9497   */\n      dup3\n        /* \"#utility.yul\":9486:9490   */\n      dup3\n        /* \"#utility.yul\":9482:9498   */\n      shr\n        /* \"#utility.yul\":9461:9498   */\n      swap1\n      pop\n        /* \"#utility.yul\":9388:9505   */\n      swap3\n      swap2\n      pop\n      pop\n      jump\t// out\n        /* \"#utility.yul\":9511:9680   */\n    tag_77:\n        /* \"#utility.yul\":9555:9561   */\n      0x00\n        /* \"#utility.yul\":9588:9639   */\n      tag_188\n        /* \"#utility.yul\":9636:9637   */\n      0x00\n        /* \"#utility.yul\":9632:9638   */\n      not\n        /* \"#utility.yul\":9624:9629   */\n      dup5\n        /* \"#utility.yul\":9621:9622   */\n      0x08\n        /* \"#utility.yul\":9617:9630   */\n      mul\n        /* \"#utility.yul\":9588:9639   */\n      tag_76\n      jump\t// in\n    tag_188:\n        /* \"#utility.yul\":9584:9640   */\n      not\n        /* \"#utility.yul\":9669:9673   */\n      dup1\n        /* \"#utility.yul\":9663:9667   */\n      dup4\n        /* \"#utility.yul\":9659:9674   */\n      and\n        /* \"#utility.yul\":9649:9674   */\n      swap2\n      pop\n        /* \"#utility.yul\":9562:9680   */\n      pop\n        /* \"#utility.yul\":9511:9680   */\n      swap3\n      swap2\n      pop\n      pop\n      jump\t// out\n        /* \"#utility.yul\":9685:9980   */\n    tag_78:\n        /* \"#utility.yul\":9761:9765   */\n      0x00\n        /* \"#utility.yul\":9907:9936   */\n      tag_190\n        /* \"#utility.yul\":9932:9935   */\n      dup4\n        /* \"#utility.yul\":9926:9930   */\n      dup4\n        /* \"#utility.yul\":9907:9936   */\n      tag_77\n      jump\t// in\n    tag_190:\n        /* \"#utility.yul\":9899:9936   */\n      swap2\n      pop\n        /* \"#utility.yul\":9969:9972   */\n      dup3\n        /* \"#utility.yul\":9966:9967   */\n      0x02\n        /* \"#utility.yul\":9962:9973   */\n      mul\n        /* \"#utility.yul\":9956:9960   */\n      dup3\n        /* \"#utility.yul\":9953:9974   */\n      or\n        /* \"#utility.yul\":9945:9974   */\n      swap1\n      pop\n        /* \"#utility.yul\":9685:9980   */\n      swap3\n      swap2\n      pop\n      pop\n      jump\t// out\n        /* \"#utility.yul\":9985:11380   */\n    tag_35:\n        /* \"#utility.yul\":10102:10139   */\n      tag_192\n        /* \"#utility.yul\":10135:10138   */\n      dup3\n        /* \"#utility.yul\":10102:10139   */\n      tag_37\n      jump\t// in\n    tag_192:\n        /* \"#utility.yul\":10204:10222   */\n      0xffffffffffffffff\n        /* \"#utility.yul\":10196:10202   */\n      dup2\n        /* \"#utility.yul\":10193:10223   */\n      gt\n        /* \"#utility.yul\":10190:10246   */\n      iszero\n      tag_193\n      jumpi\n        /* \"#utility.yul\":10226:10244   */\n      tag_194\n      tag_53\n      jump\t// in\n    tag_194:\n        /* \"#utility.yul\":10190:10246   */\n    tag_193:\n        /* \"#utility.yul\":10270:10308   */\n      tag_195\n        /* \"#utility.yul\":10302:10306   */\n      dup3\n        /* \"#utility.yul\":10296:10307   */\n      sload\n        /* \"#utility.yul\":10270:10308   */\n      tag_25\n      jump\t// in\n    tag_195:\n        /* \"#utility.yul\":10355:10422   */\n      tag_196\n        /* \"#utility.yul\":10415:10421   */\n      dup3\n        /* \"#utility.yul\":10407:10413   */\n      dup3\n        /* \"#utility.yul\":10401:10405   */\n      dup6\n        /* \"#utility.yul\":10355:10422   */\n      tag_75\n      jump\t// in\n    tag_196:\n        /* \"#utility.yul\":10449:10450   */\n      0x00\n        /* \"#utility.yul\":10473:10477   */\n      0x20\n        /* \"#utility.yul\":10460:10477   */\n      swap1\n      pop\n        /* \"#utility.yul\":10505:10507   */\n      0x1f\n        /* \"#utility.yul\":10497:10503   */\n      dup4\n        /* \"#utility.yul\":10494:10508   */\n      gt\n        /* \"#utility.yul\":10522:10523   */\n      0x01\n        /* \"#utility.yul\":10517:11135   */\n      dup2\n      eq\n      tag_198\n      jumpi\n        /* \"#utility.yul\":11179:11180   */\n      0x00\n        /* \"#utility.yul\":11196:11202   */\n      dup5\n        /* \"#utility.yul\":11193:11270   */\n      iszero\n      tag_199\n      jumpi\n        /* \"#utility.yul\":11245:11254   */\n      dup3\n        /* \"#utility.yul\":11240:11243   */\n      dup8\n        /* \"#utility.yul\":11236:11255   */\n      add\n        /* \"#utility.yul\":11230:11256   */\n      mload\n        /* \"#utility.yul\":11221:11256   */\n      swap1\n      pop\n        /* \"#utility.yul\":11193:11270   */\n    tag_199:\n        /* \"#utility.yul\":11296:11363   */\n      tag_200\n        /* \"#utility.yul\":11356:11362   */\n      dup6\n        /* \"#utility.yul\":11349:11354   */\n      dup3\n        /* \"#utility.yul\":11296:11363   */\n      tag_78\n      jump\t// in\n    tag_200:\n        /* \"#utility.yul\":11290:11294   */\n      dup7\n        /* \"#utility.yul\":11283:11364   */\n      sstore\n        /* \"#utility.yul\":11152:11374   */\n      pop\n        /* \"#utility.yul\":10487:11374   */\n      jump(tag_197)\n        /* \"#utility.yul\":10517:11135   */\n    tag_198:\n        /* \"#utility.yul\":10569:10573   */\n      0x1f\n        /* \"#utility.yul\":10565:10574   */\n      not\n        /* \"#utility.yul\":10557:10563   */\n      dup5\n        /* \"#utility.yul\":10553:10575   */\n      and\n        /* \"#utility.yul\":10603:10640   */\n      tag_201\n        /* \"#utility.yul\":10635:10639   */\n      dup7\n        /* \"#utility.yul\":10603:10640   */\n      tag_63\n      jump\t// in\n    tag_201:\n        /* \"#utility.yul\":10662:10663   */\n      0x00\n        /* \"#utility.yul\":10676:10884   */\n    tag_202:\n        /* \"#utility.yul\":10690:10697   */\n      dup3\n        /* \"#utility.yul\":10687:10688   */\n      dup2\n        /* \"#utility.yul\":10684:10698   */\n      lt\n        /* \"#utility.yul\":10676:10884   */\n      iszero\n      tag_204\n      jumpi\n        /* \"#utility.yul\":10769:10778   */\n      dup5\n        /* \"#utility.yul\":10764:10767   */\n      dup10\n        /* \"#utility.yul\":10760:10779   */\n      add\n        /* \"#utility.yul\":10754:10780   */\n      mload\n        /* \"#utility.yul\":10746:10752   */\n      dup3\n        /* \"#utility.yul\":10739:10781   */\n      sstore\n        /* \"#utility.yul\":10820:10821   */\n      0x01\n        /* \"#utility.yul\":10812:10818   */\n      dup3\n        /* \"#utility.yul\":10808:10822   */\n      add\n        /* \"#utility.yul\":10798:10822   */\n      swap2\n      pop\n        /* \"#utility.yul\":10867:10869   */\n      0x20\n        /* \"#utility.yul\":10856:10865   */\n      dup6\n        /* \"#utility.yul\":10852:10870   */\n      add\n        /* \"#utility.yul\":10839:10870   */\n      swap5\n      pop\n        /* \"#utility.yul\":10713:10717   */\n      0x20\n        /* \"#utility.yul\":10710:10711   */\n      dup2\n        /* \"#utility.yul\":10706:10718   */\n      add\n        /* \"#utility.yul\":10701:10718   */\n      swap1\n      pop\n        /* \"#utility.yul\":10676:10884   */\n      jump(tag_202)\n    tag_204:\n        /* \"#utility.yul\":10912:10918   */\n      dup7\n        /* \"#utility.yul\":10903:10910   */\n      dup4\n        /* \"#utility.yul\":10900:10919   */\n      lt\n        /* \"#utility.yul\":10897:11076   */\n      iszero\n      tag_205\n      jumpi\n        /* \"#utility.yul\":10970:10979   */\n      dup5\n        /* \"#utility.yul\":10965:10968   */\n      dup10\n        /* \"#utility.yul\":10961:10980   */\n      add\n        /* \"#utility.yul\":10955:10981   */\n      mload\n        /* \"#utility.yul\":11013:11061   */\n      tag_206\n        /* \"#utility.yul\":11055:11059   */\n      0x1f\n        /* \"#utility.yul\":11047:11053   */\n      dup10\n        /* \"#utility.yul\":11043:11060   */\n      and\n        /* \"#utility.yul\":11032:11041   */\n      dup3\n        /* \"#utility.yul\":11013:11061   */\n      tag_77\n      jump\t// in\n    tag_206:\n        /* \"#utility.yul\":11005:11011   */\n      dup4\n        /* \"#utility.yul\":10998:11062   */\n      sstore\n        /* \"#utility.yul\":10920:11076   */\n      pop\n        /* \"#utility.yul\":10897:11076   */\n    tag_205:\n        /* \"#utility.yul\":11122:11123   */\n      0x01\n        /* \"#utility.yul\":11118:11119   */\n      0x02\n        /* \"#utility.yul\":11110:11116   */\n      dup9\n        /* \"#utility.yul\":11106:11120   */\n      mul\n        /* \"#utility.yul\":11102:11124   */\n      add\n        /* \"#utility.yul\":11096:11100   */\n      dup9\n        /* \"#utility.yul\":11089:11125   */\n      sstore\n        /* \"#utility.yul\":10524:11135   */\n      pop\n      pop\n      pop\n        /* \"#utility.yul\":10487:11374   */\n    tag_197:\n      pop\n        /* \"#utility.yul\":10077:11380   */\n      pop\n      pop\n      pop\n        /* \"#utility.yul\":9985:11380   */\n      pop\n      pop\n      jump\t// out\n\n    auxdata: 0xa2646970667358221220822c6f3c40df0be7844204a49df435619a79a5c2cda0143cce1bb4315a68a8fa64736f6c634300081a0033\n}\n",
				"bytecode": {
					"linkReferences": {},
					"object": "6080604052348015600e575f80fd5b506108aa8061001c5f395ff3fe608060405234801561000f575f80fd5b506004361061004a575f3560e01c806306fdde031461004e578063372c12b11461006c578063c47f00271461009c578063e43252d7146100b8575b5f80fd5b6100566100d4565b60405161006391906102de565b60405180910390f35b61008660048036038101906100819190610369565b610160565b60405161009391906103ae565b60405180910390f35b6100b660048036038101906100b191906104f3565b61017c565b005b6100d260048036038101906100cd9190610369565b610217565b005b600180546100e190610567565b80601f016020809104026020016040519081016040528092919081815260200182805461010d90610567565b80156101585780601f1061012f57610100808354040283529160200191610158565b820191905f5260205f20905b81548152906001019060200180831161013b57829003601f168201915b505050505081565b5f602052805f5260405f205f915054906101000a900460ff1681565b5f803373ffffffffffffffffffffffffffffffffffffffff1673ffffffffffffffffffffffffffffffffffffffff1681526020019081526020015f205f9054906101000a900460ff16610204576040517f08c379a00000000000000000000000000000000000000000000000000000000081526004016101fb906105e1565b60405180910390fd5b806001908161021391906107a5565b5050565b60015f808373ffffffffffffffffffffffffffffffffffffffff1673ffffffffffffffffffffffffffffffffffffffff1681526020019081526020015f205f6101000a81548160ff02191690831515021790555050565b5f81519050919050565b5f82825260208201905092915050565b8281835e5f83830152505050565b5f601f19601f8301169050919050565b5f6102b08261026e565b6102ba8185610278565b93506102ca818560208601610288565b6102d381610296565b840191505092915050565b5f6020820190508181035f8301526102f681846102a6565b905092915050565b5f604051905090565b5f80fd5b5f80fd5b5f73ffffffffffffffffffffffffffffffffffffffff82169050919050565b5f6103388261030f565b9050919050565b6103488161032e565b8114610352575f80fd5b50565b5f813590506103638161033f565b92915050565b5f6020828403121561037e5761037d610307565b5b5f61038b84828501610355565b91505092915050565b5f8115159050919050565b6103a881610394565b82525050565b5f6020820190506103c15f83018461039f565b92915050565b5f80fd5b5f80fd5b7f4e487b71000000000000000000000000000000000000000000000000000000005f52604160045260245ffd5b61040582610296565b810181811067ffffffffffffffff82111715610424576104236103cf565b5b80604052505050565b5f6104366102fe565b905061044282826103fc565b919050565b5f67ffffffffffffffff821115610461576104606103cf565b5b61046a82610296565b9050602081019050919050565b828183375f83830152505050565b5f61049761049284610447565b61042d565b9050828152602081018484840111156104b3576104b26103cb565b5b6104be848285610477565b509392505050565b5f82601f8301126104da576104d96103c7565b5b81356104ea848260208601610485565b91505092915050565b5f6020828403121561050857610507610307565b5b5f82013567ffffffffffffffff8111156105255761052461030b565b5b610531848285016104c6565b91505092915050565b7f4e487b71000000000000000000000000000000000000000000000000000000005f52602260045260245ffd5b5f600282049050600182168061057e57607f821691505b6020821081036105915761059061053a565b5b50919050565b7f546869732061646472657373206973206e6f742077686974656c6973746564005f82015250565b5f6105cb601f83610278565b91506105d682610597565b602082019050919050565b5f6020820190508181035f8301526105f8816105bf565b9050919050565b5f819050815f5260205f209050919050565b5f6020601f8301049050919050565b5f82821b905092915050565b5f6008830261065b7fffffffffffffffffffffffffffffffffffffffffffffffffffffffffffffffff82610620565b6106658683610620565b95508019841693508086168417925050509392505050565b5f819050919050565b5f819050919050565b5f6106a96106a461069f8461067d565b610686565b61067d565b9050919050565b5f819050919050565b6106c28361068f565b6106d66106ce826106b0565b84845461062c565b825550505050565b5f90565b6106ea6106de565b6106f58184846106b9565b505050565b5b818110156107185761070d5f826106e2565b6001810190506106fb565b5050565b601f82111561075d5761072e816105ff565b61073784610611565b81016020851015610746578190505b61075a61075285610611565b8301826106fa565b50505b505050565b5f82821c905092915050565b5f61077d5f1984600802610762565b1980831691505092915050565b5f610795838361076e565b9150826002028217905092915050565b6107ae8261026e565b67ffffffffffffffff8111156107c7576107c66103cf565b5b6107d18254610567565b6107dc82828561071c565b5f60209050601f83116001811461080d575f84156107fb578287015190505b610805858261078a565b86555061086c565b601f19841661081b866105ff565b5f5b828110156108425784890151825560018201915060208501945060208101905061081d565b8683101561085f578489015161085b601f89168261076e565b8355505b6001600288020188555050505b50505050505056fea2646970667358221220822c6f3c40df0be7844204a49df435619a79a5c2cda0143cce1bb4315a68a8fa64736f6c634300081a0033",
					"opcodes": "PUSH1 0x80 PUSH1 0x40 MSTORE CALLVALUE DUP1 ISZERO PUSH1 0xE JUMPI PUSH0 DUP1 REVERT JUMPDEST POP PUSH2 0x8AA DUP1 PUSH2 0x1C PUSH0 CODECOPY PUSH0 RETURN INVALID PUSH1 0x80 PUSH1 0x40 MSTORE CALLVALUE DUP1 ISZERO PUSH2 0xF JUMPI PUSH0 DUP1 REVERT JUMPDEST POP PUSH1 0x4 CALLDATASIZE LT PUSH2 0x4A JUMPI PUSH0 CALLDATALOAD PUSH1 0xE0 SHR DUP1 PUSH4 0x6FDDE03 EQ PUSH2 0x4E JUMPI DUP1 PUSH4 0x372C12B1 EQ PUSH2 0x6C JUMPI DUP1 PUSH4 0xC47F0027 EQ PUSH2 0x9C JUMPI DUP1 PUSH4 0xE43252D7 EQ PUSH2 0xB8 JUMPI JUMPDEST PUSH0 DUP1 REVERT JUMPDEST PUSH2 0x56 PUSH2 0xD4 JUMP JUMPDEST PUSH1 0x40 MLOAD PUSH2 0x63 SWAP2 SWAP1 PUSH2 0x2DE JUMP JUMPDEST PUSH1 0x40 MLOAD DUP1 SWAP2 SUB SWAP1 RETURN JUMPDEST PUSH2 0x86 PUSH1 0x4 DUP1 CALLDATASIZE SUB DUP2 ADD SWAP1 PUSH2 0x81 SWAP2 SWAP1 PUSH2 0x369 JUMP JUMPDEST PUSH2 0x160 JUMP JUMPDEST PUSH1 0x40 MLOAD PUSH2 0x93 SWAP2 SWAP1 PUSH2 0x3AE JUMP JUMPDEST PUSH1 0x40 MLOAD DUP1 SWAP2 SUB SWAP1 RETURN JUMPDEST PUSH2 0xB6 PUSH1 0x4 DUP1 CALLDATASIZE SUB DUP2 ADD SWAP1 PUSH2 0xB1 SWAP2 SWAP1 PUSH2 0x4F3 JUMP JUMPDEST PUSH2 0x17C JUMP JUMPDEST STOP JUMPDEST PUSH2 0xD2 PUSH1 0x4 DUP1 CALLDATASIZE SUB DUP2 ADD SWAP1 PUSH2 0xCD SWAP2 SWAP1 PUSH2 0x369 JUMP JUMPDEST PUSH2 0x217 JUMP JUMPDEST STOP JUMPDEST PUSH1 0x1 DUP1 SLOAD PUSH2 0xE1 SWAP1 PUSH2 0x567 JUMP JUMPDEST DUP1 PUSH1 0x1F ADD PUSH1 0x20 DUP1 SWAP2 DIV MUL PUSH1 0x20 ADD PUSH1 0x40 MLOAD SWAP1 DUP2 ADD PUSH1 0x40 MSTORE DUP1 SWAP3 SWAP2 SWAP1 DUP2 DUP2 MSTORE PUSH1 0x20 ADD DUP3 DUP1 SLOAD PUSH2 0x10D SWAP1 PUSH2 0x567 JUMP JUMPDEST DUP1 ISZERO PUSH2 0x158 JUMPI DUP1 PUSH1 0x1F LT PUSH2 0x12F JUMPI PUSH2 0x100 DUP1 DUP4 SLOAD DIV MUL DUP4 MSTORE SWAP2 PUSH1 0x20 ADD SWAP2 PUSH2 0x158 JUMP JUMPDEST DUP3 ADD SWAP2 SWAP1 PUSH0 MSTORE PUSH1 0x20 PUSH0 KECCAK256 SWAP1 JUMPDEST DUP2 SLOAD DUP2 MSTORE SWAP1 PUSH1 0x1 ADD SWAP1 PUSH1 0x20 ADD DUP1 DUP4 GT PUSH2 0x13B JUMPI DUP3 SWAP1 SUB PUSH1 0x1F AND DUP3 ADD SWAP2 JUMPDEST POP POP POP POP POP DUP2 JUMP JUMPDEST PUSH0 PUSH1 0x20 MSTORE DUP1 PUSH0 MSTORE PUSH1 0x40 PUSH0 KECCAK256 PUSH0 SWAP2 POP SLOAD SWAP1 PUSH2 0x100 EXP SWAP1 DIV PUSH1 0xFF AND DUP2 JUMP JUMPDEST PUSH0 DUP1 CALLER PUSH20 0xFFFFFFFFFFFFFFFFFFFFFFFFFFFFFFFFFFFFFFFF AND PUSH20 0xFFFFFFFFFFFFFFFFFFFFFFFFFFFFFFFFFFFFFFFF AND DUP2 MSTORE PUSH1 0x20 ADD SWAP1 DUP2 MSTORE PUSH1 0x20 ADD PUSH0 KECCAK256 PUSH0 SWAP1 SLOAD SWAP1 PUSH2 0x100 EXP SWAP1 DIV PUSH1 0xFF AND PUSH2 0x204 JUMPI PUSH1 0x40 MLOAD PUSH32 0x8C379A000000000000000000000000000000000000000000000000000000000 DUP2 MSTORE PUSH1 0x4 ADD PUSH2 0x1FB SWAP1 PUSH2 0x5E1 JUMP JUMPDEST PUSH1 0x40 MLOAD DUP1 SWAP2 SUB SWAP1 REVERT JUMPDEST DUP1 PUSH1 0x1 SWAP1 DUP2 PUSH2 0x213 SWAP2 SWAP1 PUSH2 0x7A5 JUMP JUMPDEST POP POP JUMP JUMPDEST PUSH1 0x1 PUSH0 DUP1 DUP4 PUSH20 0xFFFFFFFFFFFFFFFFFFFFFFFFFFFFFFFFFFFFFFFF AND PUSH20 0xFFFFFFFFFFFFFFFFFFFFFFFFFFFFFFFFFFFFFFFF AND DUP2 MSTORE PUSH1 0x20 ADD SWAP1 DUP2 MSTORE PUSH1 0x20 ADD PUSH0 KECCAK256 PUSH0 PUSH2 0x100 EXP DUP2 SLOAD DUP2 PUSH1 0xFF MUL NOT AND SWAP1 DUP4 ISZERO ISZERO MUL OR SWAP1 SSTORE POP POP JUMP JUMPDEST PUSH0 DUP2 MLOAD SWAP1 POP SWAP2 SWAP1 POP JUMP JUMPDEST PUSH0 DUP3 DUP3 MSTORE PUSH1 0x20 DUP3 ADD SWAP1 POP SWAP3 SWAP2 POP POP JUMP JUMPDEST DUP3 DUP2 DUP4 MCOPY PUSH0 DUP4 DUP4 ADD MSTORE POP POP POP JUMP JUMPDEST PUSH0 PUSH1 0x1F NOT PUSH1 0x1F DUP4 ADD AND SWAP1 POP SWAP2 SWAP1 POP JUMP JUMPDEST PUSH0 PUSH2 0x2B0 DUP3 PUSH2 0x26E JUMP JUMPDEST PUSH2 0x2BA DUP2 DUP6 PUSH2 0x278 JUMP JUMPDEST SWAP4 POP PUSH2 0x2CA DUP2 DUP6 PUSH1 0x20 DUP7 ADD PUSH2 0x288 JUMP JUMPDEST PUSH2 0x2D3 DUP2 PUSH2 0x296 JUMP JUMPDEST DUP5 ADD SWAP2 POP POP SWAP3 SWAP2 POP POP JUMP JUMPDEST PUSH0 PUSH1 0x20 DUP3 ADD SWAP1 POP DUP2 DUP2 SUB PUSH0 DUP4 ADD MSTORE PUSH2 0x2F6 DUP2 DUP5 PUSH2 0x2A6 JUMP JUMPDEST SWAP1 POP SWAP3 SWAP2 POP POP JUMP JUMPDEST PUSH0 PUSH1 0x40 MLOAD SWAP1 POP SWAP1 JUMP JUMPDEST PUSH0 DUP1 REVERT JUMPDEST PUSH0 DUP1 REVERT JUMPDEST PUSH0 PUSH20 0xFFFFFFFFFFFFFFFFFFFFFFFFFFFFFFFFFFFFFFFF DUP3 AND SWAP1 POP SWAP2 SWAP1 POP JUMP JUMPDEST PUSH0 PUSH2 0x338 DUP3 PUSH2 0x30F JUMP JUMPDEST SWAP1 POP SWAP2 SWAP1 POP JUMP JUMPDEST PUSH2 0x348 DUP2 PUSH2 0x32E JUMP JUMPDEST DUP2 EQ PUSH2 0x352 JUMPI PUSH0 DUP1 REVERT JUMPDEST POP JUMP JUMPDEST PUSH0 DUP2 CALLDATALOAD SWAP1 POP PUSH2 0x363 DUP2 PUSH2 0x33F JUMP JUMPDEST SWAP3 SWAP2 POP POP JUMP JUMPDEST PUSH0 PUSH1 0x20 DUP3 DUP5 SUB SLT ISZERO PUSH2 0x37E JUMPI PUSH2 0x37D PUSH2 0x307 JUMP JUMPDEST JUMPDEST PUSH0 PUSH2 0x38B DUP5 DUP3 DUP6 ADD PUSH2 0x355 JUMP JUMPDEST SWAP2 POP POP SWAP3 SWAP2 POP POP JUMP JUMPDEST PUSH0 DUP2 ISZERO ISZERO SWAP1 POP SWAP2 SWAP1 POP JUMP JUMPDEST PUSH2 0x3A8 DUP2 PUSH2 0x394 JUMP JUMPDEST DUP3 MSTORE POP POP JUMP JUMPDEST PUSH0 PUSH1 0x20 DUP3 ADD SWAP1 POP PUSH2 0x3C1 PUSH0 DUP4 ADD DUP5 PUSH2 0x39F JUMP JUMPDEST SWAP3 SWAP2 POP POP JUMP JUMPDEST PUSH0 DUP1 REVERT JUMPDEST PUSH0 DUP1 REVERT JUMPDEST PUSH32 0x4E487B7100000000000000000000000000000000000000000000000000000000 PUSH0 MSTORE PUSH1 0x41 PUSH1 0x4 MSTORE PUSH1 0x24 PUSH0 REVERT JUMPDEST PUSH2 0x405 DUP3 PUSH2 0x296 JUMP JUMPDEST DUP2 ADD DUP2 DUP2 LT PUSH8 0xFFFFFFFFFFFFFFFF DUP3 GT OR ISZERO PUSH2 0x424 JUMPI PUSH2 0x423 PUSH2 0x3CF JUMP JUMPDEST JUMPDEST DUP1 PUSH1 0x40 MSTORE POP POP POP JUMP JUMPDEST PUSH0 PUSH2 0x436 PUSH2 0x2FE JUMP JUMPDEST SWAP1 POP PUSH2 0x442 DUP3 DUP3 PUSH2 0x3FC JUMP JUMPDEST SWAP2 SWAP1 POP JUMP JUMPDEST PUSH0 PUSH8 0xFFFFFFFFFFFFFFFF DUP3 GT ISZERO PUSH2 0x461 JUMPI PUSH2 0x460 PUSH2 0x3CF JUMP JUMPDEST JUMPDEST PUSH2 0x46A DUP3 PUSH2 0x296 JUMP JUMPDEST SWAP1 POP PUSH1 0x20 DUP2 ADD SWAP1 POP SWAP2 SWAP1 POP JUMP JUMPDEST DUP3 DUP2 DUP4 CALLDATACOPY PUSH0 DUP4 DUP4 ADD MSTORE POP POP POP JUMP JUMPDEST PUSH0 PUSH2 0x497 PUSH2 0x492 DUP5 PUSH2 0x447 JUMP JUMPDEST PUSH2 0x42D JUMP JUMPDEST SWAP1 POP DUP3 DUP2 MSTORE PUSH1 0x20 DUP2 ADD DUP5 DUP5 DUP5 ADD GT ISZERO PUSH2 0x4B3 JUMPI PUSH2 0x4B2 PUSH2 0x3CB JUMP JUMPDEST JUMPDEST PUSH2 0x4BE DUP5 DUP3 DUP6 PUSH2 0x477 JUMP JUMPDEST POP SWAP4 SWAP3 POP POP POP JUMP JUMPDEST PUSH0 DUP3 PUSH1 0x1F DUP4 ADD SLT PUSH2 0x4DA JUMPI PUSH2 0x4D9 PUSH2 0x3C7 JUMP JUMPDEST JUMPDEST DUP2 CALLDATALOAD PUSH2 0x4EA DUP5 DUP3 PUSH1 0x20 DUP7 ADD PUSH2 0x485 JUMP JUMPDEST SWAP2 POP POP SWAP3 SWAP2 POP POP JUMP JUMPDEST PUSH0 PUSH1 0x20 DUP3 DUP5 SUB SLT ISZERO PUSH2 0x508 JUMPI PUSH2 0x507 PUSH2 0x307 JUMP JUMPDEST JUMPDEST PUSH0 DUP3 ADD CALLDATALOAD PUSH8 0xFFFFFFFFFFFFFFFF DUP2 GT ISZERO PUSH2 0x525 JUMPI PUSH2 0x524 PUSH2 0x30B JUMP JUMPDEST JUMPDEST PUSH2 0x531 DUP5 DUP3 DUP6 ADD PUSH2 0x4C6 JUMP JUMPDEST SWAP2 POP POP SWAP3 SWAP2 POP POP JUMP JUMPDEST PUSH32 0x4E487B7100000000000000000000000000000000000000000000000000000000 PUSH0 MSTORE PUSH1 0x22 PUSH1 0x4 MSTORE PUSH1 0x24 PUSH0 REVERT JUMPDEST PUSH0 PUSH1 0x2 DUP3 DIV SWAP1 POP PUSH1 0x1 DUP3 AND DUP1 PUSH2 0x57E JUMPI PUSH1 0x7F DUP3 AND SWAP2 POP JUMPDEST PUSH1 0x20 DUP3 LT DUP2 SUB PUSH2 0x591 JUMPI PUSH2 0x590 PUSH2 0x53A JUMP JUMPDEST JUMPDEST POP SWAP2 SWAP1 POP JUMP JUMPDEST PUSH32 0x546869732061646472657373206973206E6F742077686974656C697374656400 PUSH0 DUP3 ADD MSTORE POP JUMP JUMPDEST PUSH0 PUSH2 0x5CB PUSH1 0x1F DUP4 PUSH2 0x278 JUMP JUMPDEST SWAP2 POP PUSH2 0x5D6 DUP3 PUSH2 0x597 JUMP JUMPDEST PUSH1 0x20 DUP3 ADD SWAP1 POP SWAP2 SWAP1 POP JUMP JUMPDEST PUSH0 PUSH1 0x20 DUP3 ADD SWAP1 POP DUP2 DUP2 SUB PUSH0 DUP4 ADD MSTORE PUSH2 0x5F8 DUP2 PUSH2 0x5BF JUMP JUMPDEST SWAP1 POP SWAP2 SWAP1 POP JUMP JUMPDEST PUSH0 DUP2 SWAP1 POP DUP2 PUSH0 MSTORE PUSH1 0x20 PUSH0 KECCAK256 SWAP1 POP SWAP2 SWAP1 POP JUMP JUMPDEST PUSH0 PUSH1 0x20 PUSH1 0x1F DUP4 ADD DIV SWAP1 POP SWAP2 SWAP1 POP JUMP JUMPDEST PUSH0 DUP3 DUP3 SHL SWAP1 POP SWAP3 SWAP2 POP POP JUMP JUMPDEST PUSH0 PUSH1 0x8 DUP4 MUL PUSH2 0x65B PUSH32 0xFFFFFFFFFFFFFFFFFFFFFFFFFFFFFFFFFFFFFFFFFFFFFFFFFFFFFFFFFFFFFFFF DUP3 PUSH2 0x620 JUMP JUMPDEST PUSH2 0x665 DUP7 DUP4 PUSH2 0x620 JUMP JUMPDEST SWAP6 POP DUP1 NOT DUP5 AND SWAP4 POP DUP1 DUP7 AND DUP5 OR SWAP3 POP POP POP SWAP4 SWAP3 POP POP POP JUMP JUMPDEST PUSH0 DUP2 SWAP1 POP SWAP2 SWAP1 POP JUMP JUMPDEST PUSH0 DUP2 SWAP1 POP SWAP2 SWAP1 POP JUMP JUMPDEST PUSH0 PUSH2 0x6A9 PUSH2 0x6A4 PUSH2 0x69F DUP5 PUSH2 0x67D JUMP JUMPDEST PUSH2 0x686 JUMP JUMPDEST PUSH2 0x67D JUMP JUMPDEST SWAP1 POP SWAP2 SWAP1 POP JUMP JUMPDEST PUSH0 DUP2 SWAP1 POP SWAP2 SWAP1 POP JUMP JUMPDEST PUSH2 0x6C2 DUP4 PUSH2 0x68F JUMP JUMPDEST PUSH2 0x6D6 PUSH2 0x6CE DUP3 PUSH2 0x6B0 JUMP JUMPDEST DUP5 DUP5 SLOAD PUSH2 0x62C JUMP JUMPDEST DUP3 SSTORE POP POP POP POP JUMP JUMPDEST PUSH0 SWAP1 JUMP JUMPDEST PUSH2 0x6EA PUSH2 0x6DE JUMP JUMPDEST PUSH2 0x6F5 DUP2 DUP5 DUP5 PUSH2 0x6B9 JUMP JUMPDEST POP POP POP JUMP JUMPDEST JUMPDEST DUP2 DUP2 LT ISZERO PUSH2 0x718 JUMPI PUSH2 0x70D PUSH0 DUP3 PUSH2 0x6E2 JUMP JUMPDEST PUSH1 0x1 DUP2 ADD SWAP1 POP PUSH2 0x6FB JUMP JUMPDEST POP POP JUMP JUMPDEST PUSH1 0x1F DUP3 GT ISZERO PUSH2 0x75D JUMPI PUSH2 0x72E DUP2 PUSH2 0x5FF JUMP JUMPDEST PUSH2 0x737 DUP5 PUSH2 0x611 JUMP JUMPDEST DUP2 ADD PUSH1 0x20 DUP6 LT ISZERO PUSH2 0x746 JUMPI DUP2 SWAP1 POP JUMPDEST PUSH2 0x75A PUSH2 0x752 DUP6 PUSH2 0x611 JUMP JUMPDEST DUP4 ADD DUP3 PUSH2 0x6FA JUMP JUMPDEST POP POP JUMPDEST POP POP POP JUMP JUMPDEST PUSH0 DUP3 DUP3 SHR SWAP1 POP SWAP3 SWAP2 POP POP JUMP JUMPDEST PUSH0 PUSH2 0x77D PUSH0 NOT DUP5 PUSH1 0x8 MUL PUSH2 0x762 JUMP JUMPDEST NOT DUP1 DUP4 AND SWAP2 POP POP SWAP3 SWAP2 POP POP JUMP JUMPDEST PUSH0 PUSH2 0x795 DUP4 DUP4 PUSH2 0x76E JUMP JUMPDEST SWAP2 POP DUP3 PUSH1 0x2 MUL DUP3 OR SWAP1 POP SWAP3 SWAP2 POP POP JUMP JUMPDEST PUSH2 0x7AE DUP3 PUSH2 0x26E JUMP JUMPDEST PUSH8 0xFFFFFFFFFFFFFFFF DUP2 GT ISZERO PUSH2 0x7C7 JUMPI PUSH2 0x7C6 PUSH2 0x3CF JUMP JUMPDEST JUMPDEST PUSH2 0x7D1 DUP3 SLOAD PUSH2 0x567 JUMP JUMPDEST PUSH2 0x7DC DUP3 DUP3 DUP6 PUSH2 0x71C JUMP JUMPDEST PUSH0 PUSH1 0x20 SWAP1 POP PUSH1 0x1F DUP4 GT PUSH1 0x1 DUP2 EQ PUSH2 0x80D JUMPI PUSH0 DUP5 ISZERO PUSH2 0x7FB JUMPI DUP3 DUP8 ADD MLOAD SWAP1 POP JUMPDEST PUSH2 0x805 DUP6 DUP3 PUSH2 0x78A JUMP JUMPDEST DUP7 SSTORE POP PUSH2 0x86C JUMP JUMPDEST PUSH1 0x1F NOT DUP5 AND PUSH2 0x81B DUP7 PUSH2 0x5FF JUMP JUMPDEST PUSH0 JUMPDEST DUP3 DUP2 LT ISZERO PUSH2 0x842 JUMPI DUP5 DUP10 ADD MLOAD DUP3 SSTORE PUSH1 0x1 DUP3 ADD SWAP2 POP PUSH1 0x20 DUP6 ADD SWAP5 POP PUSH1 0x20 DUP2 ADD SWAP1 POP PUSH2 0x81D JUMP JUMPDEST DUP7 DUP4 LT ISZERO PUSH2 0x85F JUMPI DUP5 DUP10 ADD MLOAD PUSH2 0x85B PUSH1 0x1F DUP10 AND DUP3 PUSH2 0x76E JUMP JUMPDEST DUP4 SSTORE POP JUMPDEST PUSH1 0x1 PUSH1 0x2 DUP9 MUL ADD DUP9 SSTORE POP POP POP JUMPDEST POP POP POP POP POP POP JUMP INVALID LOG2 PUSH5 0x6970667358 0x22 SLT KECCAK256 DUP3 0x2C PUSH16 0x3C40DF0BE7844204A49DF435619A79A5 0xC2 0xCD LOG0 EQ EXTCODECOPY 0xCE SHL 0xB4 BALANCE GAS PUSH9 0xA8FA64736F6C634300 ADDMOD BYTE STOP CALLER "
				},
				"gasEstimates": {
					"creation": {
						"codeDepositCost": "443600",
						"executionCost": "478",
						"totalCost": "444078"
					},
					"external": {
						"addToWhitelist(address)": "24847",
						"name()": "infinite",
						"setName(string)": "infinite",
						"whiteList(address)": "2832"
					}
				},
				"methodIdentifiers": {
					"addToWhitelist(address)": "e43252d7",
					"name()": "06fdde03",
					"setName(string)": "c47f0027",
					"whiteList(address)": "372c12b1"
				}
			},
			"storageLayout": {
				"storage": [
					{
						"astId": 5,
						"contract": "contracts/9_Mappings.sol:Mappings",
						"label": "whiteList",
						"offset": 0,
						"slot": "0",
						"type": "t_mapping(t_address,t_bool)"
					},
					{
						"astId": 7,
						"contract": "contracts/9_Mappings.sol:Mappings",
						"label": "name",
						"offset": 0,
						"slot": "1",
						"type": "t_string_storage"
					}
				],
				"types": {
					"t_address": {
						"encoding": "inplace",
						"label": "address",
						"numberOfBytes": "20"
					},
					"t_bool": {
						"encoding": "inplace",
						"label": "bool",
						"numberOfBytes": "1"
					},
					"t_mapping(t_address,t_bool)": {
						"encoding": "mapping",
						"key": "t_address",
						"label": "mapping(address => bool)",
						"numberOfBytes": "32",
						"value": "t_bool"
					},
					"t_string_storage": {
						"encoding": "bytes",
						"label": "string",
						"numberOfBytes": "32"
					}
				}
			},
			"userdoc": {
				"kind": "user",
				"methods": {},
				"version": 1
			}
		}
	}
}